{
	"data": {
		"bytecode": {
			"linkReferences": {},
			"object": "608060405260015f55600180556001600255600160035560016004553480156025575f80fd5b503360125f6101000a81548173ffffffffffffffffffffffffffffffffffffffff021916908373ffffffffffffffffffffffffffffffffffffffff160217905550616ebd806100735f395ff3fe608060405260043610610203575f3560e01c80639959f11e11610117578063c2f7a47b1161009f578063cd8565201161006e578063cd85652014610874578063cfe352da1461089c578063f851a440146108c4578063f8cf8293146108ee578063fa60631f1461090a57610203565b8063c2f7a47b14610793578063c4cfccd5146107d4578063c567132414610810578063c8fd31df1461084c57610203565b8063ba989eb2116100e6578063ba989eb21461067f578063bbde9d85146106bb578063bc018b8a146106fb578063bfd2afab14610725578063c2b442761461076b57610203565b80639959f11e146105bf5780639cb76c6e14610603578063a10ab95f1461062d578063abb222371461065557610203565b80633bed76211161019a578063764dedb311610169578063764dedb3146104b857806376e1c22d146104f45780637a7e53e014610531578063953d01ce1461055957806396418c981461058357610203565b80633bed7621146103d757806357acee6e146103ff57806368f4f7ff1461043d5780636f997e591461047957610203565b80631724031e116101d65780631724031e1461030b5780631c2622af14610327578063205bea441461035157806328a6e1e71461039157610203565b8063051dcc9214610207578063062c0dec1461024357806308385f861461027f5780631264b3b8146102c5575b5f80fd5b348015610212575f80fd5b5061022d600480360381019061022891906149c2565b610934565b60405161023a9190614a2c565b60405180910390f35b34801561024e575f80fd5b5061026960048036038101906102649190614a6f565b610964565b6040516102769190614aa9565b60405180910390f35b34801561028a575f80fd5b506102a560048036038101906102a09190614a6f565b610979565b6040516102bc9b9a99989796959493929190614b4c565b60405180910390f35b3480156102d0575f80fd5b506102eb60048036038101906102e69190614a6f565b610acc565b6040516103029b9a99989796959493929190614bfc565b60405180910390f35b61032560048036038101906103209190614cd6565b610c11565b005b348015610332575f80fd5b5061033b611185565b6040516103489190614aa9565b60405180910390f35b34801561035c575f80fd5b5061037760048036038101906103729190614a6f565b61118b565b604051610388959493929190614db8565b60405180910390f35b34801561039c575f80fd5b506103b760048036038101906103b291906149c2565b611304565b6040516103ce9b9a99989796959493929190614e17565b60405180910390f35b3480156103e2575f80fd5b506103fd60048036038101906103f891906149c2565b611457565b005b34801561040a575f80fd5b50610425600480360381019061042091906149c2565b611505565b6040516104349392919061511f565b60405180910390f35b348015610448575f80fd5b50610463600480360381019061045e91906149c2565b611859565b6040516104709190614a2c565b60405180910390f35b348015610484575f80fd5b5061049f600480360381019061049a91906149c2565b611889565b6040516104af9493929190615415565b60405180910390f35b3480156104c3575f80fd5b506104de60048036038101906104d99190614a6f565b6121ca565b6040516104eb9190615474565b60405180910390f35b3480156104ff575f80fd5b5061051a600480360381019061051591906155b9565b61229e565b604051610528929190615686565b60405180910390f35b34801561053c575f80fd5b50610557600480360381019061055291906156ad565b6129b4565b005b348015610564575f80fd5b5061056d612c63565b60405161057a9190614aa9565b60405180910390f35b34801561058e575f80fd5b506105a960048036038101906105a491906149c2565b612c69565b6040516105b69190614a2c565b60405180910390f35b3480156105ca575f80fd5b506105e560048036038101906105e09190614a6f565b612c99565b6040516105fa999897969594939291906157a9565b60405180910390f35b34801561060e575f80fd5b50610617612e3a565b6040516106249190614aa9565b60405180910390f35b348015610638575f80fd5b50610653600480360381019061064e91906158c9565b612e40565b005b348015610660575f80fd5b506106696130ff565b6040516106769190614aa9565b60405180910390f35b34801561068a575f80fd5b506106a560048036038101906106a091906149c2565b613105565b6040516106b29190614a2c565b60405180910390f35b3480156106c6575f80fd5b506106e160048036038101906106dc9190614a6f565b613135565b6040516106f2959493929190615980565b60405180910390f35b348015610706575f80fd5b5061070f6132b1565b60405161071c9190614aa9565b60405180910390f35b348015610730575f80fd5b5061074b600480360381019061074691906159df565b6132b6565b6040516107629b9a99989796959493929190614e17565b60405180910390f35b348015610776575f80fd5b50610791600480360381019061078c9190615add565b613414565b005b34801561079e575f80fd5b506107b960048036038101906107b491906149c2565b6137de565b6040516107cb96959493929190615bce565b60405180910390f35b3480156107df575f80fd5b506107fa60048036038101906107f591906149c2565b613822565b6040516108079190614a2c565b60405180910390f35b34801561081b575f80fd5b5061083660048036038101906108319190614a6f565b613852565b6040516108439190615474565b60405180910390f35b348015610857575f80fd5b50610872600480360381019061086d9190615c2d565b613858565b005b34801561087f575f80fd5b5061089a60048036038101906108959190615d36565b613b89565b005b3480156108a7575f80fd5b506108c260048036038101906108bd9190615e3f565b613ea7565b005b3480156108cf575f80fd5b506108d86140eb565b6040516108e59190614a2c565b60405180910390f35b61090860048036038101906109039190615f29565b614110565b005b348015610915575f80fd5b5061091e614557565b60405161092b9190615474565b60405180910390f35b600b602052805f5260405f205f915054906101000a900473ffffffffffffffffffffffffffffffffffffffff1681565b6015602052805f5260405f205f915090505481565b6011602052805f5260405f205f91509050805f015f9054906101000a900473ffffffffffffffffffffffffffffffffffffffff16908060010180546109bd9061602f565b80601f01602080910402602001604051908101604052809291908181526020018280546109e99061602f565b8015610a345780601f10610a0b57610100808354040283529160200191610a34565b820191905f5260205f20905b815481529060010190602001808311610a1757829003601f168201915b505050505090806002015490806003015490806004015490806005015490806006015490806007015f9054906101000a900460ff16908060070160019054906101000a900473ffffffffffffffffffffffffffffffffffffffff1690806008015f9054906101000a900473ffffffffffffffffffffffffffffffffffffffff16908060080160149054906101000a900460ff1690508b565b6010602052805f5260405f205f91509050805f015f9054906101000a900473ffffffffffffffffffffffffffffffffffffffff1690806001015f9054906101000a900473ffffffffffffffffffffffffffffffffffffffff1690806002018054610b359061602f565b80601f0160208091040260200160405190810160405280929190818152602001828054610b619061602f565b8015610bac5780601f10610b8357610100808354040283529160200191610bac565b820191905f5260205f20905b815481529060010190602001808311610b8f57829003601f168201915b505050505090806003015490806004015490806005015490806006015490806007015490806008015f9054906101000a900473ffffffffffffffffffffffffffffffffffffffff169080600901549080600a015f9054906101000a900460ff1690508b565b60011515610c1e33614569565b151514610c60576040517f08c379a0000000000000000000000000000000000000000000000000000000008152600401610c57906160cf565b60405180910390fd5b60165f8a73ffffffffffffffffffffffffffffffffffffffff1673ffffffffffffffffffffffffffffffffffffffff1681526020019081526020015f205f8981526020019081526020015f2060060154604051602001610cc0919061610d565b6040516020818303038152906040528051906020012087604051602001610ce7919061610d565b6040516020818303038152906040528051906020012014610d3d576040517f08c379a0000000000000000000000000000000000000000000000000000000008152600401610d3490616171565b60405180910390fd5b5f151560165f8b73ffffffffffffffffffffffffffffffffffffffff1673ffffffffffffffffffffffffffffffffffffffff1681526020019081526020015f205f8a81526020019081526020015f2060070160019054906101000a900460ff16151514610ddf576040517f08c379a0000000000000000000000000000000000000000000000000000000008152600401610dd6906161d9565b60405180910390fd5b8060165f8b73ffffffffffffffffffffffffffffffffffffffff1673ffffffffffffffffffffffffffffffffffffffff1681526020019081526020015f205f8a81526020019081526020015f206007015f6101000a81548160ff0219169083151502179055504260165f8b73ffffffffffffffffffffffffffffffffffffffff1673ffffffffffffffffffffffffffffffffffffffff1681526020019081526020015f205f8a81526020019081526020015f2060050181905550600160165f8b73ffffffffffffffffffffffffffffffffffffffff1673ffffffffffffffffffffffffffffffffffffffff1681526020019081526020015f205f8a81526020019081526020015f2060070160016101000a81548160ff0219169083151502179055503360165f8b73ffffffffffffffffffffffffffffffffffffffff1673ffffffffffffffffffffffffffffffffffffffff1681526020019081526020015f205f8a81526020019081526020015f206008015f6101000a81548173ffffffffffffffffffffffffffffffffffffffff021916908373ffffffffffffffffffffffffffffffffffffffff1602179055506040518060c0016040528087815260200186815260200185815260200184815260200183815260200182151581525060175f8981526020019081526020015f205f820151815f01556020820151816001015560408201518160020155606082015181600301556080820151816004015560a0820151816005015f6101000a81548160ff0219169083151502179055509050508873ffffffffffffffffffffffffffffffffffffffff166108fc3490811502906040515f60405180830381858888f19350505050158015611063573d5f803e3d5ffd5b508060145f8981526020019081526020015f206007015f6101000a81548160ff0219169083151502179055504260145f8981526020019081526020015f2060050181905550600160145f8981526020019081526020015f2060070160016101000a81548160ff0219169083151502179055503360145f8981526020019081526020015f206008015f6101000a81548173ffffffffffffffffffffffffffffffffffffffff021916908373ffffffffffffffffffffffffffffffffffffffff1602179055503360145f8981526020019081526020015f2060070160026101000a81548173ffffffffffffffffffffffffffffffffffffffff021916908373ffffffffffffffffffffffffffffffffffffffff160217905550505050505050505050565b60025481565b600d602052805f5260405f205f91509050805f015f9054906101000a900473ffffffffffffffffffffffffffffffffffffffff16908060010180546111cf9061602f565b80601f01602080910402602001604051908101604052809291908181526020018280546111fb9061602f565b80156112465780601f1061121d57610100808354040283529160200191611246565b820191905f5260205f20905b81548152906001019060200180831161122957829003601f168201915b50505050509080600201805461125b9061602f565b80601f01602080910402602001604051908101604052809291908181526020018280546112879061602f565b80156112d25780601f106112a9576101008083540402835291602001916112d2565b820191905f5260205f20905b8154815290600101906020018083116112b557829003601f168201915b505050505090806003015f9054906101000a900463ffffffff16908060030160049054906101000a900460ff16905085565b6014602052805f5260405f205f91509050805f015f9054906101000a900473ffffffffffffffffffffffffffffffffffffffff16908060010180546113489061602f565b80601f01602080910402602001604051908101604052809291908181526020018280546113749061602f565b80156113bf5780601f10611396576101008083540402835291602001916113bf565b820191905f5260205f20905b8154815290600101906020018083116113a257829003601f168201915b505050505090806002015490806003015490806004015490806005015490806006015490806007015f9054906101000a900460ff16908060070160019054906101000a900460ff16908060070160029054906101000a900473ffffffffffffffffffffffffffffffffffffffff1690806008015f9054906101000a900473ffffffffffffffffffffffffffffffffffffffff1690508b565b60125f9054906101000a900473ffffffffffffffffffffffffffffffffffffffff1673ffffffffffffffffffffffffffffffffffffffff163373ffffffffffffffffffffffffffffffffffffffff16146114e6576040517f08c379a00000000000000000000000000000000000000000000000000000000081526004016114dd90616267565b60405180910390fd5b80600581905550600554600a6114fc91906163e1565b60068190555050565b61150d614704565b611515614736565b61151d61478b565b60175f8581526020019081526020015f20601a5f8681526020019081526020015f2060195f8781526020019081526020015f20826040518060c00160405290815f820154815260200160018201548152602001600282015481526020016003820154815260200160048201548152602001600582015f9054906101000a900460ff161515151581525050925081604051806101400160405290815f8201548152602001600182015481526020016002820154815260200160038201548152602001600482015f9054906101000a900460ff161515151581526020016004820160019054906101000a900460ff161515151581526020016004820160029054906101000a900460ff161515151581526020016004820160039054906101000a900460ff161515151581526020016004820160049054906101000a900460ff161515151581526020016004820160059054906101000a900460ff1615151515815250509150806040518060e00160405290815f8201805461169b9061602f565b80601f01602080910402602001604051908101604052809291908181526020018280546116c79061602f565b80156117125780601f106116e957610100808354040283529160200191611712565b820191905f5260205f20905b8154815290600101906020018083116116f557829003601f168201915b5050505050815260200160018201805461172b9061602f565b80601f01602080910402602001604051908101604052809291908181526020018280546117579061602f565b80156117a25780601f10611779576101008083540402835291602001916117a2565b820191905f5260205f20905b81548152906001019060200180831161178557829003601f168201915b505050505081526020016002820154815260200160038201548152602001600482015f9054906101000a900460ff161515151581526020016004820160019054906101000a900460ff161515151581526020016004820160029054906101000a900473ffffffffffffffffffffffffffffffffffffffff1673ffffffffffffffffffffffffffffffffffffffff1673ffffffffffffffffffffffffffffffffffffffff168152505090509250925092509193909250565b600a602052805f5260405f205f915054906101000a900473ffffffffffffffffffffffffffffffffffffffff1681565b6118916147dd565b611899614873565b6118a16148bd565b6118a961490b565b60145f8681526020019081526020015f20600d5f60145f8981526020019081526020015f2060070160029054906101000a900473ffffffffffffffffffffffffffffffffffffffff1673ffffffffffffffffffffffffffffffffffffffff1673ffffffffffffffffffffffffffffffffffffffff1681526020019081526020015f20600e5f60145f8a81526020019081526020015f206008015f9054906101000a900473ffffffffffffffffffffffffffffffffffffffff1673ffffffffffffffffffffffffffffffffffffffff1673ffffffffffffffffffffffffffffffffffffffff1681526020019081526020015f20600f5f60195f8b81526020019081526020015f2060040160029054906101000a900473ffffffffffffffffffffffffffffffffffffffff1673ffffffffffffffffffffffffffffffffffffffff1673ffffffffffffffffffffffffffffffffffffffff1681526020019081526020015f2083604051806101600160405290815f82015f9054906101000a900473ffffffffffffffffffffffffffffffffffffffff1673ffffffffffffffffffffffffffffffffffffffff1673ffffffffffffffffffffffffffffffffffffffff168152602001600182018054611a7d9061602f565b80601f0160208091040260200160405190810160405280929190818152602001828054611aa99061602f565b8015611af45780601f10611acb57610100808354040283529160200191611af4565b820191905f5260205f20905b815481529060010190602001808311611ad757829003601f168201915b505050505081526020016002820154815260200160038201548152602001600482015481526020016005820154815260200160068201548152602001600782015f9054906101000a900460ff161515151581526020016007820160019054906101000a900460ff161515151581526020016007820160029054906101000a900473ffffffffffffffffffffffffffffffffffffffff1673ffffffffffffffffffffffffffffffffffffffff1673ffffffffffffffffffffffffffffffffffffffff168152602001600882015f9054906101000a900473ffffffffffffffffffffffffffffffffffffffff1673ffffffffffffffffffffffffffffffffffffffff1673ffffffffffffffffffffffffffffffffffffffff16815250509350826040518060a00160405290815f82015f9054906101000a900473ffffffffffffffffffffffffffffffffffffffff1673ffffffffffffffffffffffffffffffffffffffff1673ffffffffffffffffffffffffffffffffffffffff168152602001600182018054611c819061602f565b80601f0160208091040260200160405190810160405280929190818152602001828054611cad9061602f565b8015611cf85780601f10611ccf57610100808354040283529160200191611cf8565b820191905f5260205f20905b815481529060010190602001808311611cdb57829003601f168201915b50505050508152602001600282018054611d119061602f565b80601f0160208091040260200160405190810160405280929190818152602001828054611d3d9061602f565b8015611d885780601f10611d5f57610100808354040283529160200191611d88565b820191905f5260205f20905b815481529060010190602001808311611d6b57829003601f168201915b50505050508152602001600382015f9054906101000a900463ffffffff1663ffffffff1663ffffffff1681526020016003820160049054906101000a900460ff1615151515815250509250816040518060a00160405290815f82015f9054906101000a900473ffffffffffffffffffffffffffffffffffffffff1673ffffffffffffffffffffffffffffffffffffffff1673ffffffffffffffffffffffffffffffffffffffff168152602001600182018054611e439061602f565b80601f0160208091040260200160405190810160405280929190818152602001828054611e6f9061602f565b8015611eba5780601f10611e9157610100808354040283529160200191611eba565b820191905f5260205f20905b815481529060010190602001808311611e9d57829003601f168201915b50505050508152602001600282018054611ed39061602f565b80601f0160208091040260200160405190810160405280929190818152602001828054611eff9061602f565b8015611f4a5780601f10611f2157610100808354040283529160200191611f4a565b820191905f5260205f20905b815481529060010190602001808311611f2d57829003601f168201915b50505050508152602001600382015f9054906101000a900463ffffffff1663ffffffff1663ffffffff1681526020016003820160049054906101000a900463ffffffff1663ffffffff1663ffffffff1681525050915080604051806101200160405290815f82015f9054906101000a900473ffffffffffffffffffffffffffffffffffffffff1673ffffffffffffffffffffffffffffffffffffffff1673ffffffffffffffffffffffffffffffffffffffff1681526020016001820180546120119061602f565b80601f016020809104026020016040519081016040528092919081815260200182805461203d9061602f565b80156120885780601f1061205f57610100808354040283529160200191612088565b820191905f5260205f20905b81548152906001019060200180831161206b57829003601f168201915b505050505081526020016002820180546120a19061602f565b80601f01602080910402602001604051908101604052809291908181526020018280546120cd9061602f565b80156121185780601f106120ef57610100808354040283529160200191612118565b820191905f5260205f20905b8154815290600101906020018083116120fb57829003601f168201915b5050505050815260200160038201548152602001600482015481526020016005820154815260200160068201548152602001600782015f9054906101000a900473ffffffffffffffffffffffffffffffffffffffff1673ffffffffffffffffffffffffffffffffffffffff1673ffffffffffffffffffffffffffffffffffffffff1681526020016007820160149054906101000a900460ff161515151581525050905093509350935093509193509193565b5f80600760036101000a81548160ff0219169083151502179055505f600190505b600254811161228657600a5f8281526020019081526020015f205f9054906101000a900473ffffffffffffffffffffffffffffffffffffffff1673ffffffffffffffffffffffffffffffffffffffff168373ffffffffffffffffffffffffffffffffffffffff1603612273576001600760036101000a81548160ff0219169083151502179055505b808061227e9061642b565b9150506121eb565b50600760039054906101000a900460ff169050919050565b5f80600115156122ad3361463d565b1515146122ef576040517f08c379a00000000000000000000000000000000000000000000000000000000081526004016122e6906164bc565b60405180910390fd5b60011515600d5f3373ffffffffffffffffffffffffffffffffffffffff1673ffffffffffffffffffffffffffffffffffffffff1681526020019081526020015f2060030160049054906101000a900460ff16151514612383576040517f08c379a000000000000000000000000000000000000000000000000000000000815260040161237a9061654a565b60405180910390fd5b60155f3373ffffffffffffffffffffffffffffffffffffffff1673ffffffffffffffffffffffffffffffffffffffff1681526020019081526020015f205f8154809291906123d09061642b565b91905055506124003360125f9054906101000a900473ffffffffffffffffffffffffffffffffffffffff166146b7565b60138190555060135460165f3373ffffffffffffffffffffffffffffffffffffffff1673ffffffffffffffffffffffffffffffffffffffff1681526020019081526020015f205f60155f3373ffffffffffffffffffffffffffffffffffffffff1673ffffffffffffffffffffffffffffffffffffffff1681526020019081526020015f205481526020019081526020015f20600601819055508960165f3373ffffffffffffffffffffffffffffffffffffffff1673ffffffffffffffffffffffffffffffffffffffff1681526020019081526020015f205f60155f3373ffffffffffffffffffffffffffffffffffffffff1673ffffffffffffffffffffffffffffffffffffffff1681526020019081526020015f205481526020019081526020015f2060010190816125329190616705565b508860165f3373ffffffffffffffffffffffffffffffffffffffff1673ffffffffffffffffffffffffffffffffffffffff1681526020019081526020015f205f60155f3373ffffffffffffffffffffffffffffffffffffffff1673ffffffffffffffffffffffffffffffffffffffff1681526020019081526020015f205481526020019081526020015f20600301819055508760165f3373ffffffffffffffffffffffffffffffffffffffff1673ffffffffffffffffffffffffffffffffffffffff1681526020019081526020015f205f60155f3373ffffffffffffffffffffffffffffffffffffffff1673ffffffffffffffffffffffffffffffffffffffff1681526020019081526020015f205481526020019081526020015f20600401819055508260165f3373ffffffffffffffffffffffffffffffffffffffff1673ffffffffffffffffffffffffffffffffffffffff1681526020019081526020015f205f60155f3373ffffffffffffffffffffffffffffffffffffffff1673ffffffffffffffffffffffffffffffffffffffff1681526020019081526020015f205481526020019081526020015f20600201819055503360165f3373ffffffffffffffffffffffffffffffffffffffff1673ffffffffffffffffffffffffffffffffffffffff1681526020019081526020015f205f60155f3373ffffffffffffffffffffffffffffffffffffffff1673ffffffffffffffffffffffffffffffffffffffff1681526020019081526020015f205481526020019081526020015f2060070160026101000a81548173ffffffffffffffffffffffffffffffffffffffff021916908373ffffffffffffffffffffffffffffffffffffffff1602179055503360165f3373ffffffffffffffffffffffffffffffffffffffff1673ffffffffffffffffffffffffffffffffffffffff1681526020019081526020015f205f60155f3373ffffffffffffffffffffffffffffffffffffffff1673ffffffffffffffffffffffffffffffffffffffff1681526020019081526020015f205481526020019081526020015f206008015f6101000a81548173ffffffffffffffffffffffffffffffffffffffff021916908373ffffffffffffffffffffffffffffffffffffffff1602179055508960145f60135481526020019081526020015f20600101908161289e9190616705565b508860145f60135481526020019081526020015f20600301819055508760145f60135481526020019081526020015f20600401819055508260145f60135481526020019081526020015f206002018190555060135460145f60135481526020019081526020015f20600601819055503360145f60135481526020019081526020015f2060070160026101000a81548173ffffffffffffffffffffffffffffffffffffffff021916908373ffffffffffffffffffffffffffffffffffffffff16021790555060135460155f3373ffffffffffffffffffffffffffffffffffffffff1673ffffffffffffffffffffffffffffffffffffffff1681526020019081526020015f2054915091509850989650505050505050565b60125f9054906101000a900473ffffffffffffffffffffffffffffffffffffffff1673ffffffffffffffffffffffffffffffffffffffff163373ffffffffffffffffffffffffffffffffffffffff1614612a43576040517f08c379a0000000000000000000000000000000000000000000000000000000008152600401612a3a90616267565b60405180910390fd5b88600a5f60025481526020019081526020015f205f6101000a81548173ffffffffffffffffffffffffffffffffffffffff021916908373ffffffffffffffffffffffffffffffffffffffff1602179055506040518061012001604052808a73ffffffffffffffffffffffffffffffffffffffff1681526020018881526020018781526020018681526020018581526020018481526020018381526020018973ffffffffffffffffffffffffffffffffffffffff168152602001821515815250600f5f8b73ffffffffffffffffffffffffffffffffffffffff1673ffffffffffffffffffffffffffffffffffffffff1681526020019081526020015f205f820151815f015f6101000a81548173ffffffffffffffffffffffffffffffffffffffff021916908373ffffffffffffffffffffffffffffffffffffffff1602179055506020820151816001019081612b989190616705565b506040820151816002019081612bae9190616705565b50606082015181600301556080820151816004015560a0820151816005015560c0820151816006015560e0820151816007015f6101000a81548173ffffffffffffffffffffffffffffffffffffffff021916908373ffffffffffffffffffffffffffffffffffffffff1602179055506101008201518160070160146101000a81548160ff02191690831515021790555090505060025f815480929190612c539061642b565b9190505550505050505050505050565b60045481565b6009602052805f5260405f205f915054906101000a900473ffffffffffffffffffffffffffffffffffffffff1681565b600f602052805f5260405f205f91509050805f015f9054906101000a900473ffffffffffffffffffffffffffffffffffffffff1690806001018054612cdd9061602f565b80601f0160208091040260200160405190810160405280929190818152602001828054612d099061602f565b8015612d545780601f10612d2b57610100808354040283529160200191612d54565b820191905f5260205f20905b815481529060010190602001808311612d3757829003601f168201915b505050505090806002018054612d699061602f565b80601f0160208091040260200160405190810160405280929190818152602001828054612d959061602f565b8015612de05780601f10612db757610100808354040283529160200191612de0565b820191905f5260205f20905b815481529060010190602001808311612dc357829003601f168201915b505050505090806003015490806004015490806005015490806006015490806007015f9054906101000a900473ffffffffffffffffffffffffffffffffffffffff16908060070160149054906101000a900460ff16905089565b60035481565b60125f9054906101000a900473ffffffffffffffffffffffffffffffffffffffff1673ffffffffffffffffffffffffffffffffffffffff163373ffffffffffffffffffffffffffffffffffffffff1614612ecf576040517f08c379a0000000000000000000000000000000000000000000000000000000008152600401612ec690616267565b60405180910390fd5b8660085f805481526020019081526020015f205f6101000a81548173ffffffffffffffffffffffffffffffffffffffff021916908373ffffffffffffffffffffffffffffffffffffffff1602179055506040518060a001604052808873ffffffffffffffffffffffffffffffffffffffff16815260200187878080601f0160208091040260200160405190810160405280939291908181526020018383808284375f81840152601f19601f82011690508083019250505050505050815260200185858080601f0160208091040260200160405190810160405280939291908181526020018383808284375f81840152601f19601f8201169050808301925050505050505081526020018363ffffffff168152602001821515815250600d5f8973ffffffffffffffffffffffffffffffffffffffff1673ffffffffffffffffffffffffffffffffffffffff1681526020019081526020015f205f820151815f015f6101000a81548173ffffffffffffffffffffffffffffffffffffffff021916908373ffffffffffffffffffffffffffffffffffffffff16021790555060208201518160010190816130809190616705565b5060408201518160020190816130969190616705565b506060820151816003015f6101000a81548163ffffffff021916908363ffffffff16021790555060808201518160030160046101000a81548160ff0219169083151502179055509050505f808154809291906130f19061642b565b919050555050505050505050565b60015481565b600c602052805f5260405f205f915054906101000a900473ffffffffffffffffffffffffffffffffffffffff1681565b600e602052805f5260405f205f91509050805f015f9054906101000a900473ffffffffffffffffffffffffffffffffffffffff16908060010180546131799061602f565b80601f01602080910402602001604051908101604052809291908181526020018280546131a59061602f565b80156131f05780601f106131c7576101008083540402835291602001916131f0565b820191905f5260205f20905b8154815290600101906020018083116131d357829003601f168201915b5050505050908060020180546132059061602f565b80601f01602080910402602001604051908101604052809291908181526020018280546132319061602f565b801561327c5780601f106132535761010080835404028352916020019161327c565b820191905f5260205f20905b81548152906001019060200180831161325f57829003601f168201915b505050505090806003015f9054906101000a900463ffffffff16908060030160049054906101000a900463ffffffff16905085565b5f5481565b6016602052815f5260405f20602052805f5260405f205f9150915050805f015f9054906101000a900473ffffffffffffffffffffffffffffffffffffffff16908060010180546133059061602f565b80601f01602080910402602001604051908101604052809291908181526020018280546133319061602f565b801561337c5780601f106133535761010080835404028352916020019161337c565b820191905f5260205f20905b81548152906001019060200180831161335f57829003601f168201915b505050505090806002015490806003015490806004015490806005015490806006015490806007015f9054906101000a900460ff16908060070160019054906101000a900460ff16908060070160029054906101000a900473ffffffffffffffffffffffffffffffffffffffff1690806008015f9054906101000a900473ffffffffffffffffffffffffffffffffffffffff1690508b565b6001151561342133613852565b151514613463576040517f08c379a000000000000000000000000000000000000000000000000000000000815260040161345a90616844565b60405180910390fd5b5f5b868110156137d45760011515600f5f3373ffffffffffffffffffffffffffffffffffffffff1673ffffffffffffffffffffffffffffffffffffffff1681526020019081526020015f2060070160149054906101000a900460ff16151514613501576040517f08c379a00000000000000000000000000000000000000000000000000000000081526004016134f8906168d2565b60405180910390fd5b600f5f3373ffffffffffffffffffffffffffffffffffffffff1673ffffffffffffffffffffffffffffffffffffffff1681526020019081526020015f2060050154421115613584576040517f08c379a000000000000000000000000000000000000000000000000000000000815260040161357b90616960565b60405180910390fd5b60011515601a5f88848151811061359e5761359d61697e565b5b602002602001015181526020019081526020015f2060040160049054906101000a900460ff16151514613606576040517f08c379a00000000000000000000000000000000000000000000000000000000081526004016135fd90616a1b565b60405180910390fd5b5f151560195f88848151811061361f5761361e61697e565b5b602002602001015181526020019081526020015f2060040160019054906101000a900460ff16151514613687576040517f08c379a000000000000000000000000000000000000000000000000000000000815260040161367e90616aa9565b60405180910390fd5b6040518060e0016040528086815260200185815260200184815260200142815260200183151581526020016001151581526020013373ffffffffffffffffffffffffffffffffffffffff1681525060195f8884815181106136eb576136ea61697e565b5b602002602001015181526020019081526020015f205f820151815f0190816137139190616705565b5060208201518160010190816137299190616705565b5060408201518160020155606082015181600301556080820151816004015f6101000a81548160ff02191690831515021790555060a08201518160040160016101000a81548160ff02191690831515021790555060c08201518160040160026101000a81548173ffffffffffffffffffffffffffffffffffffffff021916908373ffffffffffffffffffffffffffffffffffffffff1602179055509050508080600101915050613465565b5050505050505050565b6017602052805f5260405f205f91509050805f015490806001015490806002015490806003015490806004015490806005015f9054906101000a900460ff16905086565b6008602052805f5260405f205f915054906101000a900473ffffffffffffffffffffffffffffffffffffffff1681565b5f919050565b60125f9054906101000a900473ffffffffffffffffffffffffffffffffffffffff1673ffffffffffffffffffffffffffffffffffffffff163373ffffffffffffffffffffffffffffffffffffffff16146138e7576040517f08c379a00000000000000000000000000000000000000000000000000000000081526004016138de90616267565b60405180910390fd5b8a600c5f60045481526020019081526020015f205f6101000a81548173ffffffffffffffffffffffffffffffffffffffff021916908373ffffffffffffffffffffffffffffffffffffffff1602179055506040518061016001604052808c73ffffffffffffffffffffffffffffffffffffffff1681526020018b81526020018a815260200189815260200188815260200187815260200186815260200185151581526020018473ffffffffffffffffffffffffffffffffffffffff1681526020018373ffffffffffffffffffffffffffffffffffffffff16815260200182151581525060115f8d73ffffffffffffffffffffffffffffffffffffffff1673ffffffffffffffffffffffffffffffffffffffff1681526020019081526020015f205f820151815f015f6101000a81548173ffffffffffffffffffffffffffffffffffffffff021916908373ffffffffffffffffffffffffffffffffffffffff1602179055506020820151816001019081613a609190616705565b5060408201518160020155606082015181600301556080820151816004015560a0820151816005015560c0820151816006015560e0820151816007015f6101000a81548160ff0219169083151502179055506101008201518160070160016101000a81548173ffffffffffffffffffffffffffffffffffffffff021916908373ffffffffffffffffffffffffffffffffffffffff160217905550610120820151816008015f6101000a81548173ffffffffffffffffffffffffffffffffffffffff021916908373ffffffffffffffffffffffffffffffffffffffff1602179055506101408201518160080160146101000a81548160ff02191690831515021790555090505060045f815480929190613b779061642b565b91905055505050505050505050505050565b60125f9054906101000a900473ffffffffffffffffffffffffffffffffffffffff1673ffffffffffffffffffffffffffffffffffffffff163373ffffffffffffffffffffffffffffffffffffffff1614613c18576040517f08c379a0000000000000000000000000000000000000000000000000000000008152600401613c0f90616267565b60405180910390fd5b8a600b5f60035481526020019081526020015f205f6101000a81548173ffffffffffffffffffffffffffffffffffffffff021916908373ffffffffffffffffffffffffffffffffffffffff1602179055506040518061016001604052808c73ffffffffffffffffffffffffffffffffffffffff1681526020018b73ffffffffffffffffffffffffffffffffffffffff1681526020018a81526020018981526020018881526020018781526020018681526020018581526020018473ffffffffffffffffffffffffffffffffffffffff1681526020018363ffffffff16815260200182151581525060105f8d73ffffffffffffffffffffffffffffffffffffffff1673ffffffffffffffffffffffffffffffffffffffff1681526020019081526020015f205f820151815f015f6101000a81548173ffffffffffffffffffffffffffffffffffffffff021916908373ffffffffffffffffffffffffffffffffffffffff1602179055506020820151816001015f6101000a81548173ffffffffffffffffffffffffffffffffffffffff021916908373ffffffffffffffffffffffffffffffffffffffff1602179055506040820151816002019081613ddb9190616705565b50606082015181600301556080820151816004015560a0820151816005015560c0820151816006015560e08201518160070155610100820151816008015f6101000a81548173ffffffffffffffffffffffffffffffffffffffff021916908373ffffffffffffffffffffffffffffffffffffffff160217905550610120820151816009015561014082015181600a015f6101000a81548160ff02191690831515021790555090505060035f815480929190613e959061642b565b91905055505050505050505050505050565b60125f9054906101000a900473ffffffffffffffffffffffffffffffffffffffff1673ffffffffffffffffffffffffffffffffffffffff163373ffffffffffffffffffffffffffffffffffffffff1614613f36576040517f08c379a0000000000000000000000000000000000000000000000000000000008152600401613f2d90616267565b60405180910390fd5b8460095f60015481526020019081526020015f205f6101000a81548173ffffffffffffffffffffffffffffffffffffffff021916908373ffffffffffffffffffffffffffffffffffffffff1602179055506040518060a001604052808673ffffffffffffffffffffffffffffffffffffffff1681526020018581526020018481526020018363ffffffff1681526020018263ffffffff16815250600e5f8773ffffffffffffffffffffffffffffffffffffffff1673ffffffffffffffffffffffffffffffffffffffff1681526020019081526020015f205f820151815f015f6101000a81548173ffffffffffffffffffffffffffffffffffffffff021916908373ffffffffffffffffffffffffffffffffffffffff16021790555060208201518160010190816140669190616705565b50604082015181600201908161407c9190616705565b506060820151816003015f6101000a81548163ffffffff021916908363ffffffff16021790555060808201518160030160046101000a81548163ffffffff021916908363ffffffff16021790555090505060015f8154809291906140df9061642b565b91905055505050505050565b60125f9054906101000a900473ffffffffffffffffffffffffffffffffffffffff1681565b6001151561411d33613852565b15151461415f576040517f08c379a000000000000000000000000000000000000000000000000000000000815260040161415690616844565b60405180910390fd5b6001151560145f3481526020019081526020015f206007015f9054906101000a900460ff161515146141c6576040517f08c379a00000000000000000000000000000000000000000000000000000000081526004016141bd90616b37565b60405180910390fd5b60145f8a81526020019081526020015f20600601546040516020016141eb919061610d565b604051602081830303815290604052805190602001208a6040516020016142129190616b9a565b6040516020818303038152906040528051906020012014614268576040517f08c379a000000000000000000000000000000000000000000000000000000000815260040161425f90616bfe565b60405180910390fd5b600f5f3373ffffffffffffffffffffffffffffffffffffffff1673ffffffffffffffffffffffffffffffffffffffff1681526020019081526020015f20600301544211156142eb576040517f08c379a00000000000000000000000000000000000000000000000000000000081526004016142e290616c8c565b60405180910390fd5b6001151560145f8b81526020019081526020015f206007015f9054906101000a900460ff16151514614352576040517f08c379a000000000000000000000000000000000000000000000000000000000815260040161434990616d1a565b60405180910390fd5b5f1515601a5f8b81526020019081526020015f2060040160059054906101000a900460ff161515146143b9576040517f08c379a00000000000000000000000000000000000000000000000000000000081526004016143b090616da8565b60405180910390fd5b6040518061014001604052808981526020018881526020018781526020014281526020018615158152602001851515815260200184151581526020018315158152602001821515815260200160011515815250601a5f8b81526020019081526020015f205f820151815f01556020820151816001015560408201518160020155606082015181600301556080820151816004015f6101000a81548160ff02191690831515021790555060a08201518160040160016101000a81548160ff02191690831515021790555060c08201518160040160026101000a81548160ff02191690831515021790555060e08201518160040160036101000a81548160ff0219169083151502179055506101008201518160040160046101000a81548160ff0219169083151502179055506101208201518160040160056101000a81548160ff0219169083151502179055509050508973ffffffffffffffffffffffffffffffffffffffff166108fc3490811502906040515f60405180830381858888f1935050505015801561454a573d5f803e3d5ffd5b5050505050505050505050565b60185f9054906101000a900460ff1681565b5f80600760016101000a81548160ff0219169083151502179055505f600190505b60015481116146255760095f8281526020019081526020015f205f9054906101000a900473ffffffffffffffffffffffffffffffffffffffff1673ffffffffffffffffffffffffffffffffffffffff168373ffffffffffffffffffffffffffffffffffffffff1603614612576001600760016101000a81548160ff0219169083151502179055505b808061461d9061642b565b91505061458a565b50600760019054906101000a900460ff169050919050565b5f80600760056101000a81548160ff0219169083151502179055505f600190505b600454811161469f57600454810361468c576001600760056101000a81548160ff0219169083151502179055505b80806146979061642b565b91505061465e565b50600760059054906101000a900460ff169050919050565b5f804284846040516020016146ce93929190616dee565b604051602081830303815290604052805190602001205f1c90505f600654826146f79190616e57565b9050809250505092915050565b6040518060c001604052805f81526020015f81526020015f81526020015f81526020015f81526020015f151581525090565b6040518061014001604052805f81526020015f81526020015f81526020015f81526020015f151581526020015f151581526020015f151581526020015f151581526020015f151581526020015f151581525090565b6040518060e0016040528060608152602001606081526020015f81526020015f81526020015f151581526020015f151581526020015f73ffffffffffffffffffffffffffffffffffffffff1681525090565b6040518061016001604052805f73ffffffffffffffffffffffffffffffffffffffff168152602001606081526020015f81526020015f81526020015f81526020015f81526020015f81526020015f151581526020015f151581526020015f73ffffffffffffffffffffffffffffffffffffffff1681526020015f73ffffffffffffffffffffffffffffffffffffffff1681525090565b6040518060a001604052805f73ffffffffffffffffffffffffffffffffffffffff16815260200160608152602001606081526020015f63ffffffff1681526020015f151581525090565b6040518060a001604052805f73ffffffffffffffffffffffffffffffffffffffff16815260200160608152602001606081526020015f63ffffffff1681526020015f63ffffffff1681525090565b6040518061012001604052805f73ffffffffffffffffffffffffffffffffffffffff16815260200160608152602001606081526020015f81526020015f81526020015f81526020015f81526020015f73ffffffffffffffffffffffffffffffffffffffff1681526020015f151581525090565b5f604051905090565b5f80fd5b5f80fd5b5f819050919050565b6149a18161498f565b81146149ab575f80fd5b50565b5f813590506149bc81614998565b92915050565b5f602082840312156149d7576149d6614987565b5b5f6149e4848285016149ae565b91505092915050565b5f73ffffffffffffffffffffffffffffffffffffffff82169050919050565b5f614a16826149ed565b9050919050565b614a2681614a0c565b82525050565b5f602082019050614a3f5f830184614a1d565b92915050565b614a4e81614a0c565b8114614a58575f80fd5b50565b5f81359050614a6981614a45565b92915050565b5f60208284031215614a8457614a83614987565b5b5f614a9184828501614a5b565b91505092915050565b614aa38161498f565b82525050565b5f602082019050614abc5f830184614a9a565b92915050565b5f81519050919050565b5f82825260208201905092915050565b8281835e5f83830152505050565b5f601f19601f8301169050919050565b5f614b0482614ac2565b614b0e8185614acc565b9350614b1e818560208601614adc565b614b2781614aea565b840191505092915050565b5f8115159050919050565b614b4681614b32565b82525050565b5f61016082019050614b605f83018e614a1d565b8181036020830152614b72818d614afa565b9050614b81604083018c614a9a565b614b8e606083018b614a9a565b614b9b608083018a614a9a565b614ba860a0830189614a9a565b614bb560c0830188614a9a565b614bc260e0830187614b3d565b614bd0610100830186614a1d565b614bde610120830185614a1d565b614bec610140830184614b3d565b9c9b505050505050505050505050565b5f61016082019050614c105f83018e614a1d565b614c1d602083018d614a1d565b8181036040830152614c2f818c614afa565b9050614c3e606083018b614a9a565b614c4b608083018a614a9a565b614c5860a0830189614a9a565b614c6560c0830188614a9a565b614c7260e0830187614a9a565b614c80610100830186614a1d565b614c8e610120830185614a9a565b614c9c610140830184614b3d565b9c9b505050505050505050505050565b614cb581614b32565b8114614cbf575f80fd5b50565b5f81359050614cd081614cac565b92915050565b5f805f805f805f805f6101208a8c031215614cf457614cf3614987565b5b5f614d018c828d01614a5b565b9950506020614d128c828d016149ae565b9850506040614d238c828d016149ae565b9750506060614d348c828d016149ae565b9650506080614d458c828d016149ae565b95505060a0614d568c828d016149ae565b94505060c0614d678c828d016149ae565b93505060e0614d788c828d016149ae565b925050610100614d8a8c828d01614cc2565b9150509295985092959850929598565b5f63ffffffff82169050919050565b614db281614d9a565b82525050565b5f60a082019050614dcb5f830188614a1d565b8181036020830152614ddd8187614afa565b90508181036040830152614df18186614afa565b9050614e006060830185614da9565b614e0d6080830184614b3d565b9695505050505050565b5f61016082019050614e2b5f83018e614a1d565b8181036020830152614e3d818d614afa565b9050614e4c604083018c614a9a565b614e59606083018b614a9a565b614e66608083018a614a9a565b614e7360a0830189614a9a565b614e8060c0830188614a9a565b614e8d60e0830187614b3d565b614e9b610100830186614b3d565b614ea9610120830185614a1d565b614eb7610140830184614a1d565b9c9b505050505050505050505050565b614ed08161498f565b82525050565b614edf81614b32565b82525050565b60c082015f820151614ef95f850182614ec7565b506020820151614f0c6020850182614ec7565b506040820151614f1f6040850182614ec7565b506060820151614f326060850182614ec7565b506080820151614f456080850182614ec7565b5060a0820151614f5860a0850182614ed6565b50505050565b61014082015f820151614f735f850182614ec7565b506020820151614f866020850182614ec7565b506040820151614f996040850182614ec7565b506060820151614fac6060850182614ec7565b506080820151614fbf6080850182614ed6565b5060a0820151614fd260a0850182614ed6565b5060c0820151614fe560c0850182614ed6565b5060e0820151614ff860e0850182614ed6565b5061010082015161500d610100850182614ed6565b50610120820151615022610120850182614ed6565b50505050565b5f82825260208201905092915050565b5f61504282614ac2565b61504c8185615028565b935061505c818560208601614adc565b61506581614aea565b840191505092915050565b61507981614a0c565b82525050565b5f60e083015f8301518482035f8601526150998282615038565b915050602083015184820360208601526150b38282615038565b91505060408301516150c86040860182614ec7565b5060608301516150db6060860182614ec7565b5060808301516150ee6080860182614ed6565b5060a083015161510160a0860182614ed6565b5060c083015161511460c0860182615070565b508091505092915050565b5f610220820190506151335f830186614ee5565b61514060c0830185614f5e565b818103610200830152615153818461507f565b9050949350505050565b5f61016083015f8301516151735f860182615070565b506020830151848203602086015261518b8282615038565b91505060408301516151a06040860182614ec7565b5060608301516151b36060860182614ec7565b5060808301516151c66080860182614ec7565b5060a08301516151d960a0860182614ec7565b5060c08301516151ec60c0860182614ec7565b5060e08301516151ff60e0860182614ed6565b50610100830151615214610100860182614ed6565b50610120830151615229610120860182615070565b5061014083015161523e610140860182615070565b508091505092915050565b61525281614d9a565b82525050565b5f60a083015f83015161526d5f860182615070565b50602083015184820360208601526152858282615038565b9150506040830151848203604086015261529f8282615038565b91505060608301516152b46060860182615249565b5060808301516152c76080860182614ed6565b508091505092915050565b5f60a083015f8301516152e75f860182615070565b50602083015184820360208601526152ff8282615038565b915050604083015184820360408601526153198282615038565b915050606083015161532e6060860182615249565b5060808301516153416080860182615249565b508091505092915050565b5f61012083015f8301516153625f860182615070565b506020830151848203602086015261537a8282615038565b915050604083015184820360408601526153948282615038565b91505060608301516153a96060860182614ec7565b5060808301516153bc6080860182614ec7565b5060a08301516153cf60a0860182614ec7565b5060c08301516153e260c0860182614ec7565b5060e08301516153f560e0860182615070565b5061010083015161540a610100860182614ed6565b508091505092915050565b5f6080820190508181035f83015261542d818761515d565b905081810360208301526154418186615258565b9050818103604083015261545581856152d2565b90508181036060830152615469818461534c565b905095945050505050565b5f6020820190506154875f830184614b3d565b92915050565b5f80fd5b5f80fd5b7f4e487b71000000000000000000000000000000000000000000000000000000005f52604160045260245ffd5b6154cb82614aea565b810181811067ffffffffffffffff821117156154ea576154e9615495565b5b80604052505050565b5f6154fc61497e565b905061550882826154c2565b919050565b5f67ffffffffffffffff82111561552757615526615495565b5b61553082614aea565b9050602081019050919050565b828183375f83830152505050565b5f61555d6155588461550d565b6154f3565b90508281526020810184848401111561557957615578615491565b5b61558484828561553d565b509392505050565b5f82601f8301126155a05761559f61548d565b5b81356155b084826020860161554b565b91505092915050565b5f805f805f805f80610100898b0312156155d6576155d5614987565b5b5f89013567ffffffffffffffff8111156155f3576155f261498b565b5b6155ff8b828c0161558c565b98505060206156108b828c016149ae565b97505060406156218b828c016149ae565b96505060606156328b828c016149ae565b95505060806156438b828c01614cc2565b94505060a06156548b828c01614a5b565b93505060c06156658b828c01614cc2565b92505060e06156768b828c016149ae565b9150509295985092959890939650565b5f6040820190506156995f830185614a9a565b6156a66020830184614a9a565b9392505050565b5f805f805f805f805f6101208a8c0312156156cb576156ca614987565b5b5f6156d88c828d01614a5b565b99505060206156e98c828d01614a5b565b98505060408a013567ffffffffffffffff81111561570a5761570961498b565b5b6157168c828d0161558c565b97505060608a013567ffffffffffffffff8111156157375761573661498b565b5b6157438c828d0161558c565b96505060806157548c828d016149ae565b95505060a06157658c828d016149ae565b94505060c06157768c828d016149ae565b93505060e06157878c828d016149ae565b9250506101006157998c828d01614cc2565b9150509295985092959850929598565b5f610120820190506157bd5f83018c614a1d565b81810360208301526157cf818b614afa565b905081810360408301526157e3818a614afa565b90506157f26060830189614a9a565b6157ff6080830188614a9a565b61580c60a0830187614a9a565b61581960c0830186614a9a565b61582660e0830185614a1d565b615834610100830184614b3d565b9a9950505050505050505050565b5f80fd5b5f80fd5b5f8083601f84011261585f5761585e61548d565b5b8235905067ffffffffffffffff81111561587c5761587b615842565b5b60208301915083600182028301111561589857615897615846565b5b9250929050565b6158a881614d9a565b81146158b2575f80fd5b50565b5f813590506158c38161589f565b92915050565b5f805f805f805f60a0888a0312156158e4576158e3614987565b5b5f6158f18a828b01614a5b565b975050602088013567ffffffffffffffff8111156159125761591161498b565b5b61591e8a828b0161584a565b9650965050604088013567ffffffffffffffff8111156159415761594061498b565b5b61594d8a828b0161584a565b945094505060606159608a828b016158b5565b92505060806159718a828b01614cc2565b91505092959891949750929550565b5f60a0820190506159935f830188614a1d565b81810360208301526159a58187614afa565b905081810360408301526159b98186614afa565b90506159c86060830185614da9565b6159d56080830184614da9565b9695505050505050565b5f80604083850312156159f5576159f4614987565b5b5f615a0285828601614a5b565b9250506020615a13858286016149ae565b9150509250929050565b5f67ffffffffffffffff821115615a3757615a36615495565b5b602082029050602081019050919050565b5f615a5a615a5584615a1d565b6154f3565b90508083825260208201905060208402830185811115615a7d57615a7c615846565b5b835b81811015615aa65780615a9288826149ae565b845260208401935050602081019050615a7f565b5050509392505050565b5f82601f830112615ac457615ac361548d565b5b8135615ad4848260208601615a48565b91505092915050565b5f805f805f805f60e0888a031215615af857615af7614987565b5b5f615b058a828b016149ae565b9750506020615b168a828b016149ae565b965050604088013567ffffffffffffffff811115615b3757615b3661498b565b5b615b438a828b01615ab0565b955050606088013567ffffffffffffffff811115615b6457615b6361498b565b5b615b708a828b0161558c565b945050608088013567ffffffffffffffff811115615b9157615b9061498b565b5b615b9d8a828b0161558c565b93505060a0615bae8a828b016149ae565b92505060c0615bbf8a828b01614cc2565b91505092959891949750929550565b5f60c082019050615be15f830189614a9a565b615bee6020830188614a9a565b615bfb6040830187614a9a565b615c086060830186614a9a565b615c156080830185614a9a565b615c2260a0830184614b3d565b979650505050505050565b5f805f805f805f805f805f6101608c8e031215615c4d57615c4c614987565b5b5f615c5a8e828f01614a5b565b9b505060208c013567ffffffffffffffff811115615c7b57615c7a61498b565b5b615c878e828f0161558c565b9a50506040615c988e828f016149ae565b9950506060615ca98e828f016149ae565b9850506080615cba8e828f016149ae565b97505060a0615ccb8e828f016149ae565b96505060c0615cdc8e828f016149ae565b95505060e0615ced8e828f01614cc2565b945050610100615cff8e828f01614a5b565b935050610120615d118e828f01614a5b565b925050610140615d238e828f01614cc2565b9150509295989b509295989b9093969950565b5f805f805f805f805f805f6101608c8e031215615d5657615d55614987565b5b5f615d638e828f01614a5b565b9b50506020615d748e828f01614a5b565b9a505060408c013567ffffffffffffffff811115615d9557615d9461498b565b5b615da18e828f0161558c565b9950506060615db28e828f016149ae565b9850506080615dc38e828f016149ae565b97505060a0615dd48e828f016149ae565b96505060c0615de58e828f016149ae565b95505060e0615df68e828f016149ae565b945050610100615e088e828f01614a5b565b935050610120615e1a8e828f016158b5565b925050610140615e2c8e828f01614cc2565b9150509295989b509295989b9093969950565b5f805f805f60a08688031215615e5857615e57614987565b5b5f615e6588828901614a5b565b955050602086013567ffffffffffffffff811115615e8657615e8561498b565b5b615e928882890161558c565b945050604086013567ffffffffffffffff811115615eb357615eb261498b565b5b615ebf8882890161558c565b9350506060615ed0888289016158b5565b9250506080615ee1888289016158b5565b9150509295509295909350565b5f615ef8826149ed565b9050919050565b615f0881615eee565b8114615f12575f80fd5b50565b5f81359050615f2381615eff565b92915050565b5f805f805f805f805f806101408b8d031215615f4857615f47614987565b5b5f615f558d828e01615f15565b9a50506020615f668d828e016149ae565b9950506040615f778d828e016149ae565b9850506060615f888d828e016149ae565b9750506080615f998d828e016149ae565b96505060a0615faa8d828e01614cc2565b95505060c0615fbb8d828e01614cc2565b94505060e0615fcc8d828e01614cc2565b935050610100615fde8d828e01614cc2565b925050610120615ff08d828e01614cc2565b9150509295989b9194979a5092959850565b7f4e487b71000000000000000000000000000000000000000000000000000000005f52602260045260245ffd5b5f600282049050600182168061604657607f821691505b60208210810361605957616058616002565b5b50919050565b7f4f6e6c79205468652051414c616220417574686f6972697a656420697320746f5f8201527f20616464207468697320456e7472790000000000000000000000000000000000602082015250565b5f6160b9602f83614acc565b91506160c48261605f565b604082019050919050565b5f6020820190508181035f8301526160e6816160ad565b9050919050565b5f819050919050565b6161076161028261498f565b6160ed565b82525050565b5f61611882846160f6565b60208201915081905092915050565b7f4461746120456e746572656420646f6573206e6f74204d6174636800000000005f82015250565b5f61615b601b83614acc565b915061616682616127565b602082019050919050565b5f6020820190508181035f8301526161888161614f565b9050919050565b7f4c6162746573742064657461696c7320616c7265616479206d6f6469666965645f82015250565b5f6161c3602083614acc565b91506161ce8261618f565b602082019050919050565b5f6020820190508181035f8301526161f0816161b7565b9050919050565b7f4f6e6c79207468652053797374656d2041646d696e20697320417574686f72695f8201527f7a656420466f72205468697320416374696f6e00000000000000000000000000602082015250565b5f616251603383614acc565b915061625c826161f7565b604082019050919050565b5f6020820190508181035f83015261627e81616245565b9050919050565b7f4e487b71000000000000000000000000000000000000000000000000000000005f52601160045260245ffd5b5f8160011c9050919050565b5f808291508390505b6001851115616307578086048111156162e3576162e2616285565b5b60018516156162f25780820291505b8081029050616300856162b2565b94506162c7565b94509492505050565b5f8261631f57600190506163da565b8161632c575f90506163da565b8160018114616342576002811461634c5761637b565b60019150506163da565b60ff84111561635e5761635d616285565b5b8360020a91508482111561637557616374616285565b5b506163da565b5060208310610133831016604e8410600b84101617156163b05782820a9050838111156163ab576163aa616285565b5b6163da565b6163bd84848460016162be565b925090508184048111156163d4576163d3616285565b5b81810290505b9392505050565b5f6163eb8261498f565b91506163f68361498f565b92506164237fffffffffffffffffffffffffffffffffffffffffffffffffffffffffffffffff8484616310565b905092915050565b5f6164358261498f565b91507fffffffffffffffffffffffffffffffffffffffffffffffffffffffffffffffff820361646757616466616285565b5b600182019050919050565b7f4f6e6c7920417574686f72697a65642f50726f647563740000000000000000005f82015250565b5f6164a6601783614acc565b91506164b182616472565b602082019050919050565b5f6020820190508181035f8301526164d38161649a565b9050919050565b7f596f7572204661726d657220566572696669636174696f6e20737461747573205f8201527f686173206265656e207265766f6b65642c20636f6e746163742041646d696e00602082015250565b5f616534603f83614acc565b915061653f826164da565b604082019050919050565b5f6020820190508181035f83015261656181616528565b9050919050565b5f819050815f5260205f209050919050565b5f6020601f8301049050919050565b5f82821b905092915050565b5f600883026165c47fffffffffffffffffffffffffffffffffffffffffffffffffffffffffffffffff82616589565b6165ce8683616589565b95508019841693508086168417925050509392505050565b5f819050919050565b5f6166096166046165ff8461498f565b6165e6565b61498f565b9050919050565b5f819050919050565b616622836165ef565b61663661662e82616610565b848454616595565b825550505050565b5f90565b61664a61663e565b616655818484616619565b505050565b5b818110156166785761666d5f82616642565b60018101905061665b565b5050565b601f8211156166bd5761668e81616568565b6166978461657a565b810160208510156166a6578190505b6166ba6166b28561657a565b83018261665a565b50505b505050565b5f82821c905092915050565b5f6166dd5f19846008026166c2565b1980831691505092915050565b5f6166f583836166ce565b9150826002028217905092915050565b61670e82614ac2565b67ffffffffffffffff81111561672757616726615495565b5b616731825461602f565b61673c82828561667c565b5f60209050601f83116001811461676d575f841561675b578287015190505b61676585826166ea565b8655506167cc565b601f19841661677b86616568565b5f5b828110156167a25784890151825560018201915060208501945060208101905061677d565b868310156167bf57848901516167bb601f8916826166ce565b8355505b6001600288020188555050505b505050505050565b7f596f7520617265206e6f742072656769737465726564206173206120536872695f8201527f6d70506c616e7400000000000000000000000000000000000000000000000000602082015250565b5f61682e602783614acc565b9150616839826167d4565b604082019050919050565b5f6020820190508181035f83015261685b81616822565b9050919050565b7f596f7572205065726d697373696f6e20486173204265656e205265766f6b65645f8201527f2000000000000000000000000000000000000000000000000000000000000000602082015250565b5f6168bc602183614acc565b91506168c782616862565b604082019050919050565b5f6020820190508181035f8301526168e9816168b0565b9050919050565b7f546865204653534149204c6963656e73652056616c69646974792068617320655f8201527f7870697265642c20706c6561736520636f6e746163742041646d696e00000000602082015250565b5f61694a603c83614acc565b9150616955826168f0565b604082019050919050565b5f6020820190508181035f8301526169778161693e565b9050919050565b7f4e487b71000000000000000000000000000000000000000000000000000000005f52603260045260245ffd5b7f546865206261746368206973204e6f74206f66207361746973666163746f72795f8201527f207175616c697479000000000000000000000000000000000000000000000000602082015250565b5f616a05602883614acc565b9150616a10826169ab565b604082019050919050565b5f6020820190508181035f830152616a32816169f9565b9050919050565b7f5468652050726f6365737320506172616d6574657273206861766520616c72655f8201527f616479206265656e206d6f64696669656420666f7220736f6d65205152000000602082015250565b5f616a93603d83614acc565b9150616a9e82616a39565b604082019050919050565b5f6020820190508181035f830152616ac081616a87565b9050919050565b7f596f7572207065726d697373696f6e2073746174757320686173206265656e205f8201527f7265766f6b656400000000000000000000000000000000000000000000000000602082015250565b5f616b21602783614acc565b9150616b2c82616ac7565b604082019050919050565b5f6020820190508181035f830152616b4e81616b15565b9050919050565b5f8160601b9050919050565b5f616b6b82616b55565b9050919050565b5f616b7c82616b61565b9050919050565b616b94616b8f82615eee565b616b72565b82525050565b5f616ba58284616b83565b60148201915081905092915050565b7f456e7465726564204461746120446f6573204e6f74204d6174636800000000005f82015250565b5f616be8601b83614acc565b9150616bf382616bb4565b602082019050919050565b5f6020820190508181035f830152616c1581616bdc565b9050919050565b7f4e41424c204c6963656e73652056616c69646974792045787069726564212c205f8201527f706c6561736520636f6e746163742041646d696e000000000000000000000000602082015250565b5f616c76603483614acc565b9150616c8182616c1c565b604082019050919050565b5f6020820190508181035f830152616ca381616c6a565b9050919050565b7f54686520626174636820446f6573204e6f74204d65657420746865204e6563655f8201527f7373617279205374616e64617264732100000000000000000000000000000000602082015250565b5f616d04603083614acc565b9150616d0f82616caa565b604082019050919050565b5f6020820190508181035f830152616d3181616cf8565b9050919050565b7f54686520536872696d70514120646174612068617320616c72656164792062655f8201527f656e206d6f64696669656420666f722074686520626174636821000000000000602082015250565b5f616d92603a83614acc565b9150616d9d82616d38565b604082019050919050565b5f6020820190508181035f830152616dbf81616d86565b9050919050565b5f616dd082616b61565b9050919050565b616de8616de382614a0c565b616dc6565b82525050565b5f616df982866160f6565b602082019150616e098285616dd7565b601482019150616e198284616dd7565b601482019150819050949350505050565b7f4e487b71000000000000000000000000000000000000000000000000000000005f52601260045260245ffd5b5f616e618261498f565b9150616e6c8361498f565b925082616e7c57616e7b616e2a565b5b82820690509291505056fea2646970667358221220d1981ba6f97c6fd794f17d5df1d229619056de447eba993a172c3679f43a68e664736f6c634300081a0033",
			"opcodes": "PUSH1 0x80 PUSH1 0x40 MSTORE PUSH1 0x1 PUSH0 SSTORE PUSH1 0x1 DUP1 SSTORE PUSH1 0x1 PUSH1 0x2 SSTORE PUSH1 0x1 PUSH1 0x3 SSTORE PUSH1 0x1 PUSH1 0x4 SSTORE CALLVALUE DUP1 ISZERO PUSH1 0x25 JUMPI PUSH0 DUP1 REVERT JUMPDEST POP CALLER PUSH1 0x12 PUSH0 PUSH2 0x100 EXP DUP2 SLOAD DUP2 PUSH20 0xFFFFFFFFFFFFFFFFFFFFFFFFFFFFFFFFFFFFFFFF MUL NOT AND SWAP1 DUP4 PUSH20 0xFFFFFFFFFFFFFFFFFFFFFFFFFFFFFFFFFFFFFFFF AND MUL OR SWAP1 SSTORE POP PUSH2 0x6EBD DUP1 PUSH2 0x73 PUSH0 CODECOPY PUSH0 RETURN INVALID PUSH1 0x80 PUSH1 0x40 MSTORE PUSH1 0x4 CALLDATASIZE LT PUSH2 0x203 JUMPI PUSH0 CALLDATALOAD PUSH1 0xE0 SHR DUP1 PUSH4 0x9959F11E GT PUSH2 0x117 JUMPI DUP1 PUSH4 0xC2F7A47B GT PUSH2 0x9F JUMPI DUP1 PUSH4 0xCD856520 GT PUSH2 0x6E JUMPI DUP1 PUSH4 0xCD856520 EQ PUSH2 0x874 JUMPI DUP1 PUSH4 0xCFE352DA EQ PUSH2 0x89C JUMPI DUP1 PUSH4 0xF851A440 EQ PUSH2 0x8C4 JUMPI DUP1 PUSH4 0xF8CF8293 EQ PUSH2 0x8EE JUMPI DUP1 PUSH4 0xFA60631F EQ PUSH2 0x90A JUMPI PUSH2 0x203 JUMP JUMPDEST DUP1 PUSH4 0xC2F7A47B EQ PUSH2 0x793 JUMPI DUP1 PUSH4 0xC4CFCCD5 EQ PUSH2 0x7D4 JUMPI DUP1 PUSH4 0xC5671324 EQ PUSH2 0x810 JUMPI DUP1 PUSH4 0xC8FD31DF EQ PUSH2 0x84C JUMPI PUSH2 0x203 JUMP JUMPDEST DUP1 PUSH4 0xBA989EB2 GT PUSH2 0xE6 JUMPI DUP1 PUSH4 0xBA989EB2 EQ PUSH2 0x67F JUMPI DUP1 PUSH4 0xBBDE9D85 EQ PUSH2 0x6BB JUMPI DUP1 PUSH4 0xBC018B8A EQ PUSH2 0x6FB JUMPI DUP1 PUSH4 0xBFD2AFAB EQ PUSH2 0x725 JUMPI DUP1 PUSH4 0xC2B44276 EQ PUSH2 0x76B JUMPI PUSH2 0x203 JUMP JUMPDEST DUP1 PUSH4 0x9959F11E EQ PUSH2 0x5BF JUMPI DUP1 PUSH4 0x9CB76C6E EQ PUSH2 0x603 JUMPI DUP1 PUSH4 0xA10AB95F EQ PUSH2 0x62D JUMPI DUP1 PUSH4 0xABB22237 EQ PUSH2 0x655 JUMPI PUSH2 0x203 JUMP JUMPDEST DUP1 PUSH4 0x3BED7621 GT PUSH2 0x19A JUMPI DUP1 PUSH4 0x764DEDB3 GT PUSH2 0x169 JUMPI DUP1 PUSH4 0x764DEDB3 EQ PUSH2 0x4B8 JUMPI DUP1 PUSH4 0x76E1C22D EQ PUSH2 0x4F4 JUMPI DUP1 PUSH4 0x7A7E53E0 EQ PUSH2 0x531 JUMPI DUP1 PUSH4 0x953D01CE EQ PUSH2 0x559 JUMPI DUP1 PUSH4 0x96418C98 EQ PUSH2 0x583 JUMPI PUSH2 0x203 JUMP JUMPDEST DUP1 PUSH4 0x3BED7621 EQ PUSH2 0x3D7 JUMPI DUP1 PUSH4 0x57ACEE6E EQ PUSH2 0x3FF JUMPI DUP1 PUSH4 0x68F4F7FF EQ PUSH2 0x43D JUMPI DUP1 PUSH4 0x6F997E59 EQ PUSH2 0x479 JUMPI PUSH2 0x203 JUMP JUMPDEST DUP1 PUSH4 0x1724031E GT PUSH2 0x1D6 JUMPI DUP1 PUSH4 0x1724031E EQ PUSH2 0x30B JUMPI DUP1 PUSH4 0x1C2622AF EQ PUSH2 0x327 JUMPI DUP1 PUSH4 0x205BEA44 EQ PUSH2 0x351 JUMPI DUP1 PUSH4 0x28A6E1E7 EQ PUSH2 0x391 JUMPI PUSH2 0x203 JUMP JUMPDEST DUP1 PUSH4 0x51DCC92 EQ PUSH2 0x207 JUMPI DUP1 PUSH4 0x62C0DEC EQ PUSH2 0x243 JUMPI DUP1 PUSH4 0x8385F86 EQ PUSH2 0x27F JUMPI DUP1 PUSH4 0x1264B3B8 EQ PUSH2 0x2C5 JUMPI JUMPDEST PUSH0 DUP1 REVERT JUMPDEST CALLVALUE DUP1 ISZERO PUSH2 0x212 JUMPI PUSH0 DUP1 REVERT JUMPDEST POP PUSH2 0x22D PUSH1 0x4 DUP1 CALLDATASIZE SUB DUP2 ADD SWAP1 PUSH2 0x228 SWAP2 SWAP1 PUSH2 0x49C2 JUMP JUMPDEST PUSH2 0x934 JUMP JUMPDEST PUSH1 0x40 MLOAD PUSH2 0x23A SWAP2 SWAP1 PUSH2 0x4A2C JUMP JUMPDEST PUSH1 0x40 MLOAD DUP1 SWAP2 SUB SWAP1 RETURN JUMPDEST CALLVALUE DUP1 ISZERO PUSH2 0x24E JUMPI PUSH0 DUP1 REVERT JUMPDEST POP PUSH2 0x269 PUSH1 0x4 DUP1 CALLDATASIZE SUB DUP2 ADD SWAP1 PUSH2 0x264 SWAP2 SWAP1 PUSH2 0x4A6F JUMP JUMPDEST PUSH2 0x964 JUMP JUMPDEST PUSH1 0x40 MLOAD PUSH2 0x276 SWAP2 SWAP1 PUSH2 0x4AA9 JUMP JUMPDEST PUSH1 0x40 MLOAD DUP1 SWAP2 SUB SWAP1 RETURN JUMPDEST CALLVALUE DUP1 ISZERO PUSH2 0x28A JUMPI PUSH0 DUP1 REVERT JUMPDEST POP PUSH2 0x2A5 PUSH1 0x4 DUP1 CALLDATASIZE SUB DUP2 ADD SWAP1 PUSH2 0x2A0 SWAP2 SWAP1 PUSH2 0x4A6F JUMP JUMPDEST PUSH2 0x979 JUMP JUMPDEST PUSH1 0x40 MLOAD PUSH2 0x2BC SWAP12 SWAP11 SWAP10 SWAP9 SWAP8 SWAP7 SWAP6 SWAP5 SWAP4 SWAP3 SWAP2 SWAP1 PUSH2 0x4B4C JUMP JUMPDEST PUSH1 0x40 MLOAD DUP1 SWAP2 SUB SWAP1 RETURN JUMPDEST CALLVALUE DUP1 ISZERO PUSH2 0x2D0 JUMPI PUSH0 DUP1 REVERT JUMPDEST POP PUSH2 0x2EB PUSH1 0x4 DUP1 CALLDATASIZE SUB DUP2 ADD SWAP1 PUSH2 0x2E6 SWAP2 SWAP1 PUSH2 0x4A6F JUMP JUMPDEST PUSH2 0xACC JUMP JUMPDEST PUSH1 0x40 MLOAD PUSH2 0x302 SWAP12 SWAP11 SWAP10 SWAP9 SWAP8 SWAP7 SWAP6 SWAP5 SWAP4 SWAP3 SWAP2 SWAP1 PUSH2 0x4BFC JUMP JUMPDEST PUSH1 0x40 MLOAD DUP1 SWAP2 SUB SWAP1 RETURN JUMPDEST PUSH2 0x325 PUSH1 0x4 DUP1 CALLDATASIZE SUB DUP2 ADD SWAP1 PUSH2 0x320 SWAP2 SWAP1 PUSH2 0x4CD6 JUMP JUMPDEST PUSH2 0xC11 JUMP JUMPDEST STOP JUMPDEST CALLVALUE DUP1 ISZERO PUSH2 0x332 JUMPI PUSH0 DUP1 REVERT JUMPDEST POP PUSH2 0x33B PUSH2 0x1185 JUMP JUMPDEST PUSH1 0x40 MLOAD PUSH2 0x348 SWAP2 SWAP1 PUSH2 0x4AA9 JUMP JUMPDEST PUSH1 0x40 MLOAD DUP1 SWAP2 SUB SWAP1 RETURN JUMPDEST CALLVALUE DUP1 ISZERO PUSH2 0x35C JUMPI PUSH0 DUP1 REVERT JUMPDEST POP PUSH2 0x377 PUSH1 0x4 DUP1 CALLDATASIZE SUB DUP2 ADD SWAP1 PUSH2 0x372 SWAP2 SWAP1 PUSH2 0x4A6F JUMP JUMPDEST PUSH2 0x118B JUMP JUMPDEST PUSH1 0x40 MLOAD PUSH2 0x388 SWAP6 SWAP5 SWAP4 SWAP3 SWAP2 SWAP1 PUSH2 0x4DB8 JUMP JUMPDEST PUSH1 0x40 MLOAD DUP1 SWAP2 SUB SWAP1 RETURN JUMPDEST CALLVALUE DUP1 ISZERO PUSH2 0x39C JUMPI PUSH0 DUP1 REVERT JUMPDEST POP PUSH2 0x3B7 PUSH1 0x4 DUP1 CALLDATASIZE SUB DUP2 ADD SWAP1 PUSH2 0x3B2 SWAP2 SWAP1 PUSH2 0x49C2 JUMP JUMPDEST PUSH2 0x1304 JUMP JUMPDEST PUSH1 0x40 MLOAD PUSH2 0x3CE SWAP12 SWAP11 SWAP10 SWAP9 SWAP8 SWAP7 SWAP6 SWAP5 SWAP4 SWAP3 SWAP2 SWAP1 PUSH2 0x4E17 JUMP JUMPDEST PUSH1 0x40 MLOAD DUP1 SWAP2 SUB SWAP1 RETURN JUMPDEST CALLVALUE DUP1 ISZERO PUSH2 0x3E2 JUMPI PUSH0 DUP1 REVERT JUMPDEST POP PUSH2 0x3FD PUSH1 0x4 DUP1 CALLDATASIZE SUB DUP2 ADD SWAP1 PUSH2 0x3F8 SWAP2 SWAP1 PUSH2 0x49C2 JUMP JUMPDEST PUSH2 0x1457 JUMP JUMPDEST STOP JUMPDEST CALLVALUE DUP1 ISZERO PUSH2 0x40A JUMPI PUSH0 DUP1 REVERT JUMPDEST POP PUSH2 0x425 PUSH1 0x4 DUP1 CALLDATASIZE SUB DUP2 ADD SWAP1 PUSH2 0x420 SWAP2 SWAP1 PUSH2 0x49C2 JUMP JUMPDEST PUSH2 0x1505 JUMP JUMPDEST PUSH1 0x40 MLOAD PUSH2 0x434 SWAP4 SWAP3 SWAP2 SWAP1 PUSH2 0x511F JUMP JUMPDEST PUSH1 0x40 MLOAD DUP1 SWAP2 SUB SWAP1 RETURN JUMPDEST CALLVALUE DUP1 ISZERO PUSH2 0x448 JUMPI PUSH0 DUP1 REVERT JUMPDEST POP PUSH2 0x463 PUSH1 0x4 DUP1 CALLDATASIZE SUB DUP2 ADD SWAP1 PUSH2 0x45E SWAP2 SWAP1 PUSH2 0x49C2 JUMP JUMPDEST PUSH2 0x1859 JUMP JUMPDEST PUSH1 0x40 MLOAD PUSH2 0x470 SWAP2 SWAP1 PUSH2 0x4A2C JUMP JUMPDEST PUSH1 0x40 MLOAD DUP1 SWAP2 SUB SWAP1 RETURN JUMPDEST CALLVALUE DUP1 ISZERO PUSH2 0x484 JUMPI PUSH0 DUP1 REVERT JUMPDEST POP PUSH2 0x49F PUSH1 0x4 DUP1 CALLDATASIZE SUB DUP2 ADD SWAP1 PUSH2 0x49A SWAP2 SWAP1 PUSH2 0x49C2 JUMP JUMPDEST PUSH2 0x1889 JUMP JUMPDEST PUSH1 0x40 MLOAD PUSH2 0x4AF SWAP5 SWAP4 SWAP3 SWAP2 SWAP1 PUSH2 0x5415 JUMP JUMPDEST PUSH1 0x40 MLOAD DUP1 SWAP2 SUB SWAP1 RETURN JUMPDEST CALLVALUE DUP1 ISZERO PUSH2 0x4C3 JUMPI PUSH0 DUP1 REVERT JUMPDEST POP PUSH2 0x4DE PUSH1 0x4 DUP1 CALLDATASIZE SUB DUP2 ADD SWAP1 PUSH2 0x4D9 SWAP2 SWAP1 PUSH2 0x4A6F JUMP JUMPDEST PUSH2 0x21CA JUMP JUMPDEST PUSH1 0x40 MLOAD PUSH2 0x4EB SWAP2 SWAP1 PUSH2 0x5474 JUMP JUMPDEST PUSH1 0x40 MLOAD DUP1 SWAP2 SUB SWAP1 RETURN JUMPDEST CALLVALUE DUP1 ISZERO PUSH2 0x4FF JUMPI PUSH0 DUP1 REVERT JUMPDEST POP PUSH2 0x51A PUSH1 0x4 DUP1 CALLDATASIZE SUB DUP2 ADD SWAP1 PUSH2 0x515 SWAP2 SWAP1 PUSH2 0x55B9 JUMP JUMPDEST PUSH2 0x229E JUMP JUMPDEST PUSH1 0x40 MLOAD PUSH2 0x528 SWAP3 SWAP2 SWAP1 PUSH2 0x5686 JUMP JUMPDEST PUSH1 0x40 MLOAD DUP1 SWAP2 SUB SWAP1 RETURN JUMPDEST CALLVALUE DUP1 ISZERO PUSH2 0x53C JUMPI PUSH0 DUP1 REVERT JUMPDEST POP PUSH2 0x557 PUSH1 0x4 DUP1 CALLDATASIZE SUB DUP2 ADD SWAP1 PUSH2 0x552 SWAP2 SWAP1 PUSH2 0x56AD JUMP JUMPDEST PUSH2 0x29B4 JUMP JUMPDEST STOP JUMPDEST CALLVALUE DUP1 ISZERO PUSH2 0x564 JUMPI PUSH0 DUP1 REVERT JUMPDEST POP PUSH2 0x56D PUSH2 0x2C63 JUMP JUMPDEST PUSH1 0x40 MLOAD PUSH2 0x57A SWAP2 SWAP1 PUSH2 0x4AA9 JUMP JUMPDEST PUSH1 0x40 MLOAD DUP1 SWAP2 SUB SWAP1 RETURN JUMPDEST CALLVALUE DUP1 ISZERO PUSH2 0x58E JUMPI PUSH0 DUP1 REVERT JUMPDEST POP PUSH2 0x5A9 PUSH1 0x4 DUP1 CALLDATASIZE SUB DUP2 ADD SWAP1 PUSH2 0x5A4 SWAP2 SWAP1 PUSH2 0x49C2 JUMP JUMPDEST PUSH2 0x2C69 JUMP JUMPDEST PUSH1 0x40 MLOAD PUSH2 0x5B6 SWAP2 SWAP1 PUSH2 0x4A2C JUMP JUMPDEST PUSH1 0x40 MLOAD DUP1 SWAP2 SUB SWAP1 RETURN JUMPDEST CALLVALUE DUP1 ISZERO PUSH2 0x5CA JUMPI PUSH0 DUP1 REVERT JUMPDEST POP PUSH2 0x5E5 PUSH1 0x4 DUP1 CALLDATASIZE SUB DUP2 ADD SWAP1 PUSH2 0x5E0 SWAP2 SWAP1 PUSH2 0x4A6F JUMP JUMPDEST PUSH2 0x2C99 JUMP JUMPDEST PUSH1 0x40 MLOAD PUSH2 0x5FA SWAP10 SWAP9 SWAP8 SWAP7 SWAP6 SWAP5 SWAP4 SWAP3 SWAP2 SWAP1 PUSH2 0x57A9 JUMP JUMPDEST PUSH1 0x40 MLOAD DUP1 SWAP2 SUB SWAP1 RETURN JUMPDEST CALLVALUE DUP1 ISZERO PUSH2 0x60E JUMPI PUSH0 DUP1 REVERT JUMPDEST POP PUSH2 0x617 PUSH2 0x2E3A JUMP JUMPDEST PUSH1 0x40 MLOAD PUSH2 0x624 SWAP2 SWAP1 PUSH2 0x4AA9 JUMP JUMPDEST PUSH1 0x40 MLOAD DUP1 SWAP2 SUB SWAP1 RETURN JUMPDEST CALLVALUE DUP1 ISZERO PUSH2 0x638 JUMPI PUSH0 DUP1 REVERT JUMPDEST POP PUSH2 0x653 PUSH1 0x4 DUP1 CALLDATASIZE SUB DUP2 ADD SWAP1 PUSH2 0x64E SWAP2 SWAP1 PUSH2 0x58C9 JUMP JUMPDEST PUSH2 0x2E40 JUMP JUMPDEST STOP JUMPDEST CALLVALUE DUP1 ISZERO PUSH2 0x660 JUMPI PUSH0 DUP1 REVERT JUMPDEST POP PUSH2 0x669 PUSH2 0x30FF JUMP JUMPDEST PUSH1 0x40 MLOAD PUSH2 0x676 SWAP2 SWAP1 PUSH2 0x4AA9 JUMP JUMPDEST PUSH1 0x40 MLOAD DUP1 SWAP2 SUB SWAP1 RETURN JUMPDEST CALLVALUE DUP1 ISZERO PUSH2 0x68A JUMPI PUSH0 DUP1 REVERT JUMPDEST POP PUSH2 0x6A5 PUSH1 0x4 DUP1 CALLDATASIZE SUB DUP2 ADD SWAP1 PUSH2 0x6A0 SWAP2 SWAP1 PUSH2 0x49C2 JUMP JUMPDEST PUSH2 0x3105 JUMP JUMPDEST PUSH1 0x40 MLOAD PUSH2 0x6B2 SWAP2 SWAP1 PUSH2 0x4A2C JUMP JUMPDEST PUSH1 0x40 MLOAD DUP1 SWAP2 SUB SWAP1 RETURN JUMPDEST CALLVALUE DUP1 ISZERO PUSH2 0x6C6 JUMPI PUSH0 DUP1 REVERT JUMPDEST POP PUSH2 0x6E1 PUSH1 0x4 DUP1 CALLDATASIZE SUB DUP2 ADD SWAP1 PUSH2 0x6DC SWAP2 SWAP1 PUSH2 0x4A6F JUMP JUMPDEST PUSH2 0x3135 JUMP JUMPDEST PUSH1 0x40 MLOAD PUSH2 0x6F2 SWAP6 SWAP5 SWAP4 SWAP3 SWAP2 SWAP1 PUSH2 0x5980 JUMP JUMPDEST PUSH1 0x40 MLOAD DUP1 SWAP2 SUB SWAP1 RETURN JUMPDEST CALLVALUE DUP1 ISZERO PUSH2 0x706 JUMPI PUSH0 DUP1 REVERT JUMPDEST POP PUSH2 0x70F PUSH2 0x32B1 JUMP JUMPDEST PUSH1 0x40 MLOAD PUSH2 0x71C SWAP2 SWAP1 PUSH2 0x4AA9 JUMP JUMPDEST PUSH1 0x40 MLOAD DUP1 SWAP2 SUB SWAP1 RETURN JUMPDEST CALLVALUE DUP1 ISZERO PUSH2 0x730 JUMPI PUSH0 DUP1 REVERT JUMPDEST POP PUSH2 0x74B PUSH1 0x4 DUP1 CALLDATASIZE SUB DUP2 ADD SWAP1 PUSH2 0x746 SWAP2 SWAP1 PUSH2 0x59DF JUMP JUMPDEST PUSH2 0x32B6 JUMP JUMPDEST PUSH1 0x40 MLOAD PUSH2 0x762 SWAP12 SWAP11 SWAP10 SWAP9 SWAP8 SWAP7 SWAP6 SWAP5 SWAP4 SWAP3 SWAP2 SWAP1 PUSH2 0x4E17 JUMP JUMPDEST PUSH1 0x40 MLOAD DUP1 SWAP2 SUB SWAP1 RETURN JUMPDEST CALLVALUE DUP1 ISZERO PUSH2 0x776 JUMPI PUSH0 DUP1 REVERT JUMPDEST POP PUSH2 0x791 PUSH1 0x4 DUP1 CALLDATASIZE SUB DUP2 ADD SWAP1 PUSH2 0x78C SWAP2 SWAP1 PUSH2 0x5ADD JUMP JUMPDEST PUSH2 0x3414 JUMP JUMPDEST STOP JUMPDEST CALLVALUE DUP1 ISZERO PUSH2 0x79E JUMPI PUSH0 DUP1 REVERT JUMPDEST POP PUSH2 0x7B9 PUSH1 0x4 DUP1 CALLDATASIZE SUB DUP2 ADD SWAP1 PUSH2 0x7B4 SWAP2 SWAP1 PUSH2 0x49C2 JUMP JUMPDEST PUSH2 0x37DE JUMP JUMPDEST PUSH1 0x40 MLOAD PUSH2 0x7CB SWAP7 SWAP6 SWAP5 SWAP4 SWAP3 SWAP2 SWAP1 PUSH2 0x5BCE JUMP JUMPDEST PUSH1 0x40 MLOAD DUP1 SWAP2 SUB SWAP1 RETURN JUMPDEST CALLVALUE DUP1 ISZERO PUSH2 0x7DF JUMPI PUSH0 DUP1 REVERT JUMPDEST POP PUSH2 0x7FA PUSH1 0x4 DUP1 CALLDATASIZE SUB DUP2 ADD SWAP1 PUSH2 0x7F5 SWAP2 SWAP1 PUSH2 0x49C2 JUMP JUMPDEST PUSH2 0x3822 JUMP JUMPDEST PUSH1 0x40 MLOAD PUSH2 0x807 SWAP2 SWAP1 PUSH2 0x4A2C JUMP JUMPDEST PUSH1 0x40 MLOAD DUP1 SWAP2 SUB SWAP1 RETURN JUMPDEST CALLVALUE DUP1 ISZERO PUSH2 0x81B JUMPI PUSH0 DUP1 REVERT JUMPDEST POP PUSH2 0x836 PUSH1 0x4 DUP1 CALLDATASIZE SUB DUP2 ADD SWAP1 PUSH2 0x831 SWAP2 SWAP1 PUSH2 0x4A6F JUMP JUMPDEST PUSH2 0x3852 JUMP JUMPDEST PUSH1 0x40 MLOAD PUSH2 0x843 SWAP2 SWAP1 PUSH2 0x5474 JUMP JUMPDEST PUSH1 0x40 MLOAD DUP1 SWAP2 SUB SWAP1 RETURN JUMPDEST CALLVALUE DUP1 ISZERO PUSH2 0x857 JUMPI PUSH0 DUP1 REVERT JUMPDEST POP PUSH2 0x872 PUSH1 0x4 DUP1 CALLDATASIZE SUB DUP2 ADD SWAP1 PUSH2 0x86D SWAP2 SWAP1 PUSH2 0x5C2D JUMP JUMPDEST PUSH2 0x3858 JUMP JUMPDEST STOP JUMPDEST CALLVALUE DUP1 ISZERO PUSH2 0x87F JUMPI PUSH0 DUP1 REVERT JUMPDEST POP PUSH2 0x89A PUSH1 0x4 DUP1 CALLDATASIZE SUB DUP2 ADD SWAP1 PUSH2 0x895 SWAP2 SWAP1 PUSH2 0x5D36 JUMP JUMPDEST PUSH2 0x3B89 JUMP JUMPDEST STOP JUMPDEST CALLVALUE DUP1 ISZERO PUSH2 0x8A7 JUMPI PUSH0 DUP1 REVERT JUMPDEST POP PUSH2 0x8C2 PUSH1 0x4 DUP1 CALLDATASIZE SUB DUP2 ADD SWAP1 PUSH2 0x8BD SWAP2 SWAP1 PUSH2 0x5E3F JUMP JUMPDEST PUSH2 0x3EA7 JUMP JUMPDEST STOP JUMPDEST CALLVALUE DUP1 ISZERO PUSH2 0x8CF JUMPI PUSH0 DUP1 REVERT JUMPDEST POP PUSH2 0x8D8 PUSH2 0x40EB JUMP JUMPDEST PUSH1 0x40 MLOAD PUSH2 0x8E5 SWAP2 SWAP1 PUSH2 0x4A2C JUMP JUMPDEST PUSH1 0x40 MLOAD DUP1 SWAP2 SUB SWAP1 RETURN JUMPDEST PUSH2 0x908 PUSH1 0x4 DUP1 CALLDATASIZE SUB DUP2 ADD SWAP1 PUSH2 0x903 SWAP2 SWAP1 PUSH2 0x5F29 JUMP JUMPDEST PUSH2 0x4110 JUMP JUMPDEST STOP JUMPDEST CALLVALUE DUP1 ISZERO PUSH2 0x915 JUMPI PUSH0 DUP1 REVERT JUMPDEST POP PUSH2 0x91E PUSH2 0x4557 JUMP JUMPDEST PUSH1 0x40 MLOAD PUSH2 0x92B SWAP2 SWAP1 PUSH2 0x5474 JUMP JUMPDEST PUSH1 0x40 MLOAD DUP1 SWAP2 SUB SWAP1 RETURN JUMPDEST PUSH1 0xB PUSH1 0x20 MSTORE DUP1 PUSH0 MSTORE PUSH1 0x40 PUSH0 KECCAK256 PUSH0 SWAP2 POP SLOAD SWAP1 PUSH2 0x100 EXP SWAP1 DIV PUSH20 0xFFFFFFFFFFFFFFFFFFFFFFFFFFFFFFFFFFFFFFFF AND DUP2 JUMP JUMPDEST PUSH1 0x15 PUSH1 0x20 MSTORE DUP1 PUSH0 MSTORE PUSH1 0x40 PUSH0 KECCAK256 PUSH0 SWAP2 POP SWAP1 POP SLOAD DUP2 JUMP JUMPDEST PUSH1 0x11 PUSH1 0x20 MSTORE DUP1 PUSH0 MSTORE PUSH1 0x40 PUSH0 KECCAK256 PUSH0 SWAP2 POP SWAP1 POP DUP1 PUSH0 ADD PUSH0 SWAP1 SLOAD SWAP1 PUSH2 0x100 EXP SWAP1 DIV PUSH20 0xFFFFFFFFFFFFFFFFFFFFFFFFFFFFFFFFFFFFFFFF AND SWAP1 DUP1 PUSH1 0x1 ADD DUP1 SLOAD PUSH2 0x9BD SWAP1 PUSH2 0x602F JUMP JUMPDEST DUP1 PUSH1 0x1F ADD PUSH1 0x20 DUP1 SWAP2 DIV MUL PUSH1 0x20 ADD PUSH1 0x40 MLOAD SWAP1 DUP2 ADD PUSH1 0x40 MSTORE DUP1 SWAP3 SWAP2 SWAP1 DUP2 DUP2 MSTORE PUSH1 0x20 ADD DUP3 DUP1 SLOAD PUSH2 0x9E9 SWAP1 PUSH2 0x602F JUMP JUMPDEST DUP1 ISZERO PUSH2 0xA34 JUMPI DUP1 PUSH1 0x1F LT PUSH2 0xA0B JUMPI PUSH2 0x100 DUP1 DUP4 SLOAD DIV MUL DUP4 MSTORE SWAP2 PUSH1 0x20 ADD SWAP2 PUSH2 0xA34 JUMP JUMPDEST DUP3 ADD SWAP2 SWAP1 PUSH0 MSTORE PUSH1 0x20 PUSH0 KECCAK256 SWAP1 JUMPDEST DUP2 SLOAD DUP2 MSTORE SWAP1 PUSH1 0x1 ADD SWAP1 PUSH1 0x20 ADD DUP1 DUP4 GT PUSH2 0xA17 JUMPI DUP3 SWAP1 SUB PUSH1 0x1F AND DUP3 ADD SWAP2 JUMPDEST POP POP POP POP POP SWAP1 DUP1 PUSH1 0x2 ADD SLOAD SWAP1 DUP1 PUSH1 0x3 ADD SLOAD SWAP1 DUP1 PUSH1 0x4 ADD SLOAD SWAP1 DUP1 PUSH1 0x5 ADD SLOAD SWAP1 DUP1 PUSH1 0x6 ADD SLOAD SWAP1 DUP1 PUSH1 0x7 ADD PUSH0 SWAP1 SLOAD SWAP1 PUSH2 0x100 EXP SWAP1 DIV PUSH1 0xFF AND SWAP1 DUP1 PUSH1 0x7 ADD PUSH1 0x1 SWAP1 SLOAD SWAP1 PUSH2 0x100 EXP SWAP1 DIV PUSH20 0xFFFFFFFFFFFFFFFFFFFFFFFFFFFFFFFFFFFFFFFF AND SWAP1 DUP1 PUSH1 0x8 ADD PUSH0 SWAP1 SLOAD SWAP1 PUSH2 0x100 EXP SWAP1 DIV PUSH20 0xFFFFFFFFFFFFFFFFFFFFFFFFFFFFFFFFFFFFFFFF AND SWAP1 DUP1 PUSH1 0x8 ADD PUSH1 0x14 SWAP1 SLOAD SWAP1 PUSH2 0x100 EXP SWAP1 DIV PUSH1 0xFF AND SWAP1 POP DUP12 JUMP JUMPDEST PUSH1 0x10 PUSH1 0x20 MSTORE DUP1 PUSH0 MSTORE PUSH1 0x40 PUSH0 KECCAK256 PUSH0 SWAP2 POP SWAP1 POP DUP1 PUSH0 ADD PUSH0 SWAP1 SLOAD SWAP1 PUSH2 0x100 EXP SWAP1 DIV PUSH20 0xFFFFFFFFFFFFFFFFFFFFFFFFFFFFFFFFFFFFFFFF AND SWAP1 DUP1 PUSH1 0x1 ADD PUSH0 SWAP1 SLOAD SWAP1 PUSH2 0x100 EXP SWAP1 DIV PUSH20 0xFFFFFFFFFFFFFFFFFFFFFFFFFFFFFFFFFFFFFFFF AND SWAP1 DUP1 PUSH1 0x2 ADD DUP1 SLOAD PUSH2 0xB35 SWAP1 PUSH2 0x602F JUMP JUMPDEST DUP1 PUSH1 0x1F ADD PUSH1 0x20 DUP1 SWAP2 DIV MUL PUSH1 0x20 ADD PUSH1 0x40 MLOAD SWAP1 DUP2 ADD PUSH1 0x40 MSTORE DUP1 SWAP3 SWAP2 SWAP1 DUP2 DUP2 MSTORE PUSH1 0x20 ADD DUP3 DUP1 SLOAD PUSH2 0xB61 SWAP1 PUSH2 0x602F JUMP JUMPDEST DUP1 ISZERO PUSH2 0xBAC JUMPI DUP1 PUSH1 0x1F LT PUSH2 0xB83 JUMPI PUSH2 0x100 DUP1 DUP4 SLOAD DIV MUL DUP4 MSTORE SWAP2 PUSH1 0x20 ADD SWAP2 PUSH2 0xBAC JUMP JUMPDEST DUP3 ADD SWAP2 SWAP1 PUSH0 MSTORE PUSH1 0x20 PUSH0 KECCAK256 SWAP1 JUMPDEST DUP2 SLOAD DUP2 MSTORE SWAP1 PUSH1 0x1 ADD SWAP1 PUSH1 0x20 ADD DUP1 DUP4 GT PUSH2 0xB8F JUMPI DUP3 SWAP1 SUB PUSH1 0x1F AND DUP3 ADD SWAP2 JUMPDEST POP POP POP POP POP SWAP1 DUP1 PUSH1 0x3 ADD SLOAD SWAP1 DUP1 PUSH1 0x4 ADD SLOAD SWAP1 DUP1 PUSH1 0x5 ADD SLOAD SWAP1 DUP1 PUSH1 0x6 ADD SLOAD SWAP1 DUP1 PUSH1 0x7 ADD SLOAD SWAP1 DUP1 PUSH1 0x8 ADD PUSH0 SWAP1 SLOAD SWAP1 PUSH2 0x100 EXP SWAP1 DIV PUSH20 0xFFFFFFFFFFFFFFFFFFFFFFFFFFFFFFFFFFFFFFFF AND SWAP1 DUP1 PUSH1 0x9 ADD SLOAD SWAP1 DUP1 PUSH1 0xA ADD PUSH0 SWAP1 SLOAD SWAP1 PUSH2 0x100 EXP SWAP1 DIV PUSH1 0xFF AND SWAP1 POP DUP12 JUMP JUMPDEST PUSH1 0x1 ISZERO ISZERO PUSH2 0xC1E CALLER PUSH2 0x4569 JUMP JUMPDEST ISZERO ISZERO EQ PUSH2 0xC60 JUMPI PUSH1 0x40 MLOAD PUSH32 0x8C379A000000000000000000000000000000000000000000000000000000000 DUP2 MSTORE PUSH1 0x4 ADD PUSH2 0xC57 SWAP1 PUSH2 0x60CF JUMP JUMPDEST PUSH1 0x40 MLOAD DUP1 SWAP2 SUB SWAP1 REVERT JUMPDEST PUSH1 0x16 PUSH0 DUP11 PUSH20 0xFFFFFFFFFFFFFFFFFFFFFFFFFFFFFFFFFFFFFFFF AND PUSH20 0xFFFFFFFFFFFFFFFFFFFFFFFFFFFFFFFFFFFFFFFF AND DUP2 MSTORE PUSH1 0x20 ADD SWAP1 DUP2 MSTORE PUSH1 0x20 ADD PUSH0 KECCAK256 PUSH0 DUP10 DUP2 MSTORE PUSH1 0x20 ADD SWAP1 DUP2 MSTORE PUSH1 0x20 ADD PUSH0 KECCAK256 PUSH1 0x6 ADD SLOAD PUSH1 0x40 MLOAD PUSH1 0x20 ADD PUSH2 0xCC0 SWAP2 SWAP1 PUSH2 0x610D JUMP JUMPDEST PUSH1 0x40 MLOAD PUSH1 0x20 DUP2 DUP4 SUB SUB DUP2 MSTORE SWAP1 PUSH1 0x40 MSTORE DUP1 MLOAD SWAP1 PUSH1 0x20 ADD KECCAK256 DUP8 PUSH1 0x40 MLOAD PUSH1 0x20 ADD PUSH2 0xCE7 SWAP2 SWAP1 PUSH2 0x610D JUMP JUMPDEST PUSH1 0x40 MLOAD PUSH1 0x20 DUP2 DUP4 SUB SUB DUP2 MSTORE SWAP1 PUSH1 0x40 MSTORE DUP1 MLOAD SWAP1 PUSH1 0x20 ADD KECCAK256 EQ PUSH2 0xD3D JUMPI PUSH1 0x40 MLOAD PUSH32 0x8C379A000000000000000000000000000000000000000000000000000000000 DUP2 MSTORE PUSH1 0x4 ADD PUSH2 0xD34 SWAP1 PUSH2 0x6171 JUMP JUMPDEST PUSH1 0x40 MLOAD DUP1 SWAP2 SUB SWAP1 REVERT JUMPDEST PUSH0 ISZERO ISZERO PUSH1 0x16 PUSH0 DUP12 PUSH20 0xFFFFFFFFFFFFFFFFFFFFFFFFFFFFFFFFFFFFFFFF AND PUSH20 0xFFFFFFFFFFFFFFFFFFFFFFFFFFFFFFFFFFFFFFFF AND DUP2 MSTORE PUSH1 0x20 ADD SWAP1 DUP2 MSTORE PUSH1 0x20 ADD PUSH0 KECCAK256 PUSH0 DUP11 DUP2 MSTORE PUSH1 0x20 ADD SWAP1 DUP2 MSTORE PUSH1 0x20 ADD PUSH0 KECCAK256 PUSH1 0x7 ADD PUSH1 0x1 SWAP1 SLOAD SWAP1 PUSH2 0x100 EXP SWAP1 DIV PUSH1 0xFF AND ISZERO ISZERO EQ PUSH2 0xDDF JUMPI PUSH1 0x40 MLOAD PUSH32 0x8C379A000000000000000000000000000000000000000000000000000000000 DUP2 MSTORE PUSH1 0x4 ADD PUSH2 0xDD6 SWAP1 PUSH2 0x61D9 JUMP JUMPDEST PUSH1 0x40 MLOAD DUP1 SWAP2 SUB SWAP1 REVERT JUMPDEST DUP1 PUSH1 0x16 PUSH0 DUP12 PUSH20 0xFFFFFFFFFFFFFFFFFFFFFFFFFFFFFFFFFFFFFFFF AND PUSH20 0xFFFFFFFFFFFFFFFFFFFFFFFFFFFFFFFFFFFFFFFF AND DUP2 MSTORE PUSH1 0x20 ADD SWAP1 DUP2 MSTORE PUSH1 0x20 ADD PUSH0 KECCAK256 PUSH0 DUP11 DUP2 MSTORE PUSH1 0x20 ADD SWAP1 DUP2 MSTORE PUSH1 0x20 ADD PUSH0 KECCAK256 PUSH1 0x7 ADD PUSH0 PUSH2 0x100 EXP DUP2 SLOAD DUP2 PUSH1 0xFF MUL NOT AND SWAP1 DUP4 ISZERO ISZERO MUL OR SWAP1 SSTORE POP TIMESTAMP PUSH1 0x16 PUSH0 DUP12 PUSH20 0xFFFFFFFFFFFFFFFFFFFFFFFFFFFFFFFFFFFFFFFF AND PUSH20 0xFFFFFFFFFFFFFFFFFFFFFFFFFFFFFFFFFFFFFFFF AND DUP2 MSTORE PUSH1 0x20 ADD SWAP1 DUP2 MSTORE PUSH1 0x20 ADD PUSH0 KECCAK256 PUSH0 DUP11 DUP2 MSTORE PUSH1 0x20 ADD SWAP1 DUP2 MSTORE PUSH1 0x20 ADD PUSH0 KECCAK256 PUSH1 0x5 ADD DUP2 SWAP1 SSTORE POP PUSH1 0x1 PUSH1 0x16 PUSH0 DUP12 PUSH20 0xFFFFFFFFFFFFFFFFFFFFFFFFFFFFFFFFFFFFFFFF AND PUSH20 0xFFFFFFFFFFFFFFFFFFFFFFFFFFFFFFFFFFFFFFFF AND DUP2 MSTORE PUSH1 0x20 ADD SWAP1 DUP2 MSTORE PUSH1 0x20 ADD PUSH0 KECCAK256 PUSH0 DUP11 DUP2 MSTORE PUSH1 0x20 ADD SWAP1 DUP2 MSTORE PUSH1 0x20 ADD PUSH0 KECCAK256 PUSH1 0x7 ADD PUSH1 0x1 PUSH2 0x100 EXP DUP2 SLOAD DUP2 PUSH1 0xFF MUL NOT AND SWAP1 DUP4 ISZERO ISZERO MUL OR SWAP1 SSTORE POP CALLER PUSH1 0x16 PUSH0 DUP12 PUSH20 0xFFFFFFFFFFFFFFFFFFFFFFFFFFFFFFFFFFFFFFFF AND PUSH20 0xFFFFFFFFFFFFFFFFFFFFFFFFFFFFFFFFFFFFFFFF AND DUP2 MSTORE PUSH1 0x20 ADD SWAP1 DUP2 MSTORE PUSH1 0x20 ADD PUSH0 KECCAK256 PUSH0 DUP11 DUP2 MSTORE PUSH1 0x20 ADD SWAP1 DUP2 MSTORE PUSH1 0x20 ADD PUSH0 KECCAK256 PUSH1 0x8 ADD PUSH0 PUSH2 0x100 EXP DUP2 SLOAD DUP2 PUSH20 0xFFFFFFFFFFFFFFFFFFFFFFFFFFFFFFFFFFFFFFFF MUL NOT AND SWAP1 DUP4 PUSH20 0xFFFFFFFFFFFFFFFFFFFFFFFFFFFFFFFFFFFFFFFF AND MUL OR SWAP1 SSTORE POP PUSH1 0x40 MLOAD DUP1 PUSH1 0xC0 ADD PUSH1 0x40 MSTORE DUP1 DUP8 DUP2 MSTORE PUSH1 0x20 ADD DUP7 DUP2 MSTORE PUSH1 0x20 ADD DUP6 DUP2 MSTORE PUSH1 0x20 ADD DUP5 DUP2 MSTORE PUSH1 0x20 ADD DUP4 DUP2 MSTORE PUSH1 0x20 ADD DUP3 ISZERO ISZERO DUP2 MSTORE POP PUSH1 0x17 PUSH0 DUP10 DUP2 MSTORE PUSH1 0x20 ADD SWAP1 DUP2 MSTORE PUSH1 0x20 ADD PUSH0 KECCAK256 PUSH0 DUP3 ADD MLOAD DUP2 PUSH0 ADD SSTORE PUSH1 0x20 DUP3 ADD MLOAD DUP2 PUSH1 0x1 ADD SSTORE PUSH1 0x40 DUP3 ADD MLOAD DUP2 PUSH1 0x2 ADD SSTORE PUSH1 0x60 DUP3 ADD MLOAD DUP2 PUSH1 0x3 ADD SSTORE PUSH1 0x80 DUP3 ADD MLOAD DUP2 PUSH1 0x4 ADD SSTORE PUSH1 0xA0 DUP3 ADD MLOAD DUP2 PUSH1 0x5 ADD PUSH0 PUSH2 0x100 EXP DUP2 SLOAD DUP2 PUSH1 0xFF MUL NOT AND SWAP1 DUP4 ISZERO ISZERO MUL OR SWAP1 SSTORE POP SWAP1 POP POP DUP9 PUSH20 0xFFFFFFFFFFFFFFFFFFFFFFFFFFFFFFFFFFFFFFFF AND PUSH2 0x8FC CALLVALUE SWAP1 DUP2 ISZERO MUL SWAP1 PUSH1 0x40 MLOAD PUSH0 PUSH1 0x40 MLOAD DUP1 DUP4 SUB DUP2 DUP6 DUP9 DUP9 CALL SWAP4 POP POP POP POP ISZERO DUP1 ISZERO PUSH2 0x1063 JUMPI RETURNDATASIZE PUSH0 DUP1 RETURNDATACOPY RETURNDATASIZE PUSH0 REVERT JUMPDEST POP DUP1 PUSH1 0x14 PUSH0 DUP10 DUP2 MSTORE PUSH1 0x20 ADD SWAP1 DUP2 MSTORE PUSH1 0x20 ADD PUSH0 KECCAK256 PUSH1 0x7 ADD PUSH0 PUSH2 0x100 EXP DUP2 SLOAD DUP2 PUSH1 0xFF MUL NOT AND SWAP1 DUP4 ISZERO ISZERO MUL OR SWAP1 SSTORE POP TIMESTAMP PUSH1 0x14 PUSH0 DUP10 DUP2 MSTORE PUSH1 0x20 ADD SWAP1 DUP2 MSTORE PUSH1 0x20 ADD PUSH0 KECCAK256 PUSH1 0x5 ADD DUP2 SWAP1 SSTORE POP PUSH1 0x1 PUSH1 0x14 PUSH0 DUP10 DUP2 MSTORE PUSH1 0x20 ADD SWAP1 DUP2 MSTORE PUSH1 0x20 ADD PUSH0 KECCAK256 PUSH1 0x7 ADD PUSH1 0x1 PUSH2 0x100 EXP DUP2 SLOAD DUP2 PUSH1 0xFF MUL NOT AND SWAP1 DUP4 ISZERO ISZERO MUL OR SWAP1 SSTORE POP CALLER PUSH1 0x14 PUSH0 DUP10 DUP2 MSTORE PUSH1 0x20 ADD SWAP1 DUP2 MSTORE PUSH1 0x20 ADD PUSH0 KECCAK256 PUSH1 0x8 ADD PUSH0 PUSH2 0x100 EXP DUP2 SLOAD DUP2 PUSH20 0xFFFFFFFFFFFFFFFFFFFFFFFFFFFFFFFFFFFFFFFF MUL NOT AND SWAP1 DUP4 PUSH20 0xFFFFFFFFFFFFFFFFFFFFFFFFFFFFFFFFFFFFFFFF AND MUL OR SWAP1 SSTORE POP CALLER PUSH1 0x14 PUSH0 DUP10 DUP2 MSTORE PUSH1 0x20 ADD SWAP1 DUP2 MSTORE PUSH1 0x20 ADD PUSH0 KECCAK256 PUSH1 0x7 ADD PUSH1 0x2 PUSH2 0x100 EXP DUP2 SLOAD DUP2 PUSH20 0xFFFFFFFFFFFFFFFFFFFFFFFFFFFFFFFFFFFFFFFF MUL NOT AND SWAP1 DUP4 PUSH20 0xFFFFFFFFFFFFFFFFFFFFFFFFFFFFFFFFFFFFFFFF AND MUL OR SWAP1 SSTORE POP POP POP POP POP POP POP POP POP POP JUMP JUMPDEST PUSH1 0x2 SLOAD DUP2 JUMP JUMPDEST PUSH1 0xD PUSH1 0x20 MSTORE DUP1 PUSH0 MSTORE PUSH1 0x40 PUSH0 KECCAK256 PUSH0 SWAP2 POP SWAP1 POP DUP1 PUSH0 ADD PUSH0 SWAP1 SLOAD SWAP1 PUSH2 0x100 EXP SWAP1 DIV PUSH20 0xFFFFFFFFFFFFFFFFFFFFFFFFFFFFFFFFFFFFFFFF AND SWAP1 DUP1 PUSH1 0x1 ADD DUP1 SLOAD PUSH2 0x11CF SWAP1 PUSH2 0x602F JUMP JUMPDEST DUP1 PUSH1 0x1F ADD PUSH1 0x20 DUP1 SWAP2 DIV MUL PUSH1 0x20 ADD PUSH1 0x40 MLOAD SWAP1 DUP2 ADD PUSH1 0x40 MSTORE DUP1 SWAP3 SWAP2 SWAP1 DUP2 DUP2 MSTORE PUSH1 0x20 ADD DUP3 DUP1 SLOAD PUSH2 0x11FB SWAP1 PUSH2 0x602F JUMP JUMPDEST DUP1 ISZERO PUSH2 0x1246 JUMPI DUP1 PUSH1 0x1F LT PUSH2 0x121D JUMPI PUSH2 0x100 DUP1 DUP4 SLOAD DIV MUL DUP4 MSTORE SWAP2 PUSH1 0x20 ADD SWAP2 PUSH2 0x1246 JUMP JUMPDEST DUP3 ADD SWAP2 SWAP1 PUSH0 MSTORE PUSH1 0x20 PUSH0 KECCAK256 SWAP1 JUMPDEST DUP2 SLOAD DUP2 MSTORE SWAP1 PUSH1 0x1 ADD SWAP1 PUSH1 0x20 ADD DUP1 DUP4 GT PUSH2 0x1229 JUMPI DUP3 SWAP1 SUB PUSH1 0x1F AND DUP3 ADD SWAP2 JUMPDEST POP POP POP POP POP SWAP1 DUP1 PUSH1 0x2 ADD DUP1 SLOAD PUSH2 0x125B SWAP1 PUSH2 0x602F JUMP JUMPDEST DUP1 PUSH1 0x1F ADD PUSH1 0x20 DUP1 SWAP2 DIV MUL PUSH1 0x20 ADD PUSH1 0x40 MLOAD SWAP1 DUP2 ADD PUSH1 0x40 MSTORE DUP1 SWAP3 SWAP2 SWAP1 DUP2 DUP2 MSTORE PUSH1 0x20 ADD DUP3 DUP1 SLOAD PUSH2 0x1287 SWAP1 PUSH2 0x602F JUMP JUMPDEST DUP1 ISZERO PUSH2 0x12D2 JUMPI DUP1 PUSH1 0x1F LT PUSH2 0x12A9 JUMPI PUSH2 0x100 DUP1 DUP4 SLOAD DIV MUL DUP4 MSTORE SWAP2 PUSH1 0x20 ADD SWAP2 PUSH2 0x12D2 JUMP JUMPDEST DUP3 ADD SWAP2 SWAP1 PUSH0 MSTORE PUSH1 0x20 PUSH0 KECCAK256 SWAP1 JUMPDEST DUP2 SLOAD DUP2 MSTORE SWAP1 PUSH1 0x1 ADD SWAP1 PUSH1 0x20 ADD DUP1 DUP4 GT PUSH2 0x12B5 JUMPI DUP3 SWAP1 SUB PUSH1 0x1F AND DUP3 ADD SWAP2 JUMPDEST POP POP POP POP POP SWAP1 DUP1 PUSH1 0x3 ADD PUSH0 SWAP1 SLOAD SWAP1 PUSH2 0x100 EXP SWAP1 DIV PUSH4 0xFFFFFFFF AND SWAP1 DUP1 PUSH1 0x3 ADD PUSH1 0x4 SWAP1 SLOAD SWAP1 PUSH2 0x100 EXP SWAP1 DIV PUSH1 0xFF AND SWAP1 POP DUP6 JUMP JUMPDEST PUSH1 0x14 PUSH1 0x20 MSTORE DUP1 PUSH0 MSTORE PUSH1 0x40 PUSH0 KECCAK256 PUSH0 SWAP2 POP SWAP1 POP DUP1 PUSH0 ADD PUSH0 SWAP1 SLOAD SWAP1 PUSH2 0x100 EXP SWAP1 DIV PUSH20 0xFFFFFFFFFFFFFFFFFFFFFFFFFFFFFFFFFFFFFFFF AND SWAP1 DUP1 PUSH1 0x1 ADD DUP1 SLOAD PUSH2 0x1348 SWAP1 PUSH2 0x602F JUMP JUMPDEST DUP1 PUSH1 0x1F ADD PUSH1 0x20 DUP1 SWAP2 DIV MUL PUSH1 0x20 ADD PUSH1 0x40 MLOAD SWAP1 DUP2 ADD PUSH1 0x40 MSTORE DUP1 SWAP3 SWAP2 SWAP1 DUP2 DUP2 MSTORE PUSH1 0x20 ADD DUP3 DUP1 SLOAD PUSH2 0x1374 SWAP1 PUSH2 0x602F JUMP JUMPDEST DUP1 ISZERO PUSH2 0x13BF JUMPI DUP1 PUSH1 0x1F LT PUSH2 0x1396 JUMPI PUSH2 0x100 DUP1 DUP4 SLOAD DIV MUL DUP4 MSTORE SWAP2 PUSH1 0x20 ADD SWAP2 PUSH2 0x13BF JUMP JUMPDEST DUP3 ADD SWAP2 SWAP1 PUSH0 MSTORE PUSH1 0x20 PUSH0 KECCAK256 SWAP1 JUMPDEST DUP2 SLOAD DUP2 MSTORE SWAP1 PUSH1 0x1 ADD SWAP1 PUSH1 0x20 ADD DUP1 DUP4 GT PUSH2 0x13A2 JUMPI DUP3 SWAP1 SUB PUSH1 0x1F AND DUP3 ADD SWAP2 JUMPDEST POP POP POP POP POP SWAP1 DUP1 PUSH1 0x2 ADD SLOAD SWAP1 DUP1 PUSH1 0x3 ADD SLOAD SWAP1 DUP1 PUSH1 0x4 ADD SLOAD SWAP1 DUP1 PUSH1 0x5 ADD SLOAD SWAP1 DUP1 PUSH1 0x6 ADD SLOAD SWAP1 DUP1 PUSH1 0x7 ADD PUSH0 SWAP1 SLOAD SWAP1 PUSH2 0x100 EXP SWAP1 DIV PUSH1 0xFF AND SWAP1 DUP1 PUSH1 0x7 ADD PUSH1 0x1 SWAP1 SLOAD SWAP1 PUSH2 0x100 EXP SWAP1 DIV PUSH1 0xFF AND SWAP1 DUP1 PUSH1 0x7 ADD PUSH1 0x2 SWAP1 SLOAD SWAP1 PUSH2 0x100 EXP SWAP1 DIV PUSH20 0xFFFFFFFFFFFFFFFFFFFFFFFFFFFFFFFFFFFFFFFF AND SWAP1 DUP1 PUSH1 0x8 ADD PUSH0 SWAP1 SLOAD SWAP1 PUSH2 0x100 EXP SWAP1 DIV PUSH20 0xFFFFFFFFFFFFFFFFFFFFFFFFFFFFFFFFFFFFFFFF AND SWAP1 POP DUP12 JUMP JUMPDEST PUSH1 0x12 PUSH0 SWAP1 SLOAD SWAP1 PUSH2 0x100 EXP SWAP1 DIV PUSH20 0xFFFFFFFFFFFFFFFFFFFFFFFFFFFFFFFFFFFFFFFF AND PUSH20 0xFFFFFFFFFFFFFFFFFFFFFFFFFFFFFFFFFFFFFFFF AND CALLER PUSH20 0xFFFFFFFFFFFFFFFFFFFFFFFFFFFFFFFFFFFFFFFF AND EQ PUSH2 0x14E6 JUMPI PUSH1 0x40 MLOAD PUSH32 0x8C379A000000000000000000000000000000000000000000000000000000000 DUP2 MSTORE PUSH1 0x4 ADD PUSH2 0x14DD SWAP1 PUSH2 0x6267 JUMP JUMPDEST PUSH1 0x40 MLOAD DUP1 SWAP2 SUB SWAP1 REVERT JUMPDEST DUP1 PUSH1 0x5 DUP2 SWAP1 SSTORE POP PUSH1 0x5 SLOAD PUSH1 0xA PUSH2 0x14FC SWAP2 SWAP1 PUSH2 0x63E1 JUMP JUMPDEST PUSH1 0x6 DUP2 SWAP1 SSTORE POP POP JUMP JUMPDEST PUSH2 0x150D PUSH2 0x4704 JUMP JUMPDEST PUSH2 0x1515 PUSH2 0x4736 JUMP JUMPDEST PUSH2 0x151D PUSH2 0x478B JUMP JUMPDEST PUSH1 0x17 PUSH0 DUP6 DUP2 MSTORE PUSH1 0x20 ADD SWAP1 DUP2 MSTORE PUSH1 0x20 ADD PUSH0 KECCAK256 PUSH1 0x1A PUSH0 DUP7 DUP2 MSTORE PUSH1 0x20 ADD SWAP1 DUP2 MSTORE PUSH1 0x20 ADD PUSH0 KECCAK256 PUSH1 0x19 PUSH0 DUP8 DUP2 MSTORE PUSH1 0x20 ADD SWAP1 DUP2 MSTORE PUSH1 0x20 ADD PUSH0 KECCAK256 DUP3 PUSH1 0x40 MLOAD DUP1 PUSH1 0xC0 ADD PUSH1 0x40 MSTORE SWAP1 DUP2 PUSH0 DUP3 ADD SLOAD DUP2 MSTORE PUSH1 0x20 ADD PUSH1 0x1 DUP3 ADD SLOAD DUP2 MSTORE PUSH1 0x20 ADD PUSH1 0x2 DUP3 ADD SLOAD DUP2 MSTORE PUSH1 0x20 ADD PUSH1 0x3 DUP3 ADD SLOAD DUP2 MSTORE PUSH1 0x20 ADD PUSH1 0x4 DUP3 ADD SLOAD DUP2 MSTORE PUSH1 0x20 ADD PUSH1 0x5 DUP3 ADD PUSH0 SWAP1 SLOAD SWAP1 PUSH2 0x100 EXP SWAP1 DIV PUSH1 0xFF AND ISZERO ISZERO ISZERO ISZERO DUP2 MSTORE POP POP SWAP3 POP DUP2 PUSH1 0x40 MLOAD DUP1 PUSH2 0x140 ADD PUSH1 0x40 MSTORE SWAP1 DUP2 PUSH0 DUP3 ADD SLOAD DUP2 MSTORE PUSH1 0x20 ADD PUSH1 0x1 DUP3 ADD SLOAD DUP2 MSTORE PUSH1 0x20 ADD PUSH1 0x2 DUP3 ADD SLOAD DUP2 MSTORE PUSH1 0x20 ADD PUSH1 0x3 DUP3 ADD SLOAD DUP2 MSTORE PUSH1 0x20 ADD PUSH1 0x4 DUP3 ADD PUSH0 SWAP1 SLOAD SWAP1 PUSH2 0x100 EXP SWAP1 DIV PUSH1 0xFF AND ISZERO ISZERO ISZERO ISZERO DUP2 MSTORE PUSH1 0x20 ADD PUSH1 0x4 DUP3 ADD PUSH1 0x1 SWAP1 SLOAD SWAP1 PUSH2 0x100 EXP SWAP1 DIV PUSH1 0xFF AND ISZERO ISZERO ISZERO ISZERO DUP2 MSTORE PUSH1 0x20 ADD PUSH1 0x4 DUP3 ADD PUSH1 0x2 SWAP1 SLOAD SWAP1 PUSH2 0x100 EXP SWAP1 DIV PUSH1 0xFF AND ISZERO ISZERO ISZERO ISZERO DUP2 MSTORE PUSH1 0x20 ADD PUSH1 0x4 DUP3 ADD PUSH1 0x3 SWAP1 SLOAD SWAP1 PUSH2 0x100 EXP SWAP1 DIV PUSH1 0xFF AND ISZERO ISZERO ISZERO ISZERO DUP2 MSTORE PUSH1 0x20 ADD PUSH1 0x4 DUP3 ADD PUSH1 0x4 SWAP1 SLOAD SWAP1 PUSH2 0x100 EXP SWAP1 DIV PUSH1 0xFF AND ISZERO ISZERO ISZERO ISZERO DUP2 MSTORE PUSH1 0x20 ADD PUSH1 0x4 DUP3 ADD PUSH1 0x5 SWAP1 SLOAD SWAP1 PUSH2 0x100 EXP SWAP1 DIV PUSH1 0xFF AND ISZERO ISZERO ISZERO ISZERO DUP2 MSTORE POP POP SWAP2 POP DUP1 PUSH1 0x40 MLOAD DUP1 PUSH1 0xE0 ADD PUSH1 0x40 MSTORE SWAP1 DUP2 PUSH0 DUP3 ADD DUP1 SLOAD PUSH2 0x169B SWAP1 PUSH2 0x602F JUMP JUMPDEST DUP1 PUSH1 0x1F ADD PUSH1 0x20 DUP1 SWAP2 DIV MUL PUSH1 0x20 ADD PUSH1 0x40 MLOAD SWAP1 DUP2 ADD PUSH1 0x40 MSTORE DUP1 SWAP3 SWAP2 SWAP1 DUP2 DUP2 MSTORE PUSH1 0x20 ADD DUP3 DUP1 SLOAD PUSH2 0x16C7 SWAP1 PUSH2 0x602F JUMP JUMPDEST DUP1 ISZERO PUSH2 0x1712 JUMPI DUP1 PUSH1 0x1F LT PUSH2 0x16E9 JUMPI PUSH2 0x100 DUP1 DUP4 SLOAD DIV MUL DUP4 MSTORE SWAP2 PUSH1 0x20 ADD SWAP2 PUSH2 0x1712 JUMP JUMPDEST DUP3 ADD SWAP2 SWAP1 PUSH0 MSTORE PUSH1 0x20 PUSH0 KECCAK256 SWAP1 JUMPDEST DUP2 SLOAD DUP2 MSTORE SWAP1 PUSH1 0x1 ADD SWAP1 PUSH1 0x20 ADD DUP1 DUP4 GT PUSH2 0x16F5 JUMPI DUP3 SWAP1 SUB PUSH1 0x1F AND DUP3 ADD SWAP2 JUMPDEST POP POP POP POP POP DUP2 MSTORE PUSH1 0x20 ADD PUSH1 0x1 DUP3 ADD DUP1 SLOAD PUSH2 0x172B SWAP1 PUSH2 0x602F JUMP JUMPDEST DUP1 PUSH1 0x1F ADD PUSH1 0x20 DUP1 SWAP2 DIV MUL PUSH1 0x20 ADD PUSH1 0x40 MLOAD SWAP1 DUP2 ADD PUSH1 0x40 MSTORE DUP1 SWAP3 SWAP2 SWAP1 DUP2 DUP2 MSTORE PUSH1 0x20 ADD DUP3 DUP1 SLOAD PUSH2 0x1757 SWAP1 PUSH2 0x602F JUMP JUMPDEST DUP1 ISZERO PUSH2 0x17A2 JUMPI DUP1 PUSH1 0x1F LT PUSH2 0x1779 JUMPI PUSH2 0x100 DUP1 DUP4 SLOAD DIV MUL DUP4 MSTORE SWAP2 PUSH1 0x20 ADD SWAP2 PUSH2 0x17A2 JUMP JUMPDEST DUP3 ADD SWAP2 SWAP1 PUSH0 MSTORE PUSH1 0x20 PUSH0 KECCAK256 SWAP1 JUMPDEST DUP2 SLOAD DUP2 MSTORE SWAP1 PUSH1 0x1 ADD SWAP1 PUSH1 0x20 ADD DUP1 DUP4 GT PUSH2 0x1785 JUMPI DUP3 SWAP1 SUB PUSH1 0x1F AND DUP3 ADD SWAP2 JUMPDEST POP POP POP POP POP DUP2 MSTORE PUSH1 0x20 ADD PUSH1 0x2 DUP3 ADD SLOAD DUP2 MSTORE PUSH1 0x20 ADD PUSH1 0x3 DUP3 ADD SLOAD DUP2 MSTORE PUSH1 0x20 ADD PUSH1 0x4 DUP3 ADD PUSH0 SWAP1 SLOAD SWAP1 PUSH2 0x100 EXP SWAP1 DIV PUSH1 0xFF AND ISZERO ISZERO ISZERO ISZERO DUP2 MSTORE PUSH1 0x20 ADD PUSH1 0x4 DUP3 ADD PUSH1 0x1 SWAP1 SLOAD SWAP1 PUSH2 0x100 EXP SWAP1 DIV PUSH1 0xFF AND ISZERO ISZERO ISZERO ISZERO DUP2 MSTORE PUSH1 0x20 ADD PUSH1 0x4 DUP3 ADD PUSH1 0x2 SWAP1 SLOAD SWAP1 PUSH2 0x100 EXP SWAP1 DIV PUSH20 0xFFFFFFFFFFFFFFFFFFFFFFFFFFFFFFFFFFFFFFFF AND PUSH20 0xFFFFFFFFFFFFFFFFFFFFFFFFFFFFFFFFFFFFFFFF AND PUSH20 0xFFFFFFFFFFFFFFFFFFFFFFFFFFFFFFFFFFFFFFFF AND DUP2 MSTORE POP POP SWAP1 POP SWAP3 POP SWAP3 POP SWAP3 POP SWAP2 SWAP4 SWAP1 SWAP3 POP JUMP JUMPDEST PUSH1 0xA PUSH1 0x20 MSTORE DUP1 PUSH0 MSTORE PUSH1 0x40 PUSH0 KECCAK256 PUSH0 SWAP2 POP SLOAD SWAP1 PUSH2 0x100 EXP SWAP1 DIV PUSH20 0xFFFFFFFFFFFFFFFFFFFFFFFFFFFFFFFFFFFFFFFF AND DUP2 JUMP JUMPDEST PUSH2 0x1891 PUSH2 0x47DD JUMP JUMPDEST PUSH2 0x1899 PUSH2 0x4873 JUMP JUMPDEST PUSH2 0x18A1 PUSH2 0x48BD JUMP JUMPDEST PUSH2 0x18A9 PUSH2 0x490B JUMP JUMPDEST PUSH1 0x14 PUSH0 DUP7 DUP2 MSTORE PUSH1 0x20 ADD SWAP1 DUP2 MSTORE PUSH1 0x20 ADD PUSH0 KECCAK256 PUSH1 0xD PUSH0 PUSH1 0x14 PUSH0 DUP10 DUP2 MSTORE PUSH1 0x20 ADD SWAP1 DUP2 MSTORE PUSH1 0x20 ADD PUSH0 KECCAK256 PUSH1 0x7 ADD PUSH1 0x2 SWAP1 SLOAD SWAP1 PUSH2 0x100 EXP SWAP1 DIV PUSH20 0xFFFFFFFFFFFFFFFFFFFFFFFFFFFFFFFFFFFFFFFF AND PUSH20 0xFFFFFFFFFFFFFFFFFFFFFFFFFFFFFFFFFFFFFFFF AND PUSH20 0xFFFFFFFFFFFFFFFFFFFFFFFFFFFFFFFFFFFFFFFF AND DUP2 MSTORE PUSH1 0x20 ADD SWAP1 DUP2 MSTORE PUSH1 0x20 ADD PUSH0 KECCAK256 PUSH1 0xE PUSH0 PUSH1 0x14 PUSH0 DUP11 DUP2 MSTORE PUSH1 0x20 ADD SWAP1 DUP2 MSTORE PUSH1 0x20 ADD PUSH0 KECCAK256 PUSH1 0x8 ADD PUSH0 SWAP1 SLOAD SWAP1 PUSH2 0x100 EXP SWAP1 DIV PUSH20 0xFFFFFFFFFFFFFFFFFFFFFFFFFFFFFFFFFFFFFFFF AND PUSH20 0xFFFFFFFFFFFFFFFFFFFFFFFFFFFFFFFFFFFFFFFF AND PUSH20 0xFFFFFFFFFFFFFFFFFFFFFFFFFFFFFFFFFFFFFFFF AND DUP2 MSTORE PUSH1 0x20 ADD SWAP1 DUP2 MSTORE PUSH1 0x20 ADD PUSH0 KECCAK256 PUSH1 0xF PUSH0 PUSH1 0x19 PUSH0 DUP12 DUP2 MSTORE PUSH1 0x20 ADD SWAP1 DUP2 MSTORE PUSH1 0x20 ADD PUSH0 KECCAK256 PUSH1 0x4 ADD PUSH1 0x2 SWAP1 SLOAD SWAP1 PUSH2 0x100 EXP SWAP1 DIV PUSH20 0xFFFFFFFFFFFFFFFFFFFFFFFFFFFFFFFFFFFFFFFF AND PUSH20 0xFFFFFFFFFFFFFFFFFFFFFFFFFFFFFFFFFFFFFFFF AND PUSH20 0xFFFFFFFFFFFFFFFFFFFFFFFFFFFFFFFFFFFFFFFF AND DUP2 MSTORE PUSH1 0x20 ADD SWAP1 DUP2 MSTORE PUSH1 0x20 ADD PUSH0 KECCAK256 DUP4 PUSH1 0x40 MLOAD DUP1 PUSH2 0x160 ADD PUSH1 0x40 MSTORE SWAP1 DUP2 PUSH0 DUP3 ADD PUSH0 SWAP1 SLOAD SWAP1 PUSH2 0x100 EXP SWAP1 DIV PUSH20 0xFFFFFFFFFFFFFFFFFFFFFFFFFFFFFFFFFFFFFFFF AND PUSH20 0xFFFFFFFFFFFFFFFFFFFFFFFFFFFFFFFFFFFFFFFF AND PUSH20 0xFFFFFFFFFFFFFFFFFFFFFFFFFFFFFFFFFFFFFFFF AND DUP2 MSTORE PUSH1 0x20 ADD PUSH1 0x1 DUP3 ADD DUP1 SLOAD PUSH2 0x1A7D SWAP1 PUSH2 0x602F JUMP JUMPDEST DUP1 PUSH1 0x1F ADD PUSH1 0x20 DUP1 SWAP2 DIV MUL PUSH1 0x20 ADD PUSH1 0x40 MLOAD SWAP1 DUP2 ADD PUSH1 0x40 MSTORE DUP1 SWAP3 SWAP2 SWAP1 DUP2 DUP2 MSTORE PUSH1 0x20 ADD DUP3 DUP1 SLOAD PUSH2 0x1AA9 SWAP1 PUSH2 0x602F JUMP JUMPDEST DUP1 ISZERO PUSH2 0x1AF4 JUMPI DUP1 PUSH1 0x1F LT PUSH2 0x1ACB JUMPI PUSH2 0x100 DUP1 DUP4 SLOAD DIV MUL DUP4 MSTORE SWAP2 PUSH1 0x20 ADD SWAP2 PUSH2 0x1AF4 JUMP JUMPDEST DUP3 ADD SWAP2 SWAP1 PUSH0 MSTORE PUSH1 0x20 PUSH0 KECCAK256 SWAP1 JUMPDEST DUP2 SLOAD DUP2 MSTORE SWAP1 PUSH1 0x1 ADD SWAP1 PUSH1 0x20 ADD DUP1 DUP4 GT PUSH2 0x1AD7 JUMPI DUP3 SWAP1 SUB PUSH1 0x1F AND DUP3 ADD SWAP2 JUMPDEST POP POP POP POP POP DUP2 MSTORE PUSH1 0x20 ADD PUSH1 0x2 DUP3 ADD SLOAD DUP2 MSTORE PUSH1 0x20 ADD PUSH1 0x3 DUP3 ADD SLOAD DUP2 MSTORE PUSH1 0x20 ADD PUSH1 0x4 DUP3 ADD SLOAD DUP2 MSTORE PUSH1 0x20 ADD PUSH1 0x5 DUP3 ADD SLOAD DUP2 MSTORE PUSH1 0x20 ADD PUSH1 0x6 DUP3 ADD SLOAD DUP2 MSTORE PUSH1 0x20 ADD PUSH1 0x7 DUP3 ADD PUSH0 SWAP1 SLOAD SWAP1 PUSH2 0x100 EXP SWAP1 DIV PUSH1 0xFF AND ISZERO ISZERO ISZERO ISZERO DUP2 MSTORE PUSH1 0x20 ADD PUSH1 0x7 DUP3 ADD PUSH1 0x1 SWAP1 SLOAD SWAP1 PUSH2 0x100 EXP SWAP1 DIV PUSH1 0xFF AND ISZERO ISZERO ISZERO ISZERO DUP2 MSTORE PUSH1 0x20 ADD PUSH1 0x7 DUP3 ADD PUSH1 0x2 SWAP1 SLOAD SWAP1 PUSH2 0x100 EXP SWAP1 DIV PUSH20 0xFFFFFFFFFFFFFFFFFFFFFFFFFFFFFFFFFFFFFFFF AND PUSH20 0xFFFFFFFFFFFFFFFFFFFFFFFFFFFFFFFFFFFFFFFF AND PUSH20 0xFFFFFFFFFFFFFFFFFFFFFFFFFFFFFFFFFFFFFFFF AND DUP2 MSTORE PUSH1 0x20 ADD PUSH1 0x8 DUP3 ADD PUSH0 SWAP1 SLOAD SWAP1 PUSH2 0x100 EXP SWAP1 DIV PUSH20 0xFFFFFFFFFFFFFFFFFFFFFFFFFFFFFFFFFFFFFFFF AND PUSH20 0xFFFFFFFFFFFFFFFFFFFFFFFFFFFFFFFFFFFFFFFF AND PUSH20 0xFFFFFFFFFFFFFFFFFFFFFFFFFFFFFFFFFFFFFFFF AND DUP2 MSTORE POP POP SWAP4 POP DUP3 PUSH1 0x40 MLOAD DUP1 PUSH1 0xA0 ADD PUSH1 0x40 MSTORE SWAP1 DUP2 PUSH0 DUP3 ADD PUSH0 SWAP1 SLOAD SWAP1 PUSH2 0x100 EXP SWAP1 DIV PUSH20 0xFFFFFFFFFFFFFFFFFFFFFFFFFFFFFFFFFFFFFFFF AND PUSH20 0xFFFFFFFFFFFFFFFFFFFFFFFFFFFFFFFFFFFFFFFF AND PUSH20 0xFFFFFFFFFFFFFFFFFFFFFFFFFFFFFFFFFFFFFFFF AND DUP2 MSTORE PUSH1 0x20 ADD PUSH1 0x1 DUP3 ADD DUP1 SLOAD PUSH2 0x1C81 SWAP1 PUSH2 0x602F JUMP JUMPDEST DUP1 PUSH1 0x1F ADD PUSH1 0x20 DUP1 SWAP2 DIV MUL PUSH1 0x20 ADD PUSH1 0x40 MLOAD SWAP1 DUP2 ADD PUSH1 0x40 MSTORE DUP1 SWAP3 SWAP2 SWAP1 DUP2 DUP2 MSTORE PUSH1 0x20 ADD DUP3 DUP1 SLOAD PUSH2 0x1CAD SWAP1 PUSH2 0x602F JUMP JUMPDEST DUP1 ISZERO PUSH2 0x1CF8 JUMPI DUP1 PUSH1 0x1F LT PUSH2 0x1CCF JUMPI PUSH2 0x100 DUP1 DUP4 SLOAD DIV MUL DUP4 MSTORE SWAP2 PUSH1 0x20 ADD SWAP2 PUSH2 0x1CF8 JUMP JUMPDEST DUP3 ADD SWAP2 SWAP1 PUSH0 MSTORE PUSH1 0x20 PUSH0 KECCAK256 SWAP1 JUMPDEST DUP2 SLOAD DUP2 MSTORE SWAP1 PUSH1 0x1 ADD SWAP1 PUSH1 0x20 ADD DUP1 DUP4 GT PUSH2 0x1CDB JUMPI DUP3 SWAP1 SUB PUSH1 0x1F AND DUP3 ADD SWAP2 JUMPDEST POP POP POP POP POP DUP2 MSTORE PUSH1 0x20 ADD PUSH1 0x2 DUP3 ADD DUP1 SLOAD PUSH2 0x1D11 SWAP1 PUSH2 0x602F JUMP JUMPDEST DUP1 PUSH1 0x1F ADD PUSH1 0x20 DUP1 SWAP2 DIV MUL PUSH1 0x20 ADD PUSH1 0x40 MLOAD SWAP1 DUP2 ADD PUSH1 0x40 MSTORE DUP1 SWAP3 SWAP2 SWAP1 DUP2 DUP2 MSTORE PUSH1 0x20 ADD DUP3 DUP1 SLOAD PUSH2 0x1D3D SWAP1 PUSH2 0x602F JUMP JUMPDEST DUP1 ISZERO PUSH2 0x1D88 JUMPI DUP1 PUSH1 0x1F LT PUSH2 0x1D5F JUMPI PUSH2 0x100 DUP1 DUP4 SLOAD DIV MUL DUP4 MSTORE SWAP2 PUSH1 0x20 ADD SWAP2 PUSH2 0x1D88 JUMP JUMPDEST DUP3 ADD SWAP2 SWAP1 PUSH0 MSTORE PUSH1 0x20 PUSH0 KECCAK256 SWAP1 JUMPDEST DUP2 SLOAD DUP2 MSTORE SWAP1 PUSH1 0x1 ADD SWAP1 PUSH1 0x20 ADD DUP1 DUP4 GT PUSH2 0x1D6B JUMPI DUP3 SWAP1 SUB PUSH1 0x1F AND DUP3 ADD SWAP2 JUMPDEST POP POP POP POP POP DUP2 MSTORE PUSH1 0x20 ADD PUSH1 0x3 DUP3 ADD PUSH0 SWAP1 SLOAD SWAP1 PUSH2 0x100 EXP SWAP1 DIV PUSH4 0xFFFFFFFF AND PUSH4 0xFFFFFFFF AND PUSH4 0xFFFFFFFF AND DUP2 MSTORE PUSH1 0x20 ADD PUSH1 0x3 DUP3 ADD PUSH1 0x4 SWAP1 SLOAD SWAP1 PUSH2 0x100 EXP SWAP1 DIV PUSH1 0xFF AND ISZERO ISZERO ISZERO ISZERO DUP2 MSTORE POP POP SWAP3 POP DUP2 PUSH1 0x40 MLOAD DUP1 PUSH1 0xA0 ADD PUSH1 0x40 MSTORE SWAP1 DUP2 PUSH0 DUP3 ADD PUSH0 SWAP1 SLOAD SWAP1 PUSH2 0x100 EXP SWAP1 DIV PUSH20 0xFFFFFFFFFFFFFFFFFFFFFFFFFFFFFFFFFFFFFFFF AND PUSH20 0xFFFFFFFFFFFFFFFFFFFFFFFFFFFFFFFFFFFFFFFF AND PUSH20 0xFFFFFFFFFFFFFFFFFFFFFFFFFFFFFFFFFFFFFFFF AND DUP2 MSTORE PUSH1 0x20 ADD PUSH1 0x1 DUP3 ADD DUP1 SLOAD PUSH2 0x1E43 SWAP1 PUSH2 0x602F JUMP JUMPDEST DUP1 PUSH1 0x1F ADD PUSH1 0x20 DUP1 SWAP2 DIV MUL PUSH1 0x20 ADD PUSH1 0x40 MLOAD SWAP1 DUP2 ADD PUSH1 0x40 MSTORE DUP1 SWAP3 SWAP2 SWAP1 DUP2 DUP2 MSTORE PUSH1 0x20 ADD DUP3 DUP1 SLOAD PUSH2 0x1E6F SWAP1 PUSH2 0x602F JUMP JUMPDEST DUP1 ISZERO PUSH2 0x1EBA JUMPI DUP1 PUSH1 0x1F LT PUSH2 0x1E91 JUMPI PUSH2 0x100 DUP1 DUP4 SLOAD DIV MUL DUP4 MSTORE SWAP2 PUSH1 0x20 ADD SWAP2 PUSH2 0x1EBA JUMP JUMPDEST DUP3 ADD SWAP2 SWAP1 PUSH0 MSTORE PUSH1 0x20 PUSH0 KECCAK256 SWAP1 JUMPDEST DUP2 SLOAD DUP2 MSTORE SWAP1 PUSH1 0x1 ADD SWAP1 PUSH1 0x20 ADD DUP1 DUP4 GT PUSH2 0x1E9D JUMPI DUP3 SWAP1 SUB PUSH1 0x1F AND DUP3 ADD SWAP2 JUMPDEST POP POP POP POP POP DUP2 MSTORE PUSH1 0x20 ADD PUSH1 0x2 DUP3 ADD DUP1 SLOAD PUSH2 0x1ED3 SWAP1 PUSH2 0x602F JUMP JUMPDEST DUP1 PUSH1 0x1F ADD PUSH1 0x20 DUP1 SWAP2 DIV MUL PUSH1 0x20 ADD PUSH1 0x40 MLOAD SWAP1 DUP2 ADD PUSH1 0x40 MSTORE DUP1 SWAP3 SWAP2 SWAP1 DUP2 DUP2 MSTORE PUSH1 0x20 ADD DUP3 DUP1 SLOAD PUSH2 0x1EFF SWAP1 PUSH2 0x602F JUMP JUMPDEST DUP1 ISZERO PUSH2 0x1F4A JUMPI DUP1 PUSH1 0x1F LT PUSH2 0x1F21 JUMPI PUSH2 0x100 DUP1 DUP4 SLOAD DIV MUL DUP4 MSTORE SWAP2 PUSH1 0x20 ADD SWAP2 PUSH2 0x1F4A JUMP JUMPDEST DUP3 ADD SWAP2 SWAP1 PUSH0 MSTORE PUSH1 0x20 PUSH0 KECCAK256 SWAP1 JUMPDEST DUP2 SLOAD DUP2 MSTORE SWAP1 PUSH1 0x1 ADD SWAP1 PUSH1 0x20 ADD DUP1 DUP4 GT PUSH2 0x1F2D JUMPI DUP3 SWAP1 SUB PUSH1 0x1F AND DUP3 ADD SWAP2 JUMPDEST POP POP POP POP POP DUP2 MSTORE PUSH1 0x20 ADD PUSH1 0x3 DUP3 ADD PUSH0 SWAP1 SLOAD SWAP1 PUSH2 0x100 EXP SWAP1 DIV PUSH4 0xFFFFFFFF AND PUSH4 0xFFFFFFFF AND PUSH4 0xFFFFFFFF AND DUP2 MSTORE PUSH1 0x20 ADD PUSH1 0x3 DUP3 ADD PUSH1 0x4 SWAP1 SLOAD SWAP1 PUSH2 0x100 EXP SWAP1 DIV PUSH4 0xFFFFFFFF AND PUSH4 0xFFFFFFFF AND PUSH4 0xFFFFFFFF AND DUP2 MSTORE POP POP SWAP2 POP DUP1 PUSH1 0x40 MLOAD DUP1 PUSH2 0x120 ADD PUSH1 0x40 MSTORE SWAP1 DUP2 PUSH0 DUP3 ADD PUSH0 SWAP1 SLOAD SWAP1 PUSH2 0x100 EXP SWAP1 DIV PUSH20 0xFFFFFFFFFFFFFFFFFFFFFFFFFFFFFFFFFFFFFFFF AND PUSH20 0xFFFFFFFFFFFFFFFFFFFFFFFFFFFFFFFFFFFFFFFF AND PUSH20 0xFFFFFFFFFFFFFFFFFFFFFFFFFFFFFFFFFFFFFFFF AND DUP2 MSTORE PUSH1 0x20 ADD PUSH1 0x1 DUP3 ADD DUP1 SLOAD PUSH2 0x2011 SWAP1 PUSH2 0x602F JUMP JUMPDEST DUP1 PUSH1 0x1F ADD PUSH1 0x20 DUP1 SWAP2 DIV MUL PUSH1 0x20 ADD PUSH1 0x40 MLOAD SWAP1 DUP2 ADD PUSH1 0x40 MSTORE DUP1 SWAP3 SWAP2 SWAP1 DUP2 DUP2 MSTORE PUSH1 0x20 ADD DUP3 DUP1 SLOAD PUSH2 0x203D SWAP1 PUSH2 0x602F JUMP JUMPDEST DUP1 ISZERO PUSH2 0x2088 JUMPI DUP1 PUSH1 0x1F LT PUSH2 0x205F JUMPI PUSH2 0x100 DUP1 DUP4 SLOAD DIV MUL DUP4 MSTORE SWAP2 PUSH1 0x20 ADD SWAP2 PUSH2 0x2088 JUMP JUMPDEST DUP3 ADD SWAP2 SWAP1 PUSH0 MSTORE PUSH1 0x20 PUSH0 KECCAK256 SWAP1 JUMPDEST DUP2 SLOAD DUP2 MSTORE SWAP1 PUSH1 0x1 ADD SWAP1 PUSH1 0x20 ADD DUP1 DUP4 GT PUSH2 0x206B JUMPI DUP3 SWAP1 SUB PUSH1 0x1F AND DUP3 ADD SWAP2 JUMPDEST POP POP POP POP POP DUP2 MSTORE PUSH1 0x20 ADD PUSH1 0x2 DUP3 ADD DUP1 SLOAD PUSH2 0x20A1 SWAP1 PUSH2 0x602F JUMP JUMPDEST DUP1 PUSH1 0x1F ADD PUSH1 0x20 DUP1 SWAP2 DIV MUL PUSH1 0x20 ADD PUSH1 0x40 MLOAD SWAP1 DUP2 ADD PUSH1 0x40 MSTORE DUP1 SWAP3 SWAP2 SWAP1 DUP2 DUP2 MSTORE PUSH1 0x20 ADD DUP3 DUP1 SLOAD PUSH2 0x20CD SWAP1 PUSH2 0x602F JUMP JUMPDEST DUP1 ISZERO PUSH2 0x2118 JUMPI DUP1 PUSH1 0x1F LT PUSH2 0x20EF JUMPI PUSH2 0x100 DUP1 DUP4 SLOAD DIV MUL DUP4 MSTORE SWAP2 PUSH1 0x20 ADD SWAP2 PUSH2 0x2118 JUMP JUMPDEST DUP3 ADD SWAP2 SWAP1 PUSH0 MSTORE PUSH1 0x20 PUSH0 KECCAK256 SWAP1 JUMPDEST DUP2 SLOAD DUP2 MSTORE SWAP1 PUSH1 0x1 ADD SWAP1 PUSH1 0x20 ADD DUP1 DUP4 GT PUSH2 0x20FB JUMPI DUP3 SWAP1 SUB PUSH1 0x1F AND DUP3 ADD SWAP2 JUMPDEST POP POP POP POP POP DUP2 MSTORE PUSH1 0x20 ADD PUSH1 0x3 DUP3 ADD SLOAD DUP2 MSTORE PUSH1 0x20 ADD PUSH1 0x4 DUP3 ADD SLOAD DUP2 MSTORE PUSH1 0x20 ADD PUSH1 0x5 DUP3 ADD SLOAD DUP2 MSTORE PUSH1 0x20 ADD PUSH1 0x6 DUP3 ADD SLOAD DUP2 MSTORE PUSH1 0x20 ADD PUSH1 0x7 DUP3 ADD PUSH0 SWAP1 SLOAD SWAP1 PUSH2 0x100 EXP SWAP1 DIV PUSH20 0xFFFFFFFFFFFFFFFFFFFFFFFFFFFFFFFFFFFFFFFF AND PUSH20 0xFFFFFFFFFFFFFFFFFFFFFFFFFFFFFFFFFFFFFFFF AND PUSH20 0xFFFFFFFFFFFFFFFFFFFFFFFFFFFFFFFFFFFFFFFF AND DUP2 MSTORE PUSH1 0x20 ADD PUSH1 0x7 DUP3 ADD PUSH1 0x14 SWAP1 SLOAD SWAP1 PUSH2 0x100 EXP SWAP1 DIV PUSH1 0xFF AND ISZERO ISZERO ISZERO ISZERO DUP2 MSTORE POP POP SWAP1 POP SWAP4 POP SWAP4 POP SWAP4 POP SWAP4 POP SWAP2 SWAP4 POP SWAP2 SWAP4 JUMP JUMPDEST PUSH0 DUP1 PUSH1 0x7 PUSH1 0x3 PUSH2 0x100 EXP DUP2 SLOAD DUP2 PUSH1 0xFF MUL NOT AND SWAP1 DUP4 ISZERO ISZERO MUL OR SWAP1 SSTORE POP PUSH0 PUSH1 0x1 SWAP1 POP JUMPDEST PUSH1 0x2 SLOAD DUP2 GT PUSH2 0x2286 JUMPI PUSH1 0xA PUSH0 DUP3 DUP2 MSTORE PUSH1 0x20 ADD SWAP1 DUP2 MSTORE PUSH1 0x20 ADD PUSH0 KECCAK256 PUSH0 SWAP1 SLOAD SWAP1 PUSH2 0x100 EXP SWAP1 DIV PUSH20 0xFFFFFFFFFFFFFFFFFFFFFFFFFFFFFFFFFFFFFFFF AND PUSH20 0xFFFFFFFFFFFFFFFFFFFFFFFFFFFFFFFFFFFFFFFF AND DUP4 PUSH20 0xFFFFFFFFFFFFFFFFFFFFFFFFFFFFFFFFFFFFFFFF AND SUB PUSH2 0x2273 JUMPI PUSH1 0x1 PUSH1 0x7 PUSH1 0x3 PUSH2 0x100 EXP DUP2 SLOAD DUP2 PUSH1 0xFF MUL NOT AND SWAP1 DUP4 ISZERO ISZERO MUL OR SWAP1 SSTORE POP JUMPDEST DUP1 DUP1 PUSH2 0x227E SWAP1 PUSH2 0x642B JUMP JUMPDEST SWAP2 POP POP PUSH2 0x21EB JUMP JUMPDEST POP PUSH1 0x7 PUSH1 0x3 SWAP1 SLOAD SWAP1 PUSH2 0x100 EXP SWAP1 DIV PUSH1 0xFF AND SWAP1 POP SWAP2 SWAP1 POP JUMP JUMPDEST PUSH0 DUP1 PUSH1 0x1 ISZERO ISZERO PUSH2 0x22AD CALLER PUSH2 0x463D JUMP JUMPDEST ISZERO ISZERO EQ PUSH2 0x22EF JUMPI PUSH1 0x40 MLOAD PUSH32 0x8C379A000000000000000000000000000000000000000000000000000000000 DUP2 MSTORE PUSH1 0x4 ADD PUSH2 0x22E6 SWAP1 PUSH2 0x64BC JUMP JUMPDEST PUSH1 0x40 MLOAD DUP1 SWAP2 SUB SWAP1 REVERT JUMPDEST PUSH1 0x1 ISZERO ISZERO PUSH1 0xD PUSH0 CALLER PUSH20 0xFFFFFFFFFFFFFFFFFFFFFFFFFFFFFFFFFFFFFFFF AND PUSH20 0xFFFFFFFFFFFFFFFFFFFFFFFFFFFFFFFFFFFFFFFF AND DUP2 MSTORE PUSH1 0x20 ADD SWAP1 DUP2 MSTORE PUSH1 0x20 ADD PUSH0 KECCAK256 PUSH1 0x3 ADD PUSH1 0x4 SWAP1 SLOAD SWAP1 PUSH2 0x100 EXP SWAP1 DIV PUSH1 0xFF AND ISZERO ISZERO EQ PUSH2 0x2383 JUMPI PUSH1 0x40 MLOAD PUSH32 0x8C379A000000000000000000000000000000000000000000000000000000000 DUP2 MSTORE PUSH1 0x4 ADD PUSH2 0x237A SWAP1 PUSH2 0x654A JUMP JUMPDEST PUSH1 0x40 MLOAD DUP1 SWAP2 SUB SWAP1 REVERT JUMPDEST PUSH1 0x15 PUSH0 CALLER PUSH20 0xFFFFFFFFFFFFFFFFFFFFFFFFFFFFFFFFFFFFFFFF AND PUSH20 0xFFFFFFFFFFFFFFFFFFFFFFFFFFFFFFFFFFFFFFFF AND DUP2 MSTORE PUSH1 0x20 ADD SWAP1 DUP2 MSTORE PUSH1 0x20 ADD PUSH0 KECCAK256 PUSH0 DUP2 SLOAD DUP1 SWAP3 SWAP2 SWAP1 PUSH2 0x23D0 SWAP1 PUSH2 0x642B JUMP JUMPDEST SWAP2 SWAP1 POP SSTORE POP PUSH2 0x2400 CALLER PUSH1 0x12 PUSH0 SWAP1 SLOAD SWAP1 PUSH2 0x100 EXP SWAP1 DIV PUSH20 0xFFFFFFFFFFFFFFFFFFFFFFFFFFFFFFFFFFFFFFFF AND PUSH2 0x46B7 JUMP JUMPDEST PUSH1 0x13 DUP2 SWAP1 SSTORE POP PUSH1 0x13 SLOAD PUSH1 0x16 PUSH0 CALLER PUSH20 0xFFFFFFFFFFFFFFFFFFFFFFFFFFFFFFFFFFFFFFFF AND PUSH20 0xFFFFFFFFFFFFFFFFFFFFFFFFFFFFFFFFFFFFFFFF AND DUP2 MSTORE PUSH1 0x20 ADD SWAP1 DUP2 MSTORE PUSH1 0x20 ADD PUSH0 KECCAK256 PUSH0 PUSH1 0x15 PUSH0 CALLER PUSH20 0xFFFFFFFFFFFFFFFFFFFFFFFFFFFFFFFFFFFFFFFF AND PUSH20 0xFFFFFFFFFFFFFFFFFFFFFFFFFFFFFFFFFFFFFFFF AND DUP2 MSTORE PUSH1 0x20 ADD SWAP1 DUP2 MSTORE PUSH1 0x20 ADD PUSH0 KECCAK256 SLOAD DUP2 MSTORE PUSH1 0x20 ADD SWAP1 DUP2 MSTORE PUSH1 0x20 ADD PUSH0 KECCAK256 PUSH1 0x6 ADD DUP2 SWAP1 SSTORE POP DUP10 PUSH1 0x16 PUSH0 CALLER PUSH20 0xFFFFFFFFFFFFFFFFFFFFFFFFFFFFFFFFFFFFFFFF AND PUSH20 0xFFFFFFFFFFFFFFFFFFFFFFFFFFFFFFFFFFFFFFFF AND DUP2 MSTORE PUSH1 0x20 ADD SWAP1 DUP2 MSTORE PUSH1 0x20 ADD PUSH0 KECCAK256 PUSH0 PUSH1 0x15 PUSH0 CALLER PUSH20 0xFFFFFFFFFFFFFFFFFFFFFFFFFFFFFFFFFFFFFFFF AND PUSH20 0xFFFFFFFFFFFFFFFFFFFFFFFFFFFFFFFFFFFFFFFF AND DUP2 MSTORE PUSH1 0x20 ADD SWAP1 DUP2 MSTORE PUSH1 0x20 ADD PUSH0 KECCAK256 SLOAD DUP2 MSTORE PUSH1 0x20 ADD SWAP1 DUP2 MSTORE PUSH1 0x20 ADD PUSH0 KECCAK256 PUSH1 0x1 ADD SWAP1 DUP2 PUSH2 0x2532 SWAP2 SWAP1 PUSH2 0x6705 JUMP JUMPDEST POP DUP9 PUSH1 0x16 PUSH0 CALLER PUSH20 0xFFFFFFFFFFFFFFFFFFFFFFFFFFFFFFFFFFFFFFFF AND PUSH20 0xFFFFFFFFFFFFFFFFFFFFFFFFFFFFFFFFFFFFFFFF AND DUP2 MSTORE PUSH1 0x20 ADD SWAP1 DUP2 MSTORE PUSH1 0x20 ADD PUSH0 KECCAK256 PUSH0 PUSH1 0x15 PUSH0 CALLER PUSH20 0xFFFFFFFFFFFFFFFFFFFFFFFFFFFFFFFFFFFFFFFF AND PUSH20 0xFFFFFFFFFFFFFFFFFFFFFFFFFFFFFFFFFFFFFFFF AND DUP2 MSTORE PUSH1 0x20 ADD SWAP1 DUP2 MSTORE PUSH1 0x20 ADD PUSH0 KECCAK256 SLOAD DUP2 MSTORE PUSH1 0x20 ADD SWAP1 DUP2 MSTORE PUSH1 0x20 ADD PUSH0 KECCAK256 PUSH1 0x3 ADD DUP2 SWAP1 SSTORE POP DUP8 PUSH1 0x16 PUSH0 CALLER PUSH20 0xFFFFFFFFFFFFFFFFFFFFFFFFFFFFFFFFFFFFFFFF AND PUSH20 0xFFFFFFFFFFFFFFFFFFFFFFFFFFFFFFFFFFFFFFFF AND DUP2 MSTORE PUSH1 0x20 ADD SWAP1 DUP2 MSTORE PUSH1 0x20 ADD PUSH0 KECCAK256 PUSH0 PUSH1 0x15 PUSH0 CALLER PUSH20 0xFFFFFFFFFFFFFFFFFFFFFFFFFFFFFFFFFFFFFFFF AND PUSH20 0xFFFFFFFFFFFFFFFFFFFFFFFFFFFFFFFFFFFFFFFF AND DUP2 MSTORE PUSH1 0x20 ADD SWAP1 DUP2 MSTORE PUSH1 0x20 ADD PUSH0 KECCAK256 SLOAD DUP2 MSTORE PUSH1 0x20 ADD SWAP1 DUP2 MSTORE PUSH1 0x20 ADD PUSH0 KECCAK256 PUSH1 0x4 ADD DUP2 SWAP1 SSTORE POP DUP3 PUSH1 0x16 PUSH0 CALLER PUSH20 0xFFFFFFFFFFFFFFFFFFFFFFFFFFFFFFFFFFFFFFFF AND PUSH20 0xFFFFFFFFFFFFFFFFFFFFFFFFFFFFFFFFFFFFFFFF AND DUP2 MSTORE PUSH1 0x20 ADD SWAP1 DUP2 MSTORE PUSH1 0x20 ADD PUSH0 KECCAK256 PUSH0 PUSH1 0x15 PUSH0 CALLER PUSH20 0xFFFFFFFFFFFFFFFFFFFFFFFFFFFFFFFFFFFFFFFF AND PUSH20 0xFFFFFFFFFFFFFFFFFFFFFFFFFFFFFFFFFFFFFFFF AND DUP2 MSTORE PUSH1 0x20 ADD SWAP1 DUP2 MSTORE PUSH1 0x20 ADD PUSH0 KECCAK256 SLOAD DUP2 MSTORE PUSH1 0x20 ADD SWAP1 DUP2 MSTORE PUSH1 0x20 ADD PUSH0 KECCAK256 PUSH1 0x2 ADD DUP2 SWAP1 SSTORE POP CALLER PUSH1 0x16 PUSH0 CALLER PUSH20 0xFFFFFFFFFFFFFFFFFFFFFFFFFFFFFFFFFFFFFFFF AND PUSH20 0xFFFFFFFFFFFFFFFFFFFFFFFFFFFFFFFFFFFFFFFF AND DUP2 MSTORE PUSH1 0x20 ADD SWAP1 DUP2 MSTORE PUSH1 0x20 ADD PUSH0 KECCAK256 PUSH0 PUSH1 0x15 PUSH0 CALLER PUSH20 0xFFFFFFFFFFFFFFFFFFFFFFFFFFFFFFFFFFFFFFFF AND PUSH20 0xFFFFFFFFFFFFFFFFFFFFFFFFFFFFFFFFFFFFFFFF AND DUP2 MSTORE PUSH1 0x20 ADD SWAP1 DUP2 MSTORE PUSH1 0x20 ADD PUSH0 KECCAK256 SLOAD DUP2 MSTORE PUSH1 0x20 ADD SWAP1 DUP2 MSTORE PUSH1 0x20 ADD PUSH0 KECCAK256 PUSH1 0x7 ADD PUSH1 0x2 PUSH2 0x100 EXP DUP2 SLOAD DUP2 PUSH20 0xFFFFFFFFFFFFFFFFFFFFFFFFFFFFFFFFFFFFFFFF MUL NOT AND SWAP1 DUP4 PUSH20 0xFFFFFFFFFFFFFFFFFFFFFFFFFFFFFFFFFFFFFFFF AND MUL OR SWAP1 SSTORE POP CALLER PUSH1 0x16 PUSH0 CALLER PUSH20 0xFFFFFFFFFFFFFFFFFFFFFFFFFFFFFFFFFFFFFFFF AND PUSH20 0xFFFFFFFFFFFFFFFFFFFFFFFFFFFFFFFFFFFFFFFF AND DUP2 MSTORE PUSH1 0x20 ADD SWAP1 DUP2 MSTORE PUSH1 0x20 ADD PUSH0 KECCAK256 PUSH0 PUSH1 0x15 PUSH0 CALLER PUSH20 0xFFFFFFFFFFFFFFFFFFFFFFFFFFFFFFFFFFFFFFFF AND PUSH20 0xFFFFFFFFFFFFFFFFFFFFFFFFFFFFFFFFFFFFFFFF AND DUP2 MSTORE PUSH1 0x20 ADD SWAP1 DUP2 MSTORE PUSH1 0x20 ADD PUSH0 KECCAK256 SLOAD DUP2 MSTORE PUSH1 0x20 ADD SWAP1 DUP2 MSTORE PUSH1 0x20 ADD PUSH0 KECCAK256 PUSH1 0x8 ADD PUSH0 PUSH2 0x100 EXP DUP2 SLOAD DUP2 PUSH20 0xFFFFFFFFFFFFFFFFFFFFFFFFFFFFFFFFFFFFFFFF MUL NOT AND SWAP1 DUP4 PUSH20 0xFFFFFFFFFFFFFFFFFFFFFFFFFFFFFFFFFFFFFFFF AND MUL OR SWAP1 SSTORE POP DUP10 PUSH1 0x14 PUSH0 PUSH1 0x13 SLOAD DUP2 MSTORE PUSH1 0x20 ADD SWAP1 DUP2 MSTORE PUSH1 0x20 ADD PUSH0 KECCAK256 PUSH1 0x1 ADD SWAP1 DUP2 PUSH2 0x289E SWAP2 SWAP1 PUSH2 0x6705 JUMP JUMPDEST POP DUP9 PUSH1 0x14 PUSH0 PUSH1 0x13 SLOAD DUP2 MSTORE PUSH1 0x20 ADD SWAP1 DUP2 MSTORE PUSH1 0x20 ADD PUSH0 KECCAK256 PUSH1 0x3 ADD DUP2 SWAP1 SSTORE POP DUP8 PUSH1 0x14 PUSH0 PUSH1 0x13 SLOAD DUP2 MSTORE PUSH1 0x20 ADD SWAP1 DUP2 MSTORE PUSH1 0x20 ADD PUSH0 KECCAK256 PUSH1 0x4 ADD DUP2 SWAP1 SSTORE POP DUP3 PUSH1 0x14 PUSH0 PUSH1 0x13 SLOAD DUP2 MSTORE PUSH1 0x20 ADD SWAP1 DUP2 MSTORE PUSH1 0x20 ADD PUSH0 KECCAK256 PUSH1 0x2 ADD DUP2 SWAP1 SSTORE POP PUSH1 0x13 SLOAD PUSH1 0x14 PUSH0 PUSH1 0x13 SLOAD DUP2 MSTORE PUSH1 0x20 ADD SWAP1 DUP2 MSTORE PUSH1 0x20 ADD PUSH0 KECCAK256 PUSH1 0x6 ADD DUP2 SWAP1 SSTORE POP CALLER PUSH1 0x14 PUSH0 PUSH1 0x13 SLOAD DUP2 MSTORE PUSH1 0x20 ADD SWAP1 DUP2 MSTORE PUSH1 0x20 ADD PUSH0 KECCAK256 PUSH1 0x7 ADD PUSH1 0x2 PUSH2 0x100 EXP DUP2 SLOAD DUP2 PUSH20 0xFFFFFFFFFFFFFFFFFFFFFFFFFFFFFFFFFFFFFFFF MUL NOT AND SWAP1 DUP4 PUSH20 0xFFFFFFFFFFFFFFFFFFFFFFFFFFFFFFFFFFFFFFFF AND MUL OR SWAP1 SSTORE POP PUSH1 0x13 SLOAD PUSH1 0x15 PUSH0 CALLER PUSH20 0xFFFFFFFFFFFFFFFFFFFFFFFFFFFFFFFFFFFFFFFF AND PUSH20 0xFFFFFFFFFFFFFFFFFFFFFFFFFFFFFFFFFFFFFFFF AND DUP2 MSTORE PUSH1 0x20 ADD SWAP1 DUP2 MSTORE PUSH1 0x20 ADD PUSH0 KECCAK256 SLOAD SWAP2 POP SWAP2 POP SWAP9 POP SWAP9 SWAP7 POP POP POP POP POP POP POP JUMP JUMPDEST PUSH1 0x12 PUSH0 SWAP1 SLOAD SWAP1 PUSH2 0x100 EXP SWAP1 DIV PUSH20 0xFFFFFFFFFFFFFFFFFFFFFFFFFFFFFFFFFFFFFFFF AND PUSH20 0xFFFFFFFFFFFFFFFFFFFFFFFFFFFFFFFFFFFFFFFF AND CALLER PUSH20 0xFFFFFFFFFFFFFFFFFFFFFFFFFFFFFFFFFFFFFFFF AND EQ PUSH2 0x2A43 JUMPI PUSH1 0x40 MLOAD PUSH32 0x8C379A000000000000000000000000000000000000000000000000000000000 DUP2 MSTORE PUSH1 0x4 ADD PUSH2 0x2A3A SWAP1 PUSH2 0x6267 JUMP JUMPDEST PUSH1 0x40 MLOAD DUP1 SWAP2 SUB SWAP1 REVERT JUMPDEST DUP9 PUSH1 0xA PUSH0 PUSH1 0x2 SLOAD DUP2 MSTORE PUSH1 0x20 ADD SWAP1 DUP2 MSTORE PUSH1 0x20 ADD PUSH0 KECCAK256 PUSH0 PUSH2 0x100 EXP DUP2 SLOAD DUP2 PUSH20 0xFFFFFFFFFFFFFFFFFFFFFFFFFFFFFFFFFFFFFFFF MUL NOT AND SWAP1 DUP4 PUSH20 0xFFFFFFFFFFFFFFFFFFFFFFFFFFFFFFFFFFFFFFFF AND MUL OR SWAP1 SSTORE POP PUSH1 0x40 MLOAD DUP1 PUSH2 0x120 ADD PUSH1 0x40 MSTORE DUP1 DUP11 PUSH20 0xFFFFFFFFFFFFFFFFFFFFFFFFFFFFFFFFFFFFFFFF AND DUP2 MSTORE PUSH1 0x20 ADD DUP9 DUP2 MSTORE PUSH1 0x20 ADD DUP8 DUP2 MSTORE PUSH1 0x20 ADD DUP7 DUP2 MSTORE PUSH1 0x20 ADD DUP6 DUP2 MSTORE PUSH1 0x20 ADD DUP5 DUP2 MSTORE PUSH1 0x20 ADD DUP4 DUP2 MSTORE PUSH1 0x20 ADD DUP10 PUSH20 0xFFFFFFFFFFFFFFFFFFFFFFFFFFFFFFFFFFFFFFFF AND DUP2 MSTORE PUSH1 0x20 ADD DUP3 ISZERO ISZERO DUP2 MSTORE POP PUSH1 0xF PUSH0 DUP12 PUSH20 0xFFFFFFFFFFFFFFFFFFFFFFFFFFFFFFFFFFFFFFFF AND PUSH20 0xFFFFFFFFFFFFFFFFFFFFFFFFFFFFFFFFFFFFFFFF AND DUP2 MSTORE PUSH1 0x20 ADD SWAP1 DUP2 MSTORE PUSH1 0x20 ADD PUSH0 KECCAK256 PUSH0 DUP3 ADD MLOAD DUP2 PUSH0 ADD PUSH0 PUSH2 0x100 EXP DUP2 SLOAD DUP2 PUSH20 0xFFFFFFFFFFFFFFFFFFFFFFFFFFFFFFFFFFFFFFFF MUL NOT AND SWAP1 DUP4 PUSH20 0xFFFFFFFFFFFFFFFFFFFFFFFFFFFFFFFFFFFFFFFF AND MUL OR SWAP1 SSTORE POP PUSH1 0x20 DUP3 ADD MLOAD DUP2 PUSH1 0x1 ADD SWAP1 DUP2 PUSH2 0x2B98 SWAP2 SWAP1 PUSH2 0x6705 JUMP JUMPDEST POP PUSH1 0x40 DUP3 ADD MLOAD DUP2 PUSH1 0x2 ADD SWAP1 DUP2 PUSH2 0x2BAE SWAP2 SWAP1 PUSH2 0x6705 JUMP JUMPDEST POP PUSH1 0x60 DUP3 ADD MLOAD DUP2 PUSH1 0x3 ADD SSTORE PUSH1 0x80 DUP3 ADD MLOAD DUP2 PUSH1 0x4 ADD SSTORE PUSH1 0xA0 DUP3 ADD MLOAD DUP2 PUSH1 0x5 ADD SSTORE PUSH1 0xC0 DUP3 ADD MLOAD DUP2 PUSH1 0x6 ADD SSTORE PUSH1 0xE0 DUP3 ADD MLOAD DUP2 PUSH1 0x7 ADD PUSH0 PUSH2 0x100 EXP DUP2 SLOAD DUP2 PUSH20 0xFFFFFFFFFFFFFFFFFFFFFFFFFFFFFFFFFFFFFFFF MUL NOT AND SWAP1 DUP4 PUSH20 0xFFFFFFFFFFFFFFFFFFFFFFFFFFFFFFFFFFFFFFFF AND MUL OR SWAP1 SSTORE POP PUSH2 0x100 DUP3 ADD MLOAD DUP2 PUSH1 0x7 ADD PUSH1 0x14 PUSH2 0x100 EXP DUP2 SLOAD DUP2 PUSH1 0xFF MUL NOT AND SWAP1 DUP4 ISZERO ISZERO MUL OR SWAP1 SSTORE POP SWAP1 POP POP PUSH1 0x2 PUSH0 DUP2 SLOAD DUP1 SWAP3 SWAP2 SWAP1 PUSH2 0x2C53 SWAP1 PUSH2 0x642B JUMP JUMPDEST SWAP2 SWAP1 POP SSTORE POP POP POP POP POP POP POP POP POP POP JUMP JUMPDEST PUSH1 0x4 SLOAD DUP2 JUMP JUMPDEST PUSH1 0x9 PUSH1 0x20 MSTORE DUP1 PUSH0 MSTORE PUSH1 0x40 PUSH0 KECCAK256 PUSH0 SWAP2 POP SLOAD SWAP1 PUSH2 0x100 EXP SWAP1 DIV PUSH20 0xFFFFFFFFFFFFFFFFFFFFFFFFFFFFFFFFFFFFFFFF AND DUP2 JUMP JUMPDEST PUSH1 0xF PUSH1 0x20 MSTORE DUP1 PUSH0 MSTORE PUSH1 0x40 PUSH0 KECCAK256 PUSH0 SWAP2 POP SWAP1 POP DUP1 PUSH0 ADD PUSH0 SWAP1 SLOAD SWAP1 PUSH2 0x100 EXP SWAP1 DIV PUSH20 0xFFFFFFFFFFFFFFFFFFFFFFFFFFFFFFFFFFFFFFFF AND SWAP1 DUP1 PUSH1 0x1 ADD DUP1 SLOAD PUSH2 0x2CDD SWAP1 PUSH2 0x602F JUMP JUMPDEST DUP1 PUSH1 0x1F ADD PUSH1 0x20 DUP1 SWAP2 DIV MUL PUSH1 0x20 ADD PUSH1 0x40 MLOAD SWAP1 DUP2 ADD PUSH1 0x40 MSTORE DUP1 SWAP3 SWAP2 SWAP1 DUP2 DUP2 MSTORE PUSH1 0x20 ADD DUP3 DUP1 SLOAD PUSH2 0x2D09 SWAP1 PUSH2 0x602F JUMP JUMPDEST DUP1 ISZERO PUSH2 0x2D54 JUMPI DUP1 PUSH1 0x1F LT PUSH2 0x2D2B JUMPI PUSH2 0x100 DUP1 DUP4 SLOAD DIV MUL DUP4 MSTORE SWAP2 PUSH1 0x20 ADD SWAP2 PUSH2 0x2D54 JUMP JUMPDEST DUP3 ADD SWAP2 SWAP1 PUSH0 MSTORE PUSH1 0x20 PUSH0 KECCAK256 SWAP1 JUMPDEST DUP2 SLOAD DUP2 MSTORE SWAP1 PUSH1 0x1 ADD SWAP1 PUSH1 0x20 ADD DUP1 DUP4 GT PUSH2 0x2D37 JUMPI DUP3 SWAP1 SUB PUSH1 0x1F AND DUP3 ADD SWAP2 JUMPDEST POP POP POP POP POP SWAP1 DUP1 PUSH1 0x2 ADD DUP1 SLOAD PUSH2 0x2D69 SWAP1 PUSH2 0x602F JUMP JUMPDEST DUP1 PUSH1 0x1F ADD PUSH1 0x20 DUP1 SWAP2 DIV MUL PUSH1 0x20 ADD PUSH1 0x40 MLOAD SWAP1 DUP2 ADD PUSH1 0x40 MSTORE DUP1 SWAP3 SWAP2 SWAP1 DUP2 DUP2 MSTORE PUSH1 0x20 ADD DUP3 DUP1 SLOAD PUSH2 0x2D95 SWAP1 PUSH2 0x602F JUMP JUMPDEST DUP1 ISZERO PUSH2 0x2DE0 JUMPI DUP1 PUSH1 0x1F LT PUSH2 0x2DB7 JUMPI PUSH2 0x100 DUP1 DUP4 SLOAD DIV MUL DUP4 MSTORE SWAP2 PUSH1 0x20 ADD SWAP2 PUSH2 0x2DE0 JUMP JUMPDEST DUP3 ADD SWAP2 SWAP1 PUSH0 MSTORE PUSH1 0x20 PUSH0 KECCAK256 SWAP1 JUMPDEST DUP2 SLOAD DUP2 MSTORE SWAP1 PUSH1 0x1 ADD SWAP1 PUSH1 0x20 ADD DUP1 DUP4 GT PUSH2 0x2DC3 JUMPI DUP3 SWAP1 SUB PUSH1 0x1F AND DUP3 ADD SWAP2 JUMPDEST POP POP POP POP POP SWAP1 DUP1 PUSH1 0x3 ADD SLOAD SWAP1 DUP1 PUSH1 0x4 ADD SLOAD SWAP1 DUP1 PUSH1 0x5 ADD SLOAD SWAP1 DUP1 PUSH1 0x6 ADD SLOAD SWAP1 DUP1 PUSH1 0x7 ADD PUSH0 SWAP1 SLOAD SWAP1 PUSH2 0x100 EXP SWAP1 DIV PUSH20 0xFFFFFFFFFFFFFFFFFFFFFFFFFFFFFFFFFFFFFFFF AND SWAP1 DUP1 PUSH1 0x7 ADD PUSH1 0x14 SWAP1 SLOAD SWAP1 PUSH2 0x100 EXP SWAP1 DIV PUSH1 0xFF AND SWAP1 POP DUP10 JUMP JUMPDEST PUSH1 0x3 SLOAD DUP2 JUMP JUMPDEST PUSH1 0x12 PUSH0 SWAP1 SLOAD SWAP1 PUSH2 0x100 EXP SWAP1 DIV PUSH20 0xFFFFFFFFFFFFFFFFFFFFFFFFFFFFFFFFFFFFFFFF AND PUSH20 0xFFFFFFFFFFFFFFFFFFFFFFFFFFFFFFFFFFFFFFFF AND CALLER PUSH20 0xFFFFFFFFFFFFFFFFFFFFFFFFFFFFFFFFFFFFFFFF AND EQ PUSH2 0x2ECF JUMPI PUSH1 0x40 MLOAD PUSH32 0x8C379A000000000000000000000000000000000000000000000000000000000 DUP2 MSTORE PUSH1 0x4 ADD PUSH2 0x2EC6 SWAP1 PUSH2 0x6267 JUMP JUMPDEST PUSH1 0x40 MLOAD DUP1 SWAP2 SUB SWAP1 REVERT JUMPDEST DUP7 PUSH1 0x8 PUSH0 DUP1 SLOAD DUP2 MSTORE PUSH1 0x20 ADD SWAP1 DUP2 MSTORE PUSH1 0x20 ADD PUSH0 KECCAK256 PUSH0 PUSH2 0x100 EXP DUP2 SLOAD DUP2 PUSH20 0xFFFFFFFFFFFFFFFFFFFFFFFFFFFFFFFFFFFFFFFF MUL NOT AND SWAP1 DUP4 PUSH20 0xFFFFFFFFFFFFFFFFFFFFFFFFFFFFFFFFFFFFFFFF AND MUL OR SWAP1 SSTORE POP PUSH1 0x40 MLOAD DUP1 PUSH1 0xA0 ADD PUSH1 0x40 MSTORE DUP1 DUP9 PUSH20 0xFFFFFFFFFFFFFFFFFFFFFFFFFFFFFFFFFFFFFFFF AND DUP2 MSTORE PUSH1 0x20 ADD DUP8 DUP8 DUP1 DUP1 PUSH1 0x1F ADD PUSH1 0x20 DUP1 SWAP2 DIV MUL PUSH1 0x20 ADD PUSH1 0x40 MLOAD SWAP1 DUP2 ADD PUSH1 0x40 MSTORE DUP1 SWAP4 SWAP3 SWAP2 SWAP1 DUP2 DUP2 MSTORE PUSH1 0x20 ADD DUP4 DUP4 DUP1 DUP3 DUP5 CALLDATACOPY PUSH0 DUP2 DUP5 ADD MSTORE PUSH1 0x1F NOT PUSH1 0x1F DUP3 ADD AND SWAP1 POP DUP1 DUP4 ADD SWAP3 POP POP POP POP POP POP POP DUP2 MSTORE PUSH1 0x20 ADD DUP6 DUP6 DUP1 DUP1 PUSH1 0x1F ADD PUSH1 0x20 DUP1 SWAP2 DIV MUL PUSH1 0x20 ADD PUSH1 0x40 MLOAD SWAP1 DUP2 ADD PUSH1 0x40 MSTORE DUP1 SWAP4 SWAP3 SWAP2 SWAP1 DUP2 DUP2 MSTORE PUSH1 0x20 ADD DUP4 DUP4 DUP1 DUP3 DUP5 CALLDATACOPY PUSH0 DUP2 DUP5 ADD MSTORE PUSH1 0x1F NOT PUSH1 0x1F DUP3 ADD AND SWAP1 POP DUP1 DUP4 ADD SWAP3 POP POP POP POP POP POP POP DUP2 MSTORE PUSH1 0x20 ADD DUP4 PUSH4 0xFFFFFFFF AND DUP2 MSTORE PUSH1 0x20 ADD DUP3 ISZERO ISZERO DUP2 MSTORE POP PUSH1 0xD PUSH0 DUP10 PUSH20 0xFFFFFFFFFFFFFFFFFFFFFFFFFFFFFFFFFFFFFFFF AND PUSH20 0xFFFFFFFFFFFFFFFFFFFFFFFFFFFFFFFFFFFFFFFF AND DUP2 MSTORE PUSH1 0x20 ADD SWAP1 DUP2 MSTORE PUSH1 0x20 ADD PUSH0 KECCAK256 PUSH0 DUP3 ADD MLOAD DUP2 PUSH0 ADD PUSH0 PUSH2 0x100 EXP DUP2 SLOAD DUP2 PUSH20 0xFFFFFFFFFFFFFFFFFFFFFFFFFFFFFFFFFFFFFFFF MUL NOT AND SWAP1 DUP4 PUSH20 0xFFFFFFFFFFFFFFFFFFFFFFFFFFFFFFFFFFFFFFFF AND MUL OR SWAP1 SSTORE POP PUSH1 0x20 DUP3 ADD MLOAD DUP2 PUSH1 0x1 ADD SWAP1 DUP2 PUSH2 0x3080 SWAP2 SWAP1 PUSH2 0x6705 JUMP JUMPDEST POP PUSH1 0x40 DUP3 ADD MLOAD DUP2 PUSH1 0x2 ADD SWAP1 DUP2 PUSH2 0x3096 SWAP2 SWAP1 PUSH2 0x6705 JUMP JUMPDEST POP PUSH1 0x60 DUP3 ADD MLOAD DUP2 PUSH1 0x3 ADD PUSH0 PUSH2 0x100 EXP DUP2 SLOAD DUP2 PUSH4 0xFFFFFFFF MUL NOT AND SWAP1 DUP4 PUSH4 0xFFFFFFFF AND MUL OR SWAP1 SSTORE POP PUSH1 0x80 DUP3 ADD MLOAD DUP2 PUSH1 0x3 ADD PUSH1 0x4 PUSH2 0x100 EXP DUP2 SLOAD DUP2 PUSH1 0xFF MUL NOT AND SWAP1 DUP4 ISZERO ISZERO MUL OR SWAP1 SSTORE POP SWAP1 POP POP PUSH0 DUP1 DUP2 SLOAD DUP1 SWAP3 SWAP2 SWAP1 PUSH2 0x30F1 SWAP1 PUSH2 0x642B JUMP JUMPDEST SWAP2 SWAP1 POP SSTORE POP POP POP POP POP POP POP POP JUMP JUMPDEST PUSH1 0x1 SLOAD DUP2 JUMP JUMPDEST PUSH1 0xC PUSH1 0x20 MSTORE DUP1 PUSH0 MSTORE PUSH1 0x40 PUSH0 KECCAK256 PUSH0 SWAP2 POP SLOAD SWAP1 PUSH2 0x100 EXP SWAP1 DIV PUSH20 0xFFFFFFFFFFFFFFFFFFFFFFFFFFFFFFFFFFFFFFFF AND DUP2 JUMP JUMPDEST PUSH1 0xE PUSH1 0x20 MSTORE DUP1 PUSH0 MSTORE PUSH1 0x40 PUSH0 KECCAK256 PUSH0 SWAP2 POP SWAP1 POP DUP1 PUSH0 ADD PUSH0 SWAP1 SLOAD SWAP1 PUSH2 0x100 EXP SWAP1 DIV PUSH20 0xFFFFFFFFFFFFFFFFFFFFFFFFFFFFFFFFFFFFFFFF AND SWAP1 DUP1 PUSH1 0x1 ADD DUP1 SLOAD PUSH2 0x3179 SWAP1 PUSH2 0x602F JUMP JUMPDEST DUP1 PUSH1 0x1F ADD PUSH1 0x20 DUP1 SWAP2 DIV MUL PUSH1 0x20 ADD PUSH1 0x40 MLOAD SWAP1 DUP2 ADD PUSH1 0x40 MSTORE DUP1 SWAP3 SWAP2 SWAP1 DUP2 DUP2 MSTORE PUSH1 0x20 ADD DUP3 DUP1 SLOAD PUSH2 0x31A5 SWAP1 PUSH2 0x602F JUMP JUMPDEST DUP1 ISZERO PUSH2 0x31F0 JUMPI DUP1 PUSH1 0x1F LT PUSH2 0x31C7 JUMPI PUSH2 0x100 DUP1 DUP4 SLOAD DIV MUL DUP4 MSTORE SWAP2 PUSH1 0x20 ADD SWAP2 PUSH2 0x31F0 JUMP JUMPDEST DUP3 ADD SWAP2 SWAP1 PUSH0 MSTORE PUSH1 0x20 PUSH0 KECCAK256 SWAP1 JUMPDEST DUP2 SLOAD DUP2 MSTORE SWAP1 PUSH1 0x1 ADD SWAP1 PUSH1 0x20 ADD DUP1 DUP4 GT PUSH2 0x31D3 JUMPI DUP3 SWAP1 SUB PUSH1 0x1F AND DUP3 ADD SWAP2 JUMPDEST POP POP POP POP POP SWAP1 DUP1 PUSH1 0x2 ADD DUP1 SLOAD PUSH2 0x3205 SWAP1 PUSH2 0x602F JUMP JUMPDEST DUP1 PUSH1 0x1F ADD PUSH1 0x20 DUP1 SWAP2 DIV MUL PUSH1 0x20 ADD PUSH1 0x40 MLOAD SWAP1 DUP2 ADD PUSH1 0x40 MSTORE DUP1 SWAP3 SWAP2 SWAP1 DUP2 DUP2 MSTORE PUSH1 0x20 ADD DUP3 DUP1 SLOAD PUSH2 0x3231 SWAP1 PUSH2 0x602F JUMP JUMPDEST DUP1 ISZERO PUSH2 0x327C JUMPI DUP1 PUSH1 0x1F LT PUSH2 0x3253 JUMPI PUSH2 0x100 DUP1 DUP4 SLOAD DIV MUL DUP4 MSTORE SWAP2 PUSH1 0x20 ADD SWAP2 PUSH2 0x327C JUMP JUMPDEST DUP3 ADD SWAP2 SWAP1 PUSH0 MSTORE PUSH1 0x20 PUSH0 KECCAK256 SWAP1 JUMPDEST DUP2 SLOAD DUP2 MSTORE SWAP1 PUSH1 0x1 ADD SWAP1 PUSH1 0x20 ADD DUP1 DUP4 GT PUSH2 0x325F JUMPI DUP3 SWAP1 SUB PUSH1 0x1F AND DUP3 ADD SWAP2 JUMPDEST POP POP POP POP POP SWAP1 DUP1 PUSH1 0x3 ADD PUSH0 SWAP1 SLOAD SWAP1 PUSH2 0x100 EXP SWAP1 DIV PUSH4 0xFFFFFFFF AND SWAP1 DUP1 PUSH1 0x3 ADD PUSH1 0x4 SWAP1 SLOAD SWAP1 PUSH2 0x100 EXP SWAP1 DIV PUSH4 0xFFFFFFFF AND SWAP1 POP DUP6 JUMP JUMPDEST PUSH0 SLOAD DUP2 JUMP JUMPDEST PUSH1 0x16 PUSH1 0x20 MSTORE DUP2 PUSH0 MSTORE PUSH1 0x40 PUSH0 KECCAK256 PUSH1 0x20 MSTORE DUP1 PUSH0 MSTORE PUSH1 0x40 PUSH0 KECCAK256 PUSH0 SWAP2 POP SWAP2 POP POP DUP1 PUSH0 ADD PUSH0 SWAP1 SLOAD SWAP1 PUSH2 0x100 EXP SWAP1 DIV PUSH20 0xFFFFFFFFFFFFFFFFFFFFFFFFFFFFFFFFFFFFFFFF AND SWAP1 DUP1 PUSH1 0x1 ADD DUP1 SLOAD PUSH2 0x3305 SWAP1 PUSH2 0x602F JUMP JUMPDEST DUP1 PUSH1 0x1F ADD PUSH1 0x20 DUP1 SWAP2 DIV MUL PUSH1 0x20 ADD PUSH1 0x40 MLOAD SWAP1 DUP2 ADD PUSH1 0x40 MSTORE DUP1 SWAP3 SWAP2 SWAP1 DUP2 DUP2 MSTORE PUSH1 0x20 ADD DUP3 DUP1 SLOAD PUSH2 0x3331 SWAP1 PUSH2 0x602F JUMP JUMPDEST DUP1 ISZERO PUSH2 0x337C JUMPI DUP1 PUSH1 0x1F LT PUSH2 0x3353 JUMPI PUSH2 0x100 DUP1 DUP4 SLOAD DIV MUL DUP4 MSTORE SWAP2 PUSH1 0x20 ADD SWAP2 PUSH2 0x337C JUMP JUMPDEST DUP3 ADD SWAP2 SWAP1 PUSH0 MSTORE PUSH1 0x20 PUSH0 KECCAK256 SWAP1 JUMPDEST DUP2 SLOAD DUP2 MSTORE SWAP1 PUSH1 0x1 ADD SWAP1 PUSH1 0x20 ADD DUP1 DUP4 GT PUSH2 0x335F JUMPI DUP3 SWAP1 SUB PUSH1 0x1F AND DUP3 ADD SWAP2 JUMPDEST POP POP POP POP POP SWAP1 DUP1 PUSH1 0x2 ADD SLOAD SWAP1 DUP1 PUSH1 0x3 ADD SLOAD SWAP1 DUP1 PUSH1 0x4 ADD SLOAD SWAP1 DUP1 PUSH1 0x5 ADD SLOAD SWAP1 DUP1 PUSH1 0x6 ADD SLOAD SWAP1 DUP1 PUSH1 0x7 ADD PUSH0 SWAP1 SLOAD SWAP1 PUSH2 0x100 EXP SWAP1 DIV PUSH1 0xFF AND SWAP1 DUP1 PUSH1 0x7 ADD PUSH1 0x1 SWAP1 SLOAD SWAP1 PUSH2 0x100 EXP SWAP1 DIV PUSH1 0xFF AND SWAP1 DUP1 PUSH1 0x7 ADD PUSH1 0x2 SWAP1 SLOAD SWAP1 PUSH2 0x100 EXP SWAP1 DIV PUSH20 0xFFFFFFFFFFFFFFFFFFFFFFFFFFFFFFFFFFFFFFFF AND SWAP1 DUP1 PUSH1 0x8 ADD PUSH0 SWAP1 SLOAD SWAP1 PUSH2 0x100 EXP SWAP1 DIV PUSH20 0xFFFFFFFFFFFFFFFFFFFFFFFFFFFFFFFFFFFFFFFF AND SWAP1 POP DUP12 JUMP JUMPDEST PUSH1 0x1 ISZERO ISZERO PUSH2 0x3421 CALLER PUSH2 0x3852 JUMP JUMPDEST ISZERO ISZERO EQ PUSH2 0x3463 JUMPI PUSH1 0x40 MLOAD PUSH32 0x8C379A000000000000000000000000000000000000000000000000000000000 DUP2 MSTORE PUSH1 0x4 ADD PUSH2 0x345A SWAP1 PUSH2 0x6844 JUMP JUMPDEST PUSH1 0x40 MLOAD DUP1 SWAP2 SUB SWAP1 REVERT JUMPDEST PUSH0 JUMPDEST DUP7 DUP2 LT ISZERO PUSH2 0x37D4 JUMPI PUSH1 0x1 ISZERO ISZERO PUSH1 0xF PUSH0 CALLER PUSH20 0xFFFFFFFFFFFFFFFFFFFFFFFFFFFFFFFFFFFFFFFF AND PUSH20 0xFFFFFFFFFFFFFFFFFFFFFFFFFFFFFFFFFFFFFFFF AND DUP2 MSTORE PUSH1 0x20 ADD SWAP1 DUP2 MSTORE PUSH1 0x20 ADD PUSH0 KECCAK256 PUSH1 0x7 ADD PUSH1 0x14 SWAP1 SLOAD SWAP1 PUSH2 0x100 EXP SWAP1 DIV PUSH1 0xFF AND ISZERO ISZERO EQ PUSH2 0x3501 JUMPI PUSH1 0x40 MLOAD PUSH32 0x8C379A000000000000000000000000000000000000000000000000000000000 DUP2 MSTORE PUSH1 0x4 ADD PUSH2 0x34F8 SWAP1 PUSH2 0x68D2 JUMP JUMPDEST PUSH1 0x40 MLOAD DUP1 SWAP2 SUB SWAP1 REVERT JUMPDEST PUSH1 0xF PUSH0 CALLER PUSH20 0xFFFFFFFFFFFFFFFFFFFFFFFFFFFFFFFFFFFFFFFF AND PUSH20 0xFFFFFFFFFFFFFFFFFFFFFFFFFFFFFFFFFFFFFFFF AND DUP2 MSTORE PUSH1 0x20 ADD SWAP1 DUP2 MSTORE PUSH1 0x20 ADD PUSH0 KECCAK256 PUSH1 0x5 ADD SLOAD TIMESTAMP GT ISZERO PUSH2 0x3584 JUMPI PUSH1 0x40 MLOAD PUSH32 0x8C379A000000000000000000000000000000000000000000000000000000000 DUP2 MSTORE PUSH1 0x4 ADD PUSH2 0x357B SWAP1 PUSH2 0x6960 JUMP JUMPDEST PUSH1 0x40 MLOAD DUP1 SWAP2 SUB SWAP1 REVERT JUMPDEST PUSH1 0x1 ISZERO ISZERO PUSH1 0x1A PUSH0 DUP9 DUP5 DUP2 MLOAD DUP2 LT PUSH2 0x359E JUMPI PUSH2 0x359D PUSH2 0x697E JUMP JUMPDEST JUMPDEST PUSH1 0x20 MUL PUSH1 0x20 ADD ADD MLOAD DUP2 MSTORE PUSH1 0x20 ADD SWAP1 DUP2 MSTORE PUSH1 0x20 ADD PUSH0 KECCAK256 PUSH1 0x4 ADD PUSH1 0x4 SWAP1 SLOAD SWAP1 PUSH2 0x100 EXP SWAP1 DIV PUSH1 0xFF AND ISZERO ISZERO EQ PUSH2 0x3606 JUMPI PUSH1 0x40 MLOAD PUSH32 0x8C379A000000000000000000000000000000000000000000000000000000000 DUP2 MSTORE PUSH1 0x4 ADD PUSH2 0x35FD SWAP1 PUSH2 0x6A1B JUMP JUMPDEST PUSH1 0x40 MLOAD DUP1 SWAP2 SUB SWAP1 REVERT JUMPDEST PUSH0 ISZERO ISZERO PUSH1 0x19 PUSH0 DUP9 DUP5 DUP2 MLOAD DUP2 LT PUSH2 0x361F JUMPI PUSH2 0x361E PUSH2 0x697E JUMP JUMPDEST JUMPDEST PUSH1 0x20 MUL PUSH1 0x20 ADD ADD MLOAD DUP2 MSTORE PUSH1 0x20 ADD SWAP1 DUP2 MSTORE PUSH1 0x20 ADD PUSH0 KECCAK256 PUSH1 0x4 ADD PUSH1 0x1 SWAP1 SLOAD SWAP1 PUSH2 0x100 EXP SWAP1 DIV PUSH1 0xFF AND ISZERO ISZERO EQ PUSH2 0x3687 JUMPI PUSH1 0x40 MLOAD PUSH32 0x8C379A000000000000000000000000000000000000000000000000000000000 DUP2 MSTORE PUSH1 0x4 ADD PUSH2 0x367E SWAP1 PUSH2 0x6AA9 JUMP JUMPDEST PUSH1 0x40 MLOAD DUP1 SWAP2 SUB SWAP1 REVERT JUMPDEST PUSH1 0x40 MLOAD DUP1 PUSH1 0xE0 ADD PUSH1 0x40 MSTORE DUP1 DUP7 DUP2 MSTORE PUSH1 0x20 ADD DUP6 DUP2 MSTORE PUSH1 0x20 ADD DUP5 DUP2 MSTORE PUSH1 0x20 ADD TIMESTAMP DUP2 MSTORE PUSH1 0x20 ADD DUP4 ISZERO ISZERO DUP2 MSTORE PUSH1 0x20 ADD PUSH1 0x1 ISZERO ISZERO DUP2 MSTORE PUSH1 0x20 ADD CALLER PUSH20 0xFFFFFFFFFFFFFFFFFFFFFFFFFFFFFFFFFFFFFFFF AND DUP2 MSTORE POP PUSH1 0x19 PUSH0 DUP9 DUP5 DUP2 MLOAD DUP2 LT PUSH2 0x36EB JUMPI PUSH2 0x36EA PUSH2 0x697E JUMP JUMPDEST JUMPDEST PUSH1 0x20 MUL PUSH1 0x20 ADD ADD MLOAD DUP2 MSTORE PUSH1 0x20 ADD SWAP1 DUP2 MSTORE PUSH1 0x20 ADD PUSH0 KECCAK256 PUSH0 DUP3 ADD MLOAD DUP2 PUSH0 ADD SWAP1 DUP2 PUSH2 0x3713 SWAP2 SWAP1 PUSH2 0x6705 JUMP JUMPDEST POP PUSH1 0x20 DUP3 ADD MLOAD DUP2 PUSH1 0x1 ADD SWAP1 DUP2 PUSH2 0x3729 SWAP2 SWAP1 PUSH2 0x6705 JUMP JUMPDEST POP PUSH1 0x40 DUP3 ADD MLOAD DUP2 PUSH1 0x2 ADD SSTORE PUSH1 0x60 DUP3 ADD MLOAD DUP2 PUSH1 0x3 ADD SSTORE PUSH1 0x80 DUP3 ADD MLOAD DUP2 PUSH1 0x4 ADD PUSH0 PUSH2 0x100 EXP DUP2 SLOAD DUP2 PUSH1 0xFF MUL NOT AND SWAP1 DUP4 ISZERO ISZERO MUL OR SWAP1 SSTORE POP PUSH1 0xA0 DUP3 ADD MLOAD DUP2 PUSH1 0x4 ADD PUSH1 0x1 PUSH2 0x100 EXP DUP2 SLOAD DUP2 PUSH1 0xFF MUL NOT AND SWAP1 DUP4 ISZERO ISZERO MUL OR SWAP1 SSTORE POP PUSH1 0xC0 DUP3 ADD MLOAD DUP2 PUSH1 0x4 ADD PUSH1 0x2 PUSH2 0x100 EXP DUP2 SLOAD DUP2 PUSH20 0xFFFFFFFFFFFFFFFFFFFFFFFFFFFFFFFFFFFFFFFF MUL NOT AND SWAP1 DUP4 PUSH20 0xFFFFFFFFFFFFFFFFFFFFFFFFFFFFFFFFFFFFFFFF AND MUL OR SWAP1 SSTORE POP SWAP1 POP POP DUP1 DUP1 PUSH1 0x1 ADD SWAP2 POP POP PUSH2 0x3465 JUMP JUMPDEST POP POP POP POP POP POP POP POP JUMP JUMPDEST PUSH1 0x17 PUSH1 0x20 MSTORE DUP1 PUSH0 MSTORE PUSH1 0x40 PUSH0 KECCAK256 PUSH0 SWAP2 POP SWAP1 POP DUP1 PUSH0 ADD SLOAD SWAP1 DUP1 PUSH1 0x1 ADD SLOAD SWAP1 DUP1 PUSH1 0x2 ADD SLOAD SWAP1 DUP1 PUSH1 0x3 ADD SLOAD SWAP1 DUP1 PUSH1 0x4 ADD SLOAD SWAP1 DUP1 PUSH1 0x5 ADD PUSH0 SWAP1 SLOAD SWAP1 PUSH2 0x100 EXP SWAP1 DIV PUSH1 0xFF AND SWAP1 POP DUP7 JUMP JUMPDEST PUSH1 0x8 PUSH1 0x20 MSTORE DUP1 PUSH0 MSTORE PUSH1 0x40 PUSH0 KECCAK256 PUSH0 SWAP2 POP SLOAD SWAP1 PUSH2 0x100 EXP SWAP1 DIV PUSH20 0xFFFFFFFFFFFFFFFFFFFFFFFFFFFFFFFFFFFFFFFF AND DUP2 JUMP JUMPDEST PUSH0 SWAP2 SWAP1 POP JUMP JUMPDEST PUSH1 0x12 PUSH0 SWAP1 SLOAD SWAP1 PUSH2 0x100 EXP SWAP1 DIV PUSH20 0xFFFFFFFFFFFFFFFFFFFFFFFFFFFFFFFFFFFFFFFF AND PUSH20 0xFFFFFFFFFFFFFFFFFFFFFFFFFFFFFFFFFFFFFFFF AND CALLER PUSH20 0xFFFFFFFFFFFFFFFFFFFFFFFFFFFFFFFFFFFFFFFF AND EQ PUSH2 0x38E7 JUMPI PUSH1 0x40 MLOAD PUSH32 0x8C379A000000000000000000000000000000000000000000000000000000000 DUP2 MSTORE PUSH1 0x4 ADD PUSH2 0x38DE SWAP1 PUSH2 0x6267 JUMP JUMPDEST PUSH1 0x40 MLOAD DUP1 SWAP2 SUB SWAP1 REVERT JUMPDEST DUP11 PUSH1 0xC PUSH0 PUSH1 0x4 SLOAD DUP2 MSTORE PUSH1 0x20 ADD SWAP1 DUP2 MSTORE PUSH1 0x20 ADD PUSH0 KECCAK256 PUSH0 PUSH2 0x100 EXP DUP2 SLOAD DUP2 PUSH20 0xFFFFFFFFFFFFFFFFFFFFFFFFFFFFFFFFFFFFFFFF MUL NOT AND SWAP1 DUP4 PUSH20 0xFFFFFFFFFFFFFFFFFFFFFFFFFFFFFFFFFFFFFFFF AND MUL OR SWAP1 SSTORE POP PUSH1 0x40 MLOAD DUP1 PUSH2 0x160 ADD PUSH1 0x40 MSTORE DUP1 DUP13 PUSH20 0xFFFFFFFFFFFFFFFFFFFFFFFFFFFFFFFFFFFFFFFF AND DUP2 MSTORE PUSH1 0x20 ADD DUP12 DUP2 MSTORE PUSH1 0x20 ADD DUP11 DUP2 MSTORE PUSH1 0x20 ADD DUP10 DUP2 MSTORE PUSH1 0x20 ADD DUP9 DUP2 MSTORE PUSH1 0x20 ADD DUP8 DUP2 MSTORE PUSH1 0x20 ADD DUP7 DUP2 MSTORE PUSH1 0x20 ADD DUP6 ISZERO ISZERO DUP2 MSTORE PUSH1 0x20 ADD DUP5 PUSH20 0xFFFFFFFFFFFFFFFFFFFFFFFFFFFFFFFFFFFFFFFF AND DUP2 MSTORE PUSH1 0x20 ADD DUP4 PUSH20 0xFFFFFFFFFFFFFFFFFFFFFFFFFFFFFFFFFFFFFFFF AND DUP2 MSTORE PUSH1 0x20 ADD DUP3 ISZERO ISZERO DUP2 MSTORE POP PUSH1 0x11 PUSH0 DUP14 PUSH20 0xFFFFFFFFFFFFFFFFFFFFFFFFFFFFFFFFFFFFFFFF AND PUSH20 0xFFFFFFFFFFFFFFFFFFFFFFFFFFFFFFFFFFFFFFFF AND DUP2 MSTORE PUSH1 0x20 ADD SWAP1 DUP2 MSTORE PUSH1 0x20 ADD PUSH0 KECCAK256 PUSH0 DUP3 ADD MLOAD DUP2 PUSH0 ADD PUSH0 PUSH2 0x100 EXP DUP2 SLOAD DUP2 PUSH20 0xFFFFFFFFFFFFFFFFFFFFFFFFFFFFFFFFFFFFFFFF MUL NOT AND SWAP1 DUP4 PUSH20 0xFFFFFFFFFFFFFFFFFFFFFFFFFFFFFFFFFFFFFFFF AND MUL OR SWAP1 SSTORE POP PUSH1 0x20 DUP3 ADD MLOAD DUP2 PUSH1 0x1 ADD SWAP1 DUP2 PUSH2 0x3A60 SWAP2 SWAP1 PUSH2 0x6705 JUMP JUMPDEST POP PUSH1 0x40 DUP3 ADD MLOAD DUP2 PUSH1 0x2 ADD SSTORE PUSH1 0x60 DUP3 ADD MLOAD DUP2 PUSH1 0x3 ADD SSTORE PUSH1 0x80 DUP3 ADD MLOAD DUP2 PUSH1 0x4 ADD SSTORE PUSH1 0xA0 DUP3 ADD MLOAD DUP2 PUSH1 0x5 ADD SSTORE PUSH1 0xC0 DUP3 ADD MLOAD DUP2 PUSH1 0x6 ADD SSTORE PUSH1 0xE0 DUP3 ADD MLOAD DUP2 PUSH1 0x7 ADD PUSH0 PUSH2 0x100 EXP DUP2 SLOAD DUP2 PUSH1 0xFF MUL NOT AND SWAP1 DUP4 ISZERO ISZERO MUL OR SWAP1 SSTORE POP PUSH2 0x100 DUP3 ADD MLOAD DUP2 PUSH1 0x7 ADD PUSH1 0x1 PUSH2 0x100 EXP DUP2 SLOAD DUP2 PUSH20 0xFFFFFFFFFFFFFFFFFFFFFFFFFFFFFFFFFFFFFFFF MUL NOT AND SWAP1 DUP4 PUSH20 0xFFFFFFFFFFFFFFFFFFFFFFFFFFFFFFFFFFFFFFFF AND MUL OR SWAP1 SSTORE POP PUSH2 0x120 DUP3 ADD MLOAD DUP2 PUSH1 0x8 ADD PUSH0 PUSH2 0x100 EXP DUP2 SLOAD DUP2 PUSH20 0xFFFFFFFFFFFFFFFFFFFFFFFFFFFFFFFFFFFFFFFF MUL NOT AND SWAP1 DUP4 PUSH20 0xFFFFFFFFFFFFFFFFFFFFFFFFFFFFFFFFFFFFFFFF AND MUL OR SWAP1 SSTORE POP PUSH2 0x140 DUP3 ADD MLOAD DUP2 PUSH1 0x8 ADD PUSH1 0x14 PUSH2 0x100 EXP DUP2 SLOAD DUP2 PUSH1 0xFF MUL NOT AND SWAP1 DUP4 ISZERO ISZERO MUL OR SWAP1 SSTORE POP SWAP1 POP POP PUSH1 0x4 PUSH0 DUP2 SLOAD DUP1 SWAP3 SWAP2 SWAP1 PUSH2 0x3B77 SWAP1 PUSH2 0x642B JUMP JUMPDEST SWAP2 SWAP1 POP SSTORE POP POP POP POP POP POP POP POP POP POP POP POP JUMP JUMPDEST PUSH1 0x12 PUSH0 SWAP1 SLOAD SWAP1 PUSH2 0x100 EXP SWAP1 DIV PUSH20 0xFFFFFFFFFFFFFFFFFFFFFFFFFFFFFFFFFFFFFFFF AND PUSH20 0xFFFFFFFFFFFFFFFFFFFFFFFFFFFFFFFFFFFFFFFF AND CALLER PUSH20 0xFFFFFFFFFFFFFFFFFFFFFFFFFFFFFFFFFFFFFFFF AND EQ PUSH2 0x3C18 JUMPI PUSH1 0x40 MLOAD PUSH32 0x8C379A000000000000000000000000000000000000000000000000000000000 DUP2 MSTORE PUSH1 0x4 ADD PUSH2 0x3C0F SWAP1 PUSH2 0x6267 JUMP JUMPDEST PUSH1 0x40 MLOAD DUP1 SWAP2 SUB SWAP1 REVERT JUMPDEST DUP11 PUSH1 0xB PUSH0 PUSH1 0x3 SLOAD DUP2 MSTORE PUSH1 0x20 ADD SWAP1 DUP2 MSTORE PUSH1 0x20 ADD PUSH0 KECCAK256 PUSH0 PUSH2 0x100 EXP DUP2 SLOAD DUP2 PUSH20 0xFFFFFFFFFFFFFFFFFFFFFFFFFFFFFFFFFFFFFFFF MUL NOT AND SWAP1 DUP4 PUSH20 0xFFFFFFFFFFFFFFFFFFFFFFFFFFFFFFFFFFFFFFFF AND MUL OR SWAP1 SSTORE POP PUSH1 0x40 MLOAD DUP1 PUSH2 0x160 ADD PUSH1 0x40 MSTORE DUP1 DUP13 PUSH20 0xFFFFFFFFFFFFFFFFFFFFFFFFFFFFFFFFFFFFFFFF AND DUP2 MSTORE PUSH1 0x20 ADD DUP12 PUSH20 0xFFFFFFFFFFFFFFFFFFFFFFFFFFFFFFFFFFFFFFFF AND DUP2 MSTORE PUSH1 0x20 ADD DUP11 DUP2 MSTORE PUSH1 0x20 ADD DUP10 DUP2 MSTORE PUSH1 0x20 ADD DUP9 DUP2 MSTORE PUSH1 0x20 ADD DUP8 DUP2 MSTORE PUSH1 0x20 ADD DUP7 DUP2 MSTORE PUSH1 0x20 ADD DUP6 DUP2 MSTORE PUSH1 0x20 ADD DUP5 PUSH20 0xFFFFFFFFFFFFFFFFFFFFFFFFFFFFFFFFFFFFFFFF AND DUP2 MSTORE PUSH1 0x20 ADD DUP4 PUSH4 0xFFFFFFFF AND DUP2 MSTORE PUSH1 0x20 ADD DUP3 ISZERO ISZERO DUP2 MSTORE POP PUSH1 0x10 PUSH0 DUP14 PUSH20 0xFFFFFFFFFFFFFFFFFFFFFFFFFFFFFFFFFFFFFFFF AND PUSH20 0xFFFFFFFFFFFFFFFFFFFFFFFFFFFFFFFFFFFFFFFF AND DUP2 MSTORE PUSH1 0x20 ADD SWAP1 DUP2 MSTORE PUSH1 0x20 ADD PUSH0 KECCAK256 PUSH0 DUP3 ADD MLOAD DUP2 PUSH0 ADD PUSH0 PUSH2 0x100 EXP DUP2 SLOAD DUP2 PUSH20 0xFFFFFFFFFFFFFFFFFFFFFFFFFFFFFFFFFFFFFFFF MUL NOT AND SWAP1 DUP4 PUSH20 0xFFFFFFFFFFFFFFFFFFFFFFFFFFFFFFFFFFFFFFFF AND MUL OR SWAP1 SSTORE POP PUSH1 0x20 DUP3 ADD MLOAD DUP2 PUSH1 0x1 ADD PUSH0 PUSH2 0x100 EXP DUP2 SLOAD DUP2 PUSH20 0xFFFFFFFFFFFFFFFFFFFFFFFFFFFFFFFFFFFFFFFF MUL NOT AND SWAP1 DUP4 PUSH20 0xFFFFFFFFFFFFFFFFFFFFFFFFFFFFFFFFFFFFFFFF AND MUL OR SWAP1 SSTORE POP PUSH1 0x40 DUP3 ADD MLOAD DUP2 PUSH1 0x2 ADD SWAP1 DUP2 PUSH2 0x3DDB SWAP2 SWAP1 PUSH2 0x6705 JUMP JUMPDEST POP PUSH1 0x60 DUP3 ADD MLOAD DUP2 PUSH1 0x3 ADD SSTORE PUSH1 0x80 DUP3 ADD MLOAD DUP2 PUSH1 0x4 ADD SSTORE PUSH1 0xA0 DUP3 ADD MLOAD DUP2 PUSH1 0x5 ADD SSTORE PUSH1 0xC0 DUP3 ADD MLOAD DUP2 PUSH1 0x6 ADD SSTORE PUSH1 0xE0 DUP3 ADD MLOAD DUP2 PUSH1 0x7 ADD SSTORE PUSH2 0x100 DUP3 ADD MLOAD DUP2 PUSH1 0x8 ADD PUSH0 PUSH2 0x100 EXP DUP2 SLOAD DUP2 PUSH20 0xFFFFFFFFFFFFFFFFFFFFFFFFFFFFFFFFFFFFFFFF MUL NOT AND SWAP1 DUP4 PUSH20 0xFFFFFFFFFFFFFFFFFFFFFFFFFFFFFFFFFFFFFFFF AND MUL OR SWAP1 SSTORE POP PUSH2 0x120 DUP3 ADD MLOAD DUP2 PUSH1 0x9 ADD SSTORE PUSH2 0x140 DUP3 ADD MLOAD DUP2 PUSH1 0xA ADD PUSH0 PUSH2 0x100 EXP DUP2 SLOAD DUP2 PUSH1 0xFF MUL NOT AND SWAP1 DUP4 ISZERO ISZERO MUL OR SWAP1 SSTORE POP SWAP1 POP POP PUSH1 0x3 PUSH0 DUP2 SLOAD DUP1 SWAP3 SWAP2 SWAP1 PUSH2 0x3E95 SWAP1 PUSH2 0x642B JUMP JUMPDEST SWAP2 SWAP1 POP SSTORE POP POP POP POP POP POP POP POP POP POP POP POP JUMP JUMPDEST PUSH1 0x12 PUSH0 SWAP1 SLOAD SWAP1 PUSH2 0x100 EXP SWAP1 DIV PUSH20 0xFFFFFFFFFFFFFFFFFFFFFFFFFFFFFFFFFFFFFFFF AND PUSH20 0xFFFFFFFFFFFFFFFFFFFFFFFFFFFFFFFFFFFFFFFF AND CALLER PUSH20 0xFFFFFFFFFFFFFFFFFFFFFFFFFFFFFFFFFFFFFFFF AND EQ PUSH2 0x3F36 JUMPI PUSH1 0x40 MLOAD PUSH32 0x8C379A000000000000000000000000000000000000000000000000000000000 DUP2 MSTORE PUSH1 0x4 ADD PUSH2 0x3F2D SWAP1 PUSH2 0x6267 JUMP JUMPDEST PUSH1 0x40 MLOAD DUP1 SWAP2 SUB SWAP1 REVERT JUMPDEST DUP5 PUSH1 0x9 PUSH0 PUSH1 0x1 SLOAD DUP2 MSTORE PUSH1 0x20 ADD SWAP1 DUP2 MSTORE PUSH1 0x20 ADD PUSH0 KECCAK256 PUSH0 PUSH2 0x100 EXP DUP2 SLOAD DUP2 PUSH20 0xFFFFFFFFFFFFFFFFFFFFFFFFFFFFFFFFFFFFFFFF MUL NOT AND SWAP1 DUP4 PUSH20 0xFFFFFFFFFFFFFFFFFFFFFFFFFFFFFFFFFFFFFFFF AND MUL OR SWAP1 SSTORE POP PUSH1 0x40 MLOAD DUP1 PUSH1 0xA0 ADD PUSH1 0x40 MSTORE DUP1 DUP7 PUSH20 0xFFFFFFFFFFFFFFFFFFFFFFFFFFFFFFFFFFFFFFFF AND DUP2 MSTORE PUSH1 0x20 ADD DUP6 DUP2 MSTORE PUSH1 0x20 ADD DUP5 DUP2 MSTORE PUSH1 0x20 ADD DUP4 PUSH4 0xFFFFFFFF AND DUP2 MSTORE PUSH1 0x20 ADD DUP3 PUSH4 0xFFFFFFFF AND DUP2 MSTORE POP PUSH1 0xE PUSH0 DUP8 PUSH20 0xFFFFFFFFFFFFFFFFFFFFFFFFFFFFFFFFFFFFFFFF AND PUSH20 0xFFFFFFFFFFFFFFFFFFFFFFFFFFFFFFFFFFFFFFFF AND DUP2 MSTORE PUSH1 0x20 ADD SWAP1 DUP2 MSTORE PUSH1 0x20 ADD PUSH0 KECCAK256 PUSH0 DUP3 ADD MLOAD DUP2 PUSH0 ADD PUSH0 PUSH2 0x100 EXP DUP2 SLOAD DUP2 PUSH20 0xFFFFFFFFFFFFFFFFFFFFFFFFFFFFFFFFFFFFFFFF MUL NOT AND SWAP1 DUP4 PUSH20 0xFFFFFFFFFFFFFFFFFFFFFFFFFFFFFFFFFFFFFFFF AND MUL OR SWAP1 SSTORE POP PUSH1 0x20 DUP3 ADD MLOAD DUP2 PUSH1 0x1 ADD SWAP1 DUP2 PUSH2 0x4066 SWAP2 SWAP1 PUSH2 0x6705 JUMP JUMPDEST POP PUSH1 0x40 DUP3 ADD MLOAD DUP2 PUSH1 0x2 ADD SWAP1 DUP2 PUSH2 0x407C SWAP2 SWAP1 PUSH2 0x6705 JUMP JUMPDEST POP PUSH1 0x60 DUP3 ADD MLOAD DUP2 PUSH1 0x3 ADD PUSH0 PUSH2 0x100 EXP DUP2 SLOAD DUP2 PUSH4 0xFFFFFFFF MUL NOT AND SWAP1 DUP4 PUSH4 0xFFFFFFFF AND MUL OR SWAP1 SSTORE POP PUSH1 0x80 DUP3 ADD MLOAD DUP2 PUSH1 0x3 ADD PUSH1 0x4 PUSH2 0x100 EXP DUP2 SLOAD DUP2 PUSH4 0xFFFFFFFF MUL NOT AND SWAP1 DUP4 PUSH4 0xFFFFFFFF AND MUL OR SWAP1 SSTORE POP SWAP1 POP POP PUSH1 0x1 PUSH0 DUP2 SLOAD DUP1 SWAP3 SWAP2 SWAP1 PUSH2 0x40DF SWAP1 PUSH2 0x642B JUMP JUMPDEST SWAP2 SWAP1 POP SSTORE POP POP POP POP POP POP JUMP JUMPDEST PUSH1 0x12 PUSH0 SWAP1 SLOAD SWAP1 PUSH2 0x100 EXP SWAP1 DIV PUSH20 0xFFFFFFFFFFFFFFFFFFFFFFFFFFFFFFFFFFFFFFFF AND DUP2 JUMP JUMPDEST PUSH1 0x1 ISZERO ISZERO PUSH2 0x411D CALLER PUSH2 0x3852 JUMP JUMPDEST ISZERO ISZERO EQ PUSH2 0x415F JUMPI PUSH1 0x40 MLOAD PUSH32 0x8C379A000000000000000000000000000000000000000000000000000000000 DUP2 MSTORE PUSH1 0x4 ADD PUSH2 0x4156 SWAP1 PUSH2 0x6844 JUMP JUMPDEST PUSH1 0x40 MLOAD DUP1 SWAP2 SUB SWAP1 REVERT JUMPDEST PUSH1 0x1 ISZERO ISZERO PUSH1 0x14 PUSH0 CALLVALUE DUP2 MSTORE PUSH1 0x20 ADD SWAP1 DUP2 MSTORE PUSH1 0x20 ADD PUSH0 KECCAK256 PUSH1 0x7 ADD PUSH0 SWAP1 SLOAD SWAP1 PUSH2 0x100 EXP SWAP1 DIV PUSH1 0xFF AND ISZERO ISZERO EQ PUSH2 0x41C6 JUMPI PUSH1 0x40 MLOAD PUSH32 0x8C379A000000000000000000000000000000000000000000000000000000000 DUP2 MSTORE PUSH1 0x4 ADD PUSH2 0x41BD SWAP1 PUSH2 0x6B37 JUMP JUMPDEST PUSH1 0x40 MLOAD DUP1 SWAP2 SUB SWAP1 REVERT JUMPDEST PUSH1 0x14 PUSH0 DUP11 DUP2 MSTORE PUSH1 0x20 ADD SWAP1 DUP2 MSTORE PUSH1 0x20 ADD PUSH0 KECCAK256 PUSH1 0x6 ADD SLOAD PUSH1 0x40 MLOAD PUSH1 0x20 ADD PUSH2 0x41EB SWAP2 SWAP1 PUSH2 0x610D JUMP JUMPDEST PUSH1 0x40 MLOAD PUSH1 0x20 DUP2 DUP4 SUB SUB DUP2 MSTORE SWAP1 PUSH1 0x40 MSTORE DUP1 MLOAD SWAP1 PUSH1 0x20 ADD KECCAK256 DUP11 PUSH1 0x40 MLOAD PUSH1 0x20 ADD PUSH2 0x4212 SWAP2 SWAP1 PUSH2 0x6B9A JUMP JUMPDEST PUSH1 0x40 MLOAD PUSH1 0x20 DUP2 DUP4 SUB SUB DUP2 MSTORE SWAP1 PUSH1 0x40 MSTORE DUP1 MLOAD SWAP1 PUSH1 0x20 ADD KECCAK256 EQ PUSH2 0x4268 JUMPI PUSH1 0x40 MLOAD PUSH32 0x8C379A000000000000000000000000000000000000000000000000000000000 DUP2 MSTORE PUSH1 0x4 ADD PUSH2 0x425F SWAP1 PUSH2 0x6BFE JUMP JUMPDEST PUSH1 0x40 MLOAD DUP1 SWAP2 SUB SWAP1 REVERT JUMPDEST PUSH1 0xF PUSH0 CALLER PUSH20 0xFFFFFFFFFFFFFFFFFFFFFFFFFFFFFFFFFFFFFFFF AND PUSH20 0xFFFFFFFFFFFFFFFFFFFFFFFFFFFFFFFFFFFFFFFF AND DUP2 MSTORE PUSH1 0x20 ADD SWAP1 DUP2 MSTORE PUSH1 0x20 ADD PUSH0 KECCAK256 PUSH1 0x3 ADD SLOAD TIMESTAMP GT ISZERO PUSH2 0x42EB JUMPI PUSH1 0x40 MLOAD PUSH32 0x8C379A000000000000000000000000000000000000000000000000000000000 DUP2 MSTORE PUSH1 0x4 ADD PUSH2 0x42E2 SWAP1 PUSH2 0x6C8C JUMP JUMPDEST PUSH1 0x40 MLOAD DUP1 SWAP2 SUB SWAP1 REVERT JUMPDEST PUSH1 0x1 ISZERO ISZERO PUSH1 0x14 PUSH0 DUP12 DUP2 MSTORE PUSH1 0x20 ADD SWAP1 DUP2 MSTORE PUSH1 0x20 ADD PUSH0 KECCAK256 PUSH1 0x7 ADD PUSH0 SWAP1 SLOAD SWAP1 PUSH2 0x100 EXP SWAP1 DIV PUSH1 0xFF AND ISZERO ISZERO EQ PUSH2 0x4352 JUMPI PUSH1 0x40 MLOAD PUSH32 0x8C379A000000000000000000000000000000000000000000000000000000000 DUP2 MSTORE PUSH1 0x4 ADD PUSH2 0x4349 SWAP1 PUSH2 0x6D1A JUMP JUMPDEST PUSH1 0x40 MLOAD DUP1 SWAP2 SUB SWAP1 REVERT JUMPDEST PUSH0 ISZERO ISZERO PUSH1 0x1A PUSH0 DUP12 DUP2 MSTORE PUSH1 0x20 ADD SWAP1 DUP2 MSTORE PUSH1 0x20 ADD PUSH0 KECCAK256 PUSH1 0x4 ADD PUSH1 0x5 SWAP1 SLOAD SWAP1 PUSH2 0x100 EXP SWAP1 DIV PUSH1 0xFF AND ISZERO ISZERO EQ PUSH2 0x43B9 JUMPI PUSH1 0x40 MLOAD PUSH32 0x8C379A000000000000000000000000000000000000000000000000000000000 DUP2 MSTORE PUSH1 0x4 ADD PUSH2 0x43B0 SWAP1 PUSH2 0x6DA8 JUMP JUMPDEST PUSH1 0x40 MLOAD DUP1 SWAP2 SUB SWAP1 REVERT JUMPDEST PUSH1 0x40 MLOAD DUP1 PUSH2 0x140 ADD PUSH1 0x40 MSTORE DUP1 DUP10 DUP2 MSTORE PUSH1 0x20 ADD DUP9 DUP2 MSTORE PUSH1 0x20 ADD DUP8 DUP2 MSTORE PUSH1 0x20 ADD TIMESTAMP DUP2 MSTORE PUSH1 0x20 ADD DUP7 ISZERO ISZERO DUP2 MSTORE PUSH1 0x20 ADD DUP6 ISZERO ISZERO DUP2 MSTORE PUSH1 0x20 ADD DUP5 ISZERO ISZERO DUP2 MSTORE PUSH1 0x20 ADD DUP4 ISZERO ISZERO DUP2 MSTORE PUSH1 0x20 ADD DUP3 ISZERO ISZERO DUP2 MSTORE PUSH1 0x20 ADD PUSH1 0x1 ISZERO ISZERO DUP2 MSTORE POP PUSH1 0x1A PUSH0 DUP12 DUP2 MSTORE PUSH1 0x20 ADD SWAP1 DUP2 MSTORE PUSH1 0x20 ADD PUSH0 KECCAK256 PUSH0 DUP3 ADD MLOAD DUP2 PUSH0 ADD SSTORE PUSH1 0x20 DUP3 ADD MLOAD DUP2 PUSH1 0x1 ADD SSTORE PUSH1 0x40 DUP3 ADD MLOAD DUP2 PUSH1 0x2 ADD SSTORE PUSH1 0x60 DUP3 ADD MLOAD DUP2 PUSH1 0x3 ADD SSTORE PUSH1 0x80 DUP3 ADD MLOAD DUP2 PUSH1 0x4 ADD PUSH0 PUSH2 0x100 EXP DUP2 SLOAD DUP2 PUSH1 0xFF MUL NOT AND SWAP1 DUP4 ISZERO ISZERO MUL OR SWAP1 SSTORE POP PUSH1 0xA0 DUP3 ADD MLOAD DUP2 PUSH1 0x4 ADD PUSH1 0x1 PUSH2 0x100 EXP DUP2 SLOAD DUP2 PUSH1 0xFF MUL NOT AND SWAP1 DUP4 ISZERO ISZERO MUL OR SWAP1 SSTORE POP PUSH1 0xC0 DUP3 ADD MLOAD DUP2 PUSH1 0x4 ADD PUSH1 0x2 PUSH2 0x100 EXP DUP2 SLOAD DUP2 PUSH1 0xFF MUL NOT AND SWAP1 DUP4 ISZERO ISZERO MUL OR SWAP1 SSTORE POP PUSH1 0xE0 DUP3 ADD MLOAD DUP2 PUSH1 0x4 ADD PUSH1 0x3 PUSH2 0x100 EXP DUP2 SLOAD DUP2 PUSH1 0xFF MUL NOT AND SWAP1 DUP4 ISZERO ISZERO MUL OR SWAP1 SSTORE POP PUSH2 0x100 DUP3 ADD MLOAD DUP2 PUSH1 0x4 ADD PUSH1 0x4 PUSH2 0x100 EXP DUP2 SLOAD DUP2 PUSH1 0xFF MUL NOT AND SWAP1 DUP4 ISZERO ISZERO MUL OR SWAP1 SSTORE POP PUSH2 0x120 DUP3 ADD MLOAD DUP2 PUSH1 0x4 ADD PUSH1 0x5 PUSH2 0x100 EXP DUP2 SLOAD DUP2 PUSH1 0xFF MUL NOT AND SWAP1 DUP4 ISZERO ISZERO MUL OR SWAP1 SSTORE POP SWAP1 POP POP DUP10 PUSH20 0xFFFFFFFFFFFFFFFFFFFFFFFFFFFFFFFFFFFFFFFF AND PUSH2 0x8FC CALLVALUE SWAP1 DUP2 ISZERO MUL SWAP1 PUSH1 0x40 MLOAD PUSH0 PUSH1 0x40 MLOAD DUP1 DUP4 SUB DUP2 DUP6 DUP9 DUP9 CALL SWAP4 POP POP POP POP ISZERO DUP1 ISZERO PUSH2 0x454A JUMPI RETURNDATASIZE PUSH0 DUP1 RETURNDATACOPY RETURNDATASIZE PUSH0 REVERT JUMPDEST POP POP POP POP POP POP POP POP POP POP POP JUMP JUMPDEST PUSH1 0x18 PUSH0 SWAP1 SLOAD SWAP1 PUSH2 0x100 EXP SWAP1 DIV PUSH1 0xFF AND DUP2 JUMP JUMPDEST PUSH0 DUP1 PUSH1 0x7 PUSH1 0x1 PUSH2 0x100 EXP DUP2 SLOAD DUP2 PUSH1 0xFF MUL NOT AND SWAP1 DUP4 ISZERO ISZERO MUL OR SWAP1 SSTORE POP PUSH0 PUSH1 0x1 SWAP1 POP JUMPDEST PUSH1 0x1 SLOAD DUP2 GT PUSH2 0x4625 JUMPI PUSH1 0x9 PUSH0 DUP3 DUP2 MSTORE PUSH1 0x20 ADD SWAP1 DUP2 MSTORE PUSH1 0x20 ADD PUSH0 KECCAK256 PUSH0 SWAP1 SLOAD SWAP1 PUSH2 0x100 EXP SWAP1 DIV PUSH20 0xFFFFFFFFFFFFFFFFFFFFFFFFFFFFFFFFFFFFFFFF AND PUSH20 0xFFFFFFFFFFFFFFFFFFFFFFFFFFFFFFFFFFFFFFFF AND DUP4 PUSH20 0xFFFFFFFFFFFFFFFFFFFFFFFFFFFFFFFFFFFFFFFF AND SUB PUSH2 0x4612 JUMPI PUSH1 0x1 PUSH1 0x7 PUSH1 0x1 PUSH2 0x100 EXP DUP2 SLOAD DUP2 PUSH1 0xFF MUL NOT AND SWAP1 DUP4 ISZERO ISZERO MUL OR SWAP1 SSTORE POP JUMPDEST DUP1 DUP1 PUSH2 0x461D SWAP1 PUSH2 0x642B JUMP JUMPDEST SWAP2 POP POP PUSH2 0x458A JUMP JUMPDEST POP PUSH1 0x7 PUSH1 0x1 SWAP1 SLOAD SWAP1 PUSH2 0x100 EXP SWAP1 DIV PUSH1 0xFF AND SWAP1 POP SWAP2 SWAP1 POP JUMP JUMPDEST PUSH0 DUP1 PUSH1 0x7 PUSH1 0x5 PUSH2 0x100 EXP DUP2 SLOAD DUP2 PUSH1 0xFF MUL NOT AND SWAP1 DUP4 ISZERO ISZERO MUL OR SWAP1 SSTORE POP PUSH0 PUSH1 0x1 SWAP1 POP JUMPDEST PUSH1 0x4 SLOAD DUP2 GT PUSH2 0x469F JUMPI PUSH1 0x4 SLOAD DUP2 SUB PUSH2 0x468C JUMPI PUSH1 0x1 PUSH1 0x7 PUSH1 0x5 PUSH2 0x100 EXP DUP2 SLOAD DUP2 PUSH1 0xFF MUL NOT AND SWAP1 DUP4 ISZERO ISZERO MUL OR SWAP1 SSTORE POP JUMPDEST DUP1 DUP1 PUSH2 0x4697 SWAP1 PUSH2 0x642B JUMP JUMPDEST SWAP2 POP POP PUSH2 0x465E JUMP JUMPDEST POP PUSH1 0x7 PUSH1 0x5 SWAP1 SLOAD SWAP1 PUSH2 0x100 EXP SWAP1 DIV PUSH1 0xFF AND SWAP1 POP SWAP2 SWAP1 POP JUMP JUMPDEST PUSH0 DUP1 TIMESTAMP DUP5 DUP5 PUSH1 0x40 MLOAD PUSH1 0x20 ADD PUSH2 0x46CE SWAP4 SWAP3 SWAP2 SWAP1 PUSH2 0x6DEE JUMP JUMPDEST PUSH1 0x40 MLOAD PUSH1 0x20 DUP2 DUP4 SUB SUB DUP2 MSTORE SWAP1 PUSH1 0x40 MSTORE DUP1 MLOAD SWAP1 PUSH1 0x20 ADD KECCAK256 PUSH0 SHR SWAP1 POP PUSH0 PUSH1 0x6 SLOAD DUP3 PUSH2 0x46F7 SWAP2 SWAP1 PUSH2 0x6E57 JUMP JUMPDEST SWAP1 POP DUP1 SWAP3 POP POP POP SWAP3 SWAP2 POP POP JUMP JUMPDEST PUSH1 0x40 MLOAD DUP1 PUSH1 0xC0 ADD PUSH1 0x40 MSTORE DUP1 PUSH0 DUP2 MSTORE PUSH1 0x20 ADD PUSH0 DUP2 MSTORE PUSH1 0x20 ADD PUSH0 DUP2 MSTORE PUSH1 0x20 ADD PUSH0 DUP2 MSTORE PUSH1 0x20 ADD PUSH0 DUP2 MSTORE PUSH1 0x20 ADD PUSH0 ISZERO ISZERO DUP2 MSTORE POP SWAP1 JUMP JUMPDEST PUSH1 0x40 MLOAD DUP1 PUSH2 0x140 ADD PUSH1 0x40 MSTORE DUP1 PUSH0 DUP2 MSTORE PUSH1 0x20 ADD PUSH0 DUP2 MSTORE PUSH1 0x20 ADD PUSH0 DUP2 MSTORE PUSH1 0x20 ADD PUSH0 DUP2 MSTORE PUSH1 0x20 ADD PUSH0 ISZERO ISZERO DUP2 MSTORE PUSH1 0x20 ADD PUSH0 ISZERO ISZERO DUP2 MSTORE PUSH1 0x20 ADD PUSH0 ISZERO ISZERO DUP2 MSTORE PUSH1 0x20 ADD PUSH0 ISZERO ISZERO DUP2 MSTORE PUSH1 0x20 ADD PUSH0 ISZERO ISZERO DUP2 MSTORE PUSH1 0x20 ADD PUSH0 ISZERO ISZERO DUP2 MSTORE POP SWAP1 JUMP JUMPDEST PUSH1 0x40 MLOAD DUP1 PUSH1 0xE0 ADD PUSH1 0x40 MSTORE DUP1 PUSH1 0x60 DUP2 MSTORE PUSH1 0x20 ADD PUSH1 0x60 DUP2 MSTORE PUSH1 0x20 ADD PUSH0 DUP2 MSTORE PUSH1 0x20 ADD PUSH0 DUP2 MSTORE PUSH1 0x20 ADD PUSH0 ISZERO ISZERO DUP2 MSTORE PUSH1 0x20 ADD PUSH0 ISZERO ISZERO DUP2 MSTORE PUSH1 0x20 ADD PUSH0 PUSH20 0xFFFFFFFFFFFFFFFFFFFFFFFFFFFFFFFFFFFFFFFF AND DUP2 MSTORE POP SWAP1 JUMP JUMPDEST PUSH1 0x40 MLOAD DUP1 PUSH2 0x160 ADD PUSH1 0x40 MSTORE DUP1 PUSH0 PUSH20 0xFFFFFFFFFFFFFFFFFFFFFFFFFFFFFFFFFFFFFFFF AND DUP2 MSTORE PUSH1 0x20 ADD PUSH1 0x60 DUP2 MSTORE PUSH1 0x20 ADD PUSH0 DUP2 MSTORE PUSH1 0x20 ADD PUSH0 DUP2 MSTORE PUSH1 0x20 ADD PUSH0 DUP2 MSTORE PUSH1 0x20 ADD PUSH0 DUP2 MSTORE PUSH1 0x20 ADD PUSH0 DUP2 MSTORE PUSH1 0x20 ADD PUSH0 ISZERO ISZERO DUP2 MSTORE PUSH1 0x20 ADD PUSH0 ISZERO ISZERO DUP2 MSTORE PUSH1 0x20 ADD PUSH0 PUSH20 0xFFFFFFFFFFFFFFFFFFFFFFFFFFFFFFFFFFFFFFFF AND DUP2 MSTORE PUSH1 0x20 ADD PUSH0 PUSH20 0xFFFFFFFFFFFFFFFFFFFFFFFFFFFFFFFFFFFFFFFF AND DUP2 MSTORE POP SWAP1 JUMP JUMPDEST PUSH1 0x40 MLOAD DUP1 PUSH1 0xA0 ADD PUSH1 0x40 MSTORE DUP1 PUSH0 PUSH20 0xFFFFFFFFFFFFFFFFFFFFFFFFFFFFFFFFFFFFFFFF AND DUP2 MSTORE PUSH1 0x20 ADD PUSH1 0x60 DUP2 MSTORE PUSH1 0x20 ADD PUSH1 0x60 DUP2 MSTORE PUSH1 0x20 ADD PUSH0 PUSH4 0xFFFFFFFF AND DUP2 MSTORE PUSH1 0x20 ADD PUSH0 ISZERO ISZERO DUP2 MSTORE POP SWAP1 JUMP JUMPDEST PUSH1 0x40 MLOAD DUP1 PUSH1 0xA0 ADD PUSH1 0x40 MSTORE DUP1 PUSH0 PUSH20 0xFFFFFFFFFFFFFFFFFFFFFFFFFFFFFFFFFFFFFFFF AND DUP2 MSTORE PUSH1 0x20 ADD PUSH1 0x60 DUP2 MSTORE PUSH1 0x20 ADD PUSH1 0x60 DUP2 MSTORE PUSH1 0x20 ADD PUSH0 PUSH4 0xFFFFFFFF AND DUP2 MSTORE PUSH1 0x20 ADD PUSH0 PUSH4 0xFFFFFFFF AND DUP2 MSTORE POP SWAP1 JUMP JUMPDEST PUSH1 0x40 MLOAD DUP1 PUSH2 0x120 ADD PUSH1 0x40 MSTORE DUP1 PUSH0 PUSH20 0xFFFFFFFFFFFFFFFFFFFFFFFFFFFFFFFFFFFFFFFF AND DUP2 MSTORE PUSH1 0x20 ADD PUSH1 0x60 DUP2 MSTORE PUSH1 0x20 ADD PUSH1 0x60 DUP2 MSTORE PUSH1 0x20 ADD PUSH0 DUP2 MSTORE PUSH1 0x20 ADD PUSH0 DUP2 MSTORE PUSH1 0x20 ADD PUSH0 DUP2 MSTORE PUSH1 0x20 ADD PUSH0 DUP2 MSTORE PUSH1 0x20 ADD PUSH0 PUSH20 0xFFFFFFFFFFFFFFFFFFFFFFFFFFFFFFFFFFFFFFFF AND DUP2 MSTORE PUSH1 0x20 ADD PUSH0 ISZERO ISZERO DUP2 MSTORE POP SWAP1 JUMP JUMPDEST PUSH0 PUSH1 0x40 MLOAD SWAP1 POP SWAP1 JUMP JUMPDEST PUSH0 DUP1 REVERT JUMPDEST PUSH0 DUP1 REVERT JUMPDEST PUSH0 DUP2 SWAP1 POP SWAP2 SWAP1 POP JUMP JUMPDEST PUSH2 0x49A1 DUP2 PUSH2 0x498F JUMP JUMPDEST DUP2 EQ PUSH2 0x49AB JUMPI PUSH0 DUP1 REVERT JUMPDEST POP JUMP JUMPDEST PUSH0 DUP2 CALLDATALOAD SWAP1 POP PUSH2 0x49BC DUP2 PUSH2 0x4998 JUMP JUMPDEST SWAP3 SWAP2 POP POP JUMP JUMPDEST PUSH0 PUSH1 0x20 DUP3 DUP5 SUB SLT ISZERO PUSH2 0x49D7 JUMPI PUSH2 0x49D6 PUSH2 0x4987 JUMP JUMPDEST JUMPDEST PUSH0 PUSH2 0x49E4 DUP5 DUP3 DUP6 ADD PUSH2 0x49AE JUMP JUMPDEST SWAP2 POP POP SWAP3 SWAP2 POP POP JUMP JUMPDEST PUSH0 PUSH20 0xFFFFFFFFFFFFFFFFFFFFFFFFFFFFFFFFFFFFFFFF DUP3 AND SWAP1 POP SWAP2 SWAP1 POP JUMP JUMPDEST PUSH0 PUSH2 0x4A16 DUP3 PUSH2 0x49ED JUMP JUMPDEST SWAP1 POP SWAP2 SWAP1 POP JUMP JUMPDEST PUSH2 0x4A26 DUP2 PUSH2 0x4A0C JUMP JUMPDEST DUP3 MSTORE POP POP JUMP JUMPDEST PUSH0 PUSH1 0x20 DUP3 ADD SWAP1 POP PUSH2 0x4A3F PUSH0 DUP4 ADD DUP5 PUSH2 0x4A1D JUMP JUMPDEST SWAP3 SWAP2 POP POP JUMP JUMPDEST PUSH2 0x4A4E DUP2 PUSH2 0x4A0C JUMP JUMPDEST DUP2 EQ PUSH2 0x4A58 JUMPI PUSH0 DUP1 REVERT JUMPDEST POP JUMP JUMPDEST PUSH0 DUP2 CALLDATALOAD SWAP1 POP PUSH2 0x4A69 DUP2 PUSH2 0x4A45 JUMP JUMPDEST SWAP3 SWAP2 POP POP JUMP JUMPDEST PUSH0 PUSH1 0x20 DUP3 DUP5 SUB SLT ISZERO PUSH2 0x4A84 JUMPI PUSH2 0x4A83 PUSH2 0x4987 JUMP JUMPDEST JUMPDEST PUSH0 PUSH2 0x4A91 DUP5 DUP3 DUP6 ADD PUSH2 0x4A5B JUMP JUMPDEST SWAP2 POP POP SWAP3 SWAP2 POP POP JUMP JUMPDEST PUSH2 0x4AA3 DUP2 PUSH2 0x498F JUMP JUMPDEST DUP3 MSTORE POP POP JUMP JUMPDEST PUSH0 PUSH1 0x20 DUP3 ADD SWAP1 POP PUSH2 0x4ABC PUSH0 DUP4 ADD DUP5 PUSH2 0x4A9A JUMP JUMPDEST SWAP3 SWAP2 POP POP JUMP JUMPDEST PUSH0 DUP2 MLOAD SWAP1 POP SWAP2 SWAP1 POP JUMP JUMPDEST PUSH0 DUP3 DUP3 MSTORE PUSH1 0x20 DUP3 ADD SWAP1 POP SWAP3 SWAP2 POP POP JUMP JUMPDEST DUP3 DUP2 DUP4 MCOPY PUSH0 DUP4 DUP4 ADD MSTORE POP POP POP JUMP JUMPDEST PUSH0 PUSH1 0x1F NOT PUSH1 0x1F DUP4 ADD AND SWAP1 POP SWAP2 SWAP1 POP JUMP JUMPDEST PUSH0 PUSH2 0x4B04 DUP3 PUSH2 0x4AC2 JUMP JUMPDEST PUSH2 0x4B0E DUP2 DUP6 PUSH2 0x4ACC JUMP JUMPDEST SWAP4 POP PUSH2 0x4B1E DUP2 DUP6 PUSH1 0x20 DUP7 ADD PUSH2 0x4ADC JUMP JUMPDEST PUSH2 0x4B27 DUP2 PUSH2 0x4AEA JUMP JUMPDEST DUP5 ADD SWAP2 POP POP SWAP3 SWAP2 POP POP JUMP JUMPDEST PUSH0 DUP2 ISZERO ISZERO SWAP1 POP SWAP2 SWAP1 POP JUMP JUMPDEST PUSH2 0x4B46 DUP2 PUSH2 0x4B32 JUMP JUMPDEST DUP3 MSTORE POP POP JUMP JUMPDEST PUSH0 PUSH2 0x160 DUP3 ADD SWAP1 POP PUSH2 0x4B60 PUSH0 DUP4 ADD DUP15 PUSH2 0x4A1D JUMP JUMPDEST DUP2 DUP2 SUB PUSH1 0x20 DUP4 ADD MSTORE PUSH2 0x4B72 DUP2 DUP14 PUSH2 0x4AFA JUMP JUMPDEST SWAP1 POP PUSH2 0x4B81 PUSH1 0x40 DUP4 ADD DUP13 PUSH2 0x4A9A JUMP JUMPDEST PUSH2 0x4B8E PUSH1 0x60 DUP4 ADD DUP12 PUSH2 0x4A9A JUMP JUMPDEST PUSH2 0x4B9B PUSH1 0x80 DUP4 ADD DUP11 PUSH2 0x4A9A JUMP JUMPDEST PUSH2 0x4BA8 PUSH1 0xA0 DUP4 ADD DUP10 PUSH2 0x4A9A JUMP JUMPDEST PUSH2 0x4BB5 PUSH1 0xC0 DUP4 ADD DUP9 PUSH2 0x4A9A JUMP JUMPDEST PUSH2 0x4BC2 PUSH1 0xE0 DUP4 ADD DUP8 PUSH2 0x4B3D JUMP JUMPDEST PUSH2 0x4BD0 PUSH2 0x100 DUP4 ADD DUP7 PUSH2 0x4A1D JUMP JUMPDEST PUSH2 0x4BDE PUSH2 0x120 DUP4 ADD DUP6 PUSH2 0x4A1D JUMP JUMPDEST PUSH2 0x4BEC PUSH2 0x140 DUP4 ADD DUP5 PUSH2 0x4B3D JUMP JUMPDEST SWAP13 SWAP12 POP POP POP POP POP POP POP POP POP POP POP POP JUMP JUMPDEST PUSH0 PUSH2 0x160 DUP3 ADD SWAP1 POP PUSH2 0x4C10 PUSH0 DUP4 ADD DUP15 PUSH2 0x4A1D JUMP JUMPDEST PUSH2 0x4C1D PUSH1 0x20 DUP4 ADD DUP14 PUSH2 0x4A1D JUMP JUMPDEST DUP2 DUP2 SUB PUSH1 0x40 DUP4 ADD MSTORE PUSH2 0x4C2F DUP2 DUP13 PUSH2 0x4AFA JUMP JUMPDEST SWAP1 POP PUSH2 0x4C3E PUSH1 0x60 DUP4 ADD DUP12 PUSH2 0x4A9A JUMP JUMPDEST PUSH2 0x4C4B PUSH1 0x80 DUP4 ADD DUP11 PUSH2 0x4A9A JUMP JUMPDEST PUSH2 0x4C58 PUSH1 0xA0 DUP4 ADD DUP10 PUSH2 0x4A9A JUMP JUMPDEST PUSH2 0x4C65 PUSH1 0xC0 DUP4 ADD DUP9 PUSH2 0x4A9A JUMP JUMPDEST PUSH2 0x4C72 PUSH1 0xE0 DUP4 ADD DUP8 PUSH2 0x4A9A JUMP JUMPDEST PUSH2 0x4C80 PUSH2 0x100 DUP4 ADD DUP7 PUSH2 0x4A1D JUMP JUMPDEST PUSH2 0x4C8E PUSH2 0x120 DUP4 ADD DUP6 PUSH2 0x4A9A JUMP JUMPDEST PUSH2 0x4C9C PUSH2 0x140 DUP4 ADD DUP5 PUSH2 0x4B3D JUMP JUMPDEST SWAP13 SWAP12 POP POP POP POP POP POP POP POP POP POP POP POP JUMP JUMPDEST PUSH2 0x4CB5 DUP2 PUSH2 0x4B32 JUMP JUMPDEST DUP2 EQ PUSH2 0x4CBF JUMPI PUSH0 DUP1 REVERT JUMPDEST POP JUMP JUMPDEST PUSH0 DUP2 CALLDATALOAD SWAP1 POP PUSH2 0x4CD0 DUP2 PUSH2 0x4CAC JUMP JUMPDEST SWAP3 SWAP2 POP POP JUMP JUMPDEST PUSH0 DUP1 PUSH0 DUP1 PUSH0 DUP1 PUSH0 DUP1 PUSH0 PUSH2 0x120 DUP11 DUP13 SUB SLT ISZERO PUSH2 0x4CF4 JUMPI PUSH2 0x4CF3 PUSH2 0x4987 JUMP JUMPDEST JUMPDEST PUSH0 PUSH2 0x4D01 DUP13 DUP3 DUP14 ADD PUSH2 0x4A5B JUMP JUMPDEST SWAP10 POP POP PUSH1 0x20 PUSH2 0x4D12 DUP13 DUP3 DUP14 ADD PUSH2 0x49AE JUMP JUMPDEST SWAP9 POP POP PUSH1 0x40 PUSH2 0x4D23 DUP13 DUP3 DUP14 ADD PUSH2 0x49AE JUMP JUMPDEST SWAP8 POP POP PUSH1 0x60 PUSH2 0x4D34 DUP13 DUP3 DUP14 ADD PUSH2 0x49AE JUMP JUMPDEST SWAP7 POP POP PUSH1 0x80 PUSH2 0x4D45 DUP13 DUP3 DUP14 ADD PUSH2 0x49AE JUMP JUMPDEST SWAP6 POP POP PUSH1 0xA0 PUSH2 0x4D56 DUP13 DUP3 DUP14 ADD PUSH2 0x49AE JUMP JUMPDEST SWAP5 POP POP PUSH1 0xC0 PUSH2 0x4D67 DUP13 DUP3 DUP14 ADD PUSH2 0x49AE JUMP JUMPDEST SWAP4 POP POP PUSH1 0xE0 PUSH2 0x4D78 DUP13 DUP3 DUP14 ADD PUSH2 0x49AE JUMP JUMPDEST SWAP3 POP POP PUSH2 0x100 PUSH2 0x4D8A DUP13 DUP3 DUP14 ADD PUSH2 0x4CC2 JUMP JUMPDEST SWAP2 POP POP SWAP3 SWAP6 SWAP9 POP SWAP3 SWAP6 SWAP9 POP SWAP3 SWAP6 SWAP9 JUMP JUMPDEST PUSH0 PUSH4 0xFFFFFFFF DUP3 AND SWAP1 POP SWAP2 SWAP1 POP JUMP JUMPDEST PUSH2 0x4DB2 DUP2 PUSH2 0x4D9A JUMP JUMPDEST DUP3 MSTORE POP POP JUMP JUMPDEST PUSH0 PUSH1 0xA0 DUP3 ADD SWAP1 POP PUSH2 0x4DCB PUSH0 DUP4 ADD DUP9 PUSH2 0x4A1D JUMP JUMPDEST DUP2 DUP2 SUB PUSH1 0x20 DUP4 ADD MSTORE PUSH2 0x4DDD DUP2 DUP8 PUSH2 0x4AFA JUMP JUMPDEST SWAP1 POP DUP2 DUP2 SUB PUSH1 0x40 DUP4 ADD MSTORE PUSH2 0x4DF1 DUP2 DUP7 PUSH2 0x4AFA JUMP JUMPDEST SWAP1 POP PUSH2 0x4E00 PUSH1 0x60 DUP4 ADD DUP6 PUSH2 0x4DA9 JUMP JUMPDEST PUSH2 0x4E0D PUSH1 0x80 DUP4 ADD DUP5 PUSH2 0x4B3D JUMP JUMPDEST SWAP7 SWAP6 POP POP POP POP POP POP JUMP JUMPDEST PUSH0 PUSH2 0x160 DUP3 ADD SWAP1 POP PUSH2 0x4E2B PUSH0 DUP4 ADD DUP15 PUSH2 0x4A1D JUMP JUMPDEST DUP2 DUP2 SUB PUSH1 0x20 DUP4 ADD MSTORE PUSH2 0x4E3D DUP2 DUP14 PUSH2 0x4AFA JUMP JUMPDEST SWAP1 POP PUSH2 0x4E4C PUSH1 0x40 DUP4 ADD DUP13 PUSH2 0x4A9A JUMP JUMPDEST PUSH2 0x4E59 PUSH1 0x60 DUP4 ADD DUP12 PUSH2 0x4A9A JUMP JUMPDEST PUSH2 0x4E66 PUSH1 0x80 DUP4 ADD DUP11 PUSH2 0x4A9A JUMP JUMPDEST PUSH2 0x4E73 PUSH1 0xA0 DUP4 ADD DUP10 PUSH2 0x4A9A JUMP JUMPDEST PUSH2 0x4E80 PUSH1 0xC0 DUP4 ADD DUP9 PUSH2 0x4A9A JUMP JUMPDEST PUSH2 0x4E8D PUSH1 0xE0 DUP4 ADD DUP8 PUSH2 0x4B3D JUMP JUMPDEST PUSH2 0x4E9B PUSH2 0x100 DUP4 ADD DUP7 PUSH2 0x4B3D JUMP JUMPDEST PUSH2 0x4EA9 PUSH2 0x120 DUP4 ADD DUP6 PUSH2 0x4A1D JUMP JUMPDEST PUSH2 0x4EB7 PUSH2 0x140 DUP4 ADD DUP5 PUSH2 0x4A1D JUMP JUMPDEST SWAP13 SWAP12 POP POP POP POP POP POP POP POP POP POP POP POP JUMP JUMPDEST PUSH2 0x4ED0 DUP2 PUSH2 0x498F JUMP JUMPDEST DUP3 MSTORE POP POP JUMP JUMPDEST PUSH2 0x4EDF DUP2 PUSH2 0x4B32 JUMP JUMPDEST DUP3 MSTORE POP POP JUMP JUMPDEST PUSH1 0xC0 DUP3 ADD PUSH0 DUP3 ADD MLOAD PUSH2 0x4EF9 PUSH0 DUP6 ADD DUP3 PUSH2 0x4EC7 JUMP JUMPDEST POP PUSH1 0x20 DUP3 ADD MLOAD PUSH2 0x4F0C PUSH1 0x20 DUP6 ADD DUP3 PUSH2 0x4EC7 JUMP JUMPDEST POP PUSH1 0x40 DUP3 ADD MLOAD PUSH2 0x4F1F PUSH1 0x40 DUP6 ADD DUP3 PUSH2 0x4EC7 JUMP JUMPDEST POP PUSH1 0x60 DUP3 ADD MLOAD PUSH2 0x4F32 PUSH1 0x60 DUP6 ADD DUP3 PUSH2 0x4EC7 JUMP JUMPDEST POP PUSH1 0x80 DUP3 ADD MLOAD PUSH2 0x4F45 PUSH1 0x80 DUP6 ADD DUP3 PUSH2 0x4EC7 JUMP JUMPDEST POP PUSH1 0xA0 DUP3 ADD MLOAD PUSH2 0x4F58 PUSH1 0xA0 DUP6 ADD DUP3 PUSH2 0x4ED6 JUMP JUMPDEST POP POP POP POP JUMP JUMPDEST PUSH2 0x140 DUP3 ADD PUSH0 DUP3 ADD MLOAD PUSH2 0x4F73 PUSH0 DUP6 ADD DUP3 PUSH2 0x4EC7 JUMP JUMPDEST POP PUSH1 0x20 DUP3 ADD MLOAD PUSH2 0x4F86 PUSH1 0x20 DUP6 ADD DUP3 PUSH2 0x4EC7 JUMP JUMPDEST POP PUSH1 0x40 DUP3 ADD MLOAD PUSH2 0x4F99 PUSH1 0x40 DUP6 ADD DUP3 PUSH2 0x4EC7 JUMP JUMPDEST POP PUSH1 0x60 DUP3 ADD MLOAD PUSH2 0x4FAC PUSH1 0x60 DUP6 ADD DUP3 PUSH2 0x4EC7 JUMP JUMPDEST POP PUSH1 0x80 DUP3 ADD MLOAD PUSH2 0x4FBF PUSH1 0x80 DUP6 ADD DUP3 PUSH2 0x4ED6 JUMP JUMPDEST POP PUSH1 0xA0 DUP3 ADD MLOAD PUSH2 0x4FD2 PUSH1 0xA0 DUP6 ADD DUP3 PUSH2 0x4ED6 JUMP JUMPDEST POP PUSH1 0xC0 DUP3 ADD MLOAD PUSH2 0x4FE5 PUSH1 0xC0 DUP6 ADD DUP3 PUSH2 0x4ED6 JUMP JUMPDEST POP PUSH1 0xE0 DUP3 ADD MLOAD PUSH2 0x4FF8 PUSH1 0xE0 DUP6 ADD DUP3 PUSH2 0x4ED6 JUMP JUMPDEST POP PUSH2 0x100 DUP3 ADD MLOAD PUSH2 0x500D PUSH2 0x100 DUP6 ADD DUP3 PUSH2 0x4ED6 JUMP JUMPDEST POP PUSH2 0x120 DUP3 ADD MLOAD PUSH2 0x5022 PUSH2 0x120 DUP6 ADD DUP3 PUSH2 0x4ED6 JUMP JUMPDEST POP POP POP POP JUMP JUMPDEST PUSH0 DUP3 DUP3 MSTORE PUSH1 0x20 DUP3 ADD SWAP1 POP SWAP3 SWAP2 POP POP JUMP JUMPDEST PUSH0 PUSH2 0x5042 DUP3 PUSH2 0x4AC2 JUMP JUMPDEST PUSH2 0x504C DUP2 DUP6 PUSH2 0x5028 JUMP JUMPDEST SWAP4 POP PUSH2 0x505C DUP2 DUP6 PUSH1 0x20 DUP7 ADD PUSH2 0x4ADC JUMP JUMPDEST PUSH2 0x5065 DUP2 PUSH2 0x4AEA JUMP JUMPDEST DUP5 ADD SWAP2 POP POP SWAP3 SWAP2 POP POP JUMP JUMPDEST PUSH2 0x5079 DUP2 PUSH2 0x4A0C JUMP JUMPDEST DUP3 MSTORE POP POP JUMP JUMPDEST PUSH0 PUSH1 0xE0 DUP4 ADD PUSH0 DUP4 ADD MLOAD DUP5 DUP3 SUB PUSH0 DUP7 ADD MSTORE PUSH2 0x5099 DUP3 DUP3 PUSH2 0x5038 JUMP JUMPDEST SWAP2 POP POP PUSH1 0x20 DUP4 ADD MLOAD DUP5 DUP3 SUB PUSH1 0x20 DUP7 ADD MSTORE PUSH2 0x50B3 DUP3 DUP3 PUSH2 0x5038 JUMP JUMPDEST SWAP2 POP POP PUSH1 0x40 DUP4 ADD MLOAD PUSH2 0x50C8 PUSH1 0x40 DUP7 ADD DUP3 PUSH2 0x4EC7 JUMP JUMPDEST POP PUSH1 0x60 DUP4 ADD MLOAD PUSH2 0x50DB PUSH1 0x60 DUP7 ADD DUP3 PUSH2 0x4EC7 JUMP JUMPDEST POP PUSH1 0x80 DUP4 ADD MLOAD PUSH2 0x50EE PUSH1 0x80 DUP7 ADD DUP3 PUSH2 0x4ED6 JUMP JUMPDEST POP PUSH1 0xA0 DUP4 ADD MLOAD PUSH2 0x5101 PUSH1 0xA0 DUP7 ADD DUP3 PUSH2 0x4ED6 JUMP JUMPDEST POP PUSH1 0xC0 DUP4 ADD MLOAD PUSH2 0x5114 PUSH1 0xC0 DUP7 ADD DUP3 PUSH2 0x5070 JUMP JUMPDEST POP DUP1 SWAP2 POP POP SWAP3 SWAP2 POP POP JUMP JUMPDEST PUSH0 PUSH2 0x220 DUP3 ADD SWAP1 POP PUSH2 0x5133 PUSH0 DUP4 ADD DUP7 PUSH2 0x4EE5 JUMP JUMPDEST PUSH2 0x5140 PUSH1 0xC0 DUP4 ADD DUP6 PUSH2 0x4F5E JUMP JUMPDEST DUP2 DUP2 SUB PUSH2 0x200 DUP4 ADD MSTORE PUSH2 0x5153 DUP2 DUP5 PUSH2 0x507F JUMP JUMPDEST SWAP1 POP SWAP5 SWAP4 POP POP POP POP JUMP JUMPDEST PUSH0 PUSH2 0x160 DUP4 ADD PUSH0 DUP4 ADD MLOAD PUSH2 0x5173 PUSH0 DUP7 ADD DUP3 PUSH2 0x5070 JUMP JUMPDEST POP PUSH1 0x20 DUP4 ADD MLOAD DUP5 DUP3 SUB PUSH1 0x20 DUP7 ADD MSTORE PUSH2 0x518B DUP3 DUP3 PUSH2 0x5038 JUMP JUMPDEST SWAP2 POP POP PUSH1 0x40 DUP4 ADD MLOAD PUSH2 0x51A0 PUSH1 0x40 DUP7 ADD DUP3 PUSH2 0x4EC7 JUMP JUMPDEST POP PUSH1 0x60 DUP4 ADD MLOAD PUSH2 0x51B3 PUSH1 0x60 DUP7 ADD DUP3 PUSH2 0x4EC7 JUMP JUMPDEST POP PUSH1 0x80 DUP4 ADD MLOAD PUSH2 0x51C6 PUSH1 0x80 DUP7 ADD DUP3 PUSH2 0x4EC7 JUMP JUMPDEST POP PUSH1 0xA0 DUP4 ADD MLOAD PUSH2 0x51D9 PUSH1 0xA0 DUP7 ADD DUP3 PUSH2 0x4EC7 JUMP JUMPDEST POP PUSH1 0xC0 DUP4 ADD MLOAD PUSH2 0x51EC PUSH1 0xC0 DUP7 ADD DUP3 PUSH2 0x4EC7 JUMP JUMPDEST POP PUSH1 0xE0 DUP4 ADD MLOAD PUSH2 0x51FF PUSH1 0xE0 DUP7 ADD DUP3 PUSH2 0x4ED6 JUMP JUMPDEST POP PUSH2 0x100 DUP4 ADD MLOAD PUSH2 0x5214 PUSH2 0x100 DUP7 ADD DUP3 PUSH2 0x4ED6 JUMP JUMPDEST POP PUSH2 0x120 DUP4 ADD MLOAD PUSH2 0x5229 PUSH2 0x120 DUP7 ADD DUP3 PUSH2 0x5070 JUMP JUMPDEST POP PUSH2 0x140 DUP4 ADD MLOAD PUSH2 0x523E PUSH2 0x140 DUP7 ADD DUP3 PUSH2 0x5070 JUMP JUMPDEST POP DUP1 SWAP2 POP POP SWAP3 SWAP2 POP POP JUMP JUMPDEST PUSH2 0x5252 DUP2 PUSH2 0x4D9A JUMP JUMPDEST DUP3 MSTORE POP POP JUMP JUMPDEST PUSH0 PUSH1 0xA0 DUP4 ADD PUSH0 DUP4 ADD MLOAD PUSH2 0x526D PUSH0 DUP7 ADD DUP3 PUSH2 0x5070 JUMP JUMPDEST POP PUSH1 0x20 DUP4 ADD MLOAD DUP5 DUP3 SUB PUSH1 0x20 DUP7 ADD MSTORE PUSH2 0x5285 DUP3 DUP3 PUSH2 0x5038 JUMP JUMPDEST SWAP2 POP POP PUSH1 0x40 DUP4 ADD MLOAD DUP5 DUP3 SUB PUSH1 0x40 DUP7 ADD MSTORE PUSH2 0x529F DUP3 DUP3 PUSH2 0x5038 JUMP JUMPDEST SWAP2 POP POP PUSH1 0x60 DUP4 ADD MLOAD PUSH2 0x52B4 PUSH1 0x60 DUP7 ADD DUP3 PUSH2 0x5249 JUMP JUMPDEST POP PUSH1 0x80 DUP4 ADD MLOAD PUSH2 0x52C7 PUSH1 0x80 DUP7 ADD DUP3 PUSH2 0x4ED6 JUMP JUMPDEST POP DUP1 SWAP2 POP POP SWAP3 SWAP2 POP POP JUMP JUMPDEST PUSH0 PUSH1 0xA0 DUP4 ADD PUSH0 DUP4 ADD MLOAD PUSH2 0x52E7 PUSH0 DUP7 ADD DUP3 PUSH2 0x5070 JUMP JUMPDEST POP PUSH1 0x20 DUP4 ADD MLOAD DUP5 DUP3 SUB PUSH1 0x20 DUP7 ADD MSTORE PUSH2 0x52FF DUP3 DUP3 PUSH2 0x5038 JUMP JUMPDEST SWAP2 POP POP PUSH1 0x40 DUP4 ADD MLOAD DUP5 DUP3 SUB PUSH1 0x40 DUP7 ADD MSTORE PUSH2 0x5319 DUP3 DUP3 PUSH2 0x5038 JUMP JUMPDEST SWAP2 POP POP PUSH1 0x60 DUP4 ADD MLOAD PUSH2 0x532E PUSH1 0x60 DUP7 ADD DUP3 PUSH2 0x5249 JUMP JUMPDEST POP PUSH1 0x80 DUP4 ADD MLOAD PUSH2 0x5341 PUSH1 0x80 DUP7 ADD DUP3 PUSH2 0x5249 JUMP JUMPDEST POP DUP1 SWAP2 POP POP SWAP3 SWAP2 POP POP JUMP JUMPDEST PUSH0 PUSH2 0x120 DUP4 ADD PUSH0 DUP4 ADD MLOAD PUSH2 0x5362 PUSH0 DUP7 ADD DUP3 PUSH2 0x5070 JUMP JUMPDEST POP PUSH1 0x20 DUP4 ADD MLOAD DUP5 DUP3 SUB PUSH1 0x20 DUP7 ADD MSTORE PUSH2 0x537A DUP3 DUP3 PUSH2 0x5038 JUMP JUMPDEST SWAP2 POP POP PUSH1 0x40 DUP4 ADD MLOAD DUP5 DUP3 SUB PUSH1 0x40 DUP7 ADD MSTORE PUSH2 0x5394 DUP3 DUP3 PUSH2 0x5038 JUMP JUMPDEST SWAP2 POP POP PUSH1 0x60 DUP4 ADD MLOAD PUSH2 0x53A9 PUSH1 0x60 DUP7 ADD DUP3 PUSH2 0x4EC7 JUMP JUMPDEST POP PUSH1 0x80 DUP4 ADD MLOAD PUSH2 0x53BC PUSH1 0x80 DUP7 ADD DUP3 PUSH2 0x4EC7 JUMP JUMPDEST POP PUSH1 0xA0 DUP4 ADD MLOAD PUSH2 0x53CF PUSH1 0xA0 DUP7 ADD DUP3 PUSH2 0x4EC7 JUMP JUMPDEST POP PUSH1 0xC0 DUP4 ADD MLOAD PUSH2 0x53E2 PUSH1 0xC0 DUP7 ADD DUP3 PUSH2 0x4EC7 JUMP JUMPDEST POP PUSH1 0xE0 DUP4 ADD MLOAD PUSH2 0x53F5 PUSH1 0xE0 DUP7 ADD DUP3 PUSH2 0x5070 JUMP JUMPDEST POP PUSH2 0x100 DUP4 ADD MLOAD PUSH2 0x540A PUSH2 0x100 DUP7 ADD DUP3 PUSH2 0x4ED6 JUMP JUMPDEST POP DUP1 SWAP2 POP POP SWAP3 SWAP2 POP POP JUMP JUMPDEST PUSH0 PUSH1 0x80 DUP3 ADD SWAP1 POP DUP2 DUP2 SUB PUSH0 DUP4 ADD MSTORE PUSH2 0x542D DUP2 DUP8 PUSH2 0x515D JUMP JUMPDEST SWAP1 POP DUP2 DUP2 SUB PUSH1 0x20 DUP4 ADD MSTORE PUSH2 0x5441 DUP2 DUP7 PUSH2 0x5258 JUMP JUMPDEST SWAP1 POP DUP2 DUP2 SUB PUSH1 0x40 DUP4 ADD MSTORE PUSH2 0x5455 DUP2 DUP6 PUSH2 0x52D2 JUMP JUMPDEST SWAP1 POP DUP2 DUP2 SUB PUSH1 0x60 DUP4 ADD MSTORE PUSH2 0x5469 DUP2 DUP5 PUSH2 0x534C JUMP JUMPDEST SWAP1 POP SWAP6 SWAP5 POP POP POP POP POP JUMP JUMPDEST PUSH0 PUSH1 0x20 DUP3 ADD SWAP1 POP PUSH2 0x5487 PUSH0 DUP4 ADD DUP5 PUSH2 0x4B3D JUMP JUMPDEST SWAP3 SWAP2 POP POP JUMP JUMPDEST PUSH0 DUP1 REVERT JUMPDEST PUSH0 DUP1 REVERT JUMPDEST PUSH32 0x4E487B7100000000000000000000000000000000000000000000000000000000 PUSH0 MSTORE PUSH1 0x41 PUSH1 0x4 MSTORE PUSH1 0x24 PUSH0 REVERT JUMPDEST PUSH2 0x54CB DUP3 PUSH2 0x4AEA JUMP JUMPDEST DUP2 ADD DUP2 DUP2 LT PUSH8 0xFFFFFFFFFFFFFFFF DUP3 GT OR ISZERO PUSH2 0x54EA JUMPI PUSH2 0x54E9 PUSH2 0x5495 JUMP JUMPDEST JUMPDEST DUP1 PUSH1 0x40 MSTORE POP POP POP JUMP JUMPDEST PUSH0 PUSH2 0x54FC PUSH2 0x497E JUMP JUMPDEST SWAP1 POP PUSH2 0x5508 DUP3 DUP3 PUSH2 0x54C2 JUMP JUMPDEST SWAP2 SWAP1 POP JUMP JUMPDEST PUSH0 PUSH8 0xFFFFFFFFFFFFFFFF DUP3 GT ISZERO PUSH2 0x5527 JUMPI PUSH2 0x5526 PUSH2 0x5495 JUMP JUMPDEST JUMPDEST PUSH2 0x5530 DUP3 PUSH2 0x4AEA JUMP JUMPDEST SWAP1 POP PUSH1 0x20 DUP2 ADD SWAP1 POP SWAP2 SWAP1 POP JUMP JUMPDEST DUP3 DUP2 DUP4 CALLDATACOPY PUSH0 DUP4 DUP4 ADD MSTORE POP POP POP JUMP JUMPDEST PUSH0 PUSH2 0x555D PUSH2 0x5558 DUP5 PUSH2 0x550D JUMP JUMPDEST PUSH2 0x54F3 JUMP JUMPDEST SWAP1 POP DUP3 DUP2 MSTORE PUSH1 0x20 DUP2 ADD DUP5 DUP5 DUP5 ADD GT ISZERO PUSH2 0x5579 JUMPI PUSH2 0x5578 PUSH2 0x5491 JUMP JUMPDEST JUMPDEST PUSH2 0x5584 DUP5 DUP3 DUP6 PUSH2 0x553D JUMP JUMPDEST POP SWAP4 SWAP3 POP POP POP JUMP JUMPDEST PUSH0 DUP3 PUSH1 0x1F DUP4 ADD SLT PUSH2 0x55A0 JUMPI PUSH2 0x559F PUSH2 0x548D JUMP JUMPDEST JUMPDEST DUP2 CALLDATALOAD PUSH2 0x55B0 DUP5 DUP3 PUSH1 0x20 DUP7 ADD PUSH2 0x554B JUMP JUMPDEST SWAP2 POP POP SWAP3 SWAP2 POP POP JUMP JUMPDEST PUSH0 DUP1 PUSH0 DUP1 PUSH0 DUP1 PUSH0 DUP1 PUSH2 0x100 DUP10 DUP12 SUB SLT ISZERO PUSH2 0x55D6 JUMPI PUSH2 0x55D5 PUSH2 0x4987 JUMP JUMPDEST JUMPDEST PUSH0 DUP10 ADD CALLDATALOAD PUSH8 0xFFFFFFFFFFFFFFFF DUP2 GT ISZERO PUSH2 0x55F3 JUMPI PUSH2 0x55F2 PUSH2 0x498B JUMP JUMPDEST JUMPDEST PUSH2 0x55FF DUP12 DUP3 DUP13 ADD PUSH2 0x558C JUMP JUMPDEST SWAP9 POP POP PUSH1 0x20 PUSH2 0x5610 DUP12 DUP3 DUP13 ADD PUSH2 0x49AE JUMP JUMPDEST SWAP8 POP POP PUSH1 0x40 PUSH2 0x5621 DUP12 DUP3 DUP13 ADD PUSH2 0x49AE JUMP JUMPDEST SWAP7 POP POP PUSH1 0x60 PUSH2 0x5632 DUP12 DUP3 DUP13 ADD PUSH2 0x49AE JUMP JUMPDEST SWAP6 POP POP PUSH1 0x80 PUSH2 0x5643 DUP12 DUP3 DUP13 ADD PUSH2 0x4CC2 JUMP JUMPDEST SWAP5 POP POP PUSH1 0xA0 PUSH2 0x5654 DUP12 DUP3 DUP13 ADD PUSH2 0x4A5B JUMP JUMPDEST SWAP4 POP POP PUSH1 0xC0 PUSH2 0x5665 DUP12 DUP3 DUP13 ADD PUSH2 0x4CC2 JUMP JUMPDEST SWAP3 POP POP PUSH1 0xE0 PUSH2 0x5676 DUP12 DUP3 DUP13 ADD PUSH2 0x49AE JUMP JUMPDEST SWAP2 POP POP SWAP3 SWAP6 SWAP9 POP SWAP3 SWAP6 SWAP9 SWAP1 SWAP4 SWAP7 POP JUMP JUMPDEST PUSH0 PUSH1 0x40 DUP3 ADD SWAP1 POP PUSH2 0x5699 PUSH0 DUP4 ADD DUP6 PUSH2 0x4A9A JUMP JUMPDEST PUSH2 0x56A6 PUSH1 0x20 DUP4 ADD DUP5 PUSH2 0x4A9A JUMP JUMPDEST SWAP4 SWAP3 POP POP POP JUMP JUMPDEST PUSH0 DUP1 PUSH0 DUP1 PUSH0 DUP1 PUSH0 DUP1 PUSH0 PUSH2 0x120 DUP11 DUP13 SUB SLT ISZERO PUSH2 0x56CB JUMPI PUSH2 0x56CA PUSH2 0x4987 JUMP JUMPDEST JUMPDEST PUSH0 PUSH2 0x56D8 DUP13 DUP3 DUP14 ADD PUSH2 0x4A5B JUMP JUMPDEST SWAP10 POP POP PUSH1 0x20 PUSH2 0x56E9 DUP13 DUP3 DUP14 ADD PUSH2 0x4A5B JUMP JUMPDEST SWAP9 POP POP PUSH1 0x40 DUP11 ADD CALLDATALOAD PUSH8 0xFFFFFFFFFFFFFFFF DUP2 GT ISZERO PUSH2 0x570A JUMPI PUSH2 0x5709 PUSH2 0x498B JUMP JUMPDEST JUMPDEST PUSH2 0x5716 DUP13 DUP3 DUP14 ADD PUSH2 0x558C JUMP JUMPDEST SWAP8 POP POP PUSH1 0x60 DUP11 ADD CALLDATALOAD PUSH8 0xFFFFFFFFFFFFFFFF DUP2 GT ISZERO PUSH2 0x5737 JUMPI PUSH2 0x5736 PUSH2 0x498B JUMP JUMPDEST JUMPDEST PUSH2 0x5743 DUP13 DUP3 DUP14 ADD PUSH2 0x558C JUMP JUMPDEST SWAP7 POP POP PUSH1 0x80 PUSH2 0x5754 DUP13 DUP3 DUP14 ADD PUSH2 0x49AE JUMP JUMPDEST SWAP6 POP POP PUSH1 0xA0 PUSH2 0x5765 DUP13 DUP3 DUP14 ADD PUSH2 0x49AE JUMP JUMPDEST SWAP5 POP POP PUSH1 0xC0 PUSH2 0x5776 DUP13 DUP3 DUP14 ADD PUSH2 0x49AE JUMP JUMPDEST SWAP4 POP POP PUSH1 0xE0 PUSH2 0x5787 DUP13 DUP3 DUP14 ADD PUSH2 0x49AE JUMP JUMPDEST SWAP3 POP POP PUSH2 0x100 PUSH2 0x5799 DUP13 DUP3 DUP14 ADD PUSH2 0x4CC2 JUMP JUMPDEST SWAP2 POP POP SWAP3 SWAP6 SWAP9 POP SWAP3 SWAP6 SWAP9 POP SWAP3 SWAP6 SWAP9 JUMP JUMPDEST PUSH0 PUSH2 0x120 DUP3 ADD SWAP1 POP PUSH2 0x57BD PUSH0 DUP4 ADD DUP13 PUSH2 0x4A1D JUMP JUMPDEST DUP2 DUP2 SUB PUSH1 0x20 DUP4 ADD MSTORE PUSH2 0x57CF DUP2 DUP12 PUSH2 0x4AFA JUMP JUMPDEST SWAP1 POP DUP2 DUP2 SUB PUSH1 0x40 DUP4 ADD MSTORE PUSH2 0x57E3 DUP2 DUP11 PUSH2 0x4AFA JUMP JUMPDEST SWAP1 POP PUSH2 0x57F2 PUSH1 0x60 DUP4 ADD DUP10 PUSH2 0x4A9A JUMP JUMPDEST PUSH2 0x57FF PUSH1 0x80 DUP4 ADD DUP9 PUSH2 0x4A9A JUMP JUMPDEST PUSH2 0x580C PUSH1 0xA0 DUP4 ADD DUP8 PUSH2 0x4A9A JUMP JUMPDEST PUSH2 0x5819 PUSH1 0xC0 DUP4 ADD DUP7 PUSH2 0x4A9A JUMP JUMPDEST PUSH2 0x5826 PUSH1 0xE0 DUP4 ADD DUP6 PUSH2 0x4A1D JUMP JUMPDEST PUSH2 0x5834 PUSH2 0x100 DUP4 ADD DUP5 PUSH2 0x4B3D JUMP JUMPDEST SWAP11 SWAP10 POP POP POP POP POP POP POP POP POP POP JUMP JUMPDEST PUSH0 DUP1 REVERT JUMPDEST PUSH0 DUP1 REVERT JUMPDEST PUSH0 DUP1 DUP4 PUSH1 0x1F DUP5 ADD SLT PUSH2 0x585F JUMPI PUSH2 0x585E PUSH2 0x548D JUMP JUMPDEST JUMPDEST DUP3 CALLDATALOAD SWAP1 POP PUSH8 0xFFFFFFFFFFFFFFFF DUP2 GT ISZERO PUSH2 0x587C JUMPI PUSH2 0x587B PUSH2 0x5842 JUMP JUMPDEST JUMPDEST PUSH1 0x20 DUP4 ADD SWAP2 POP DUP4 PUSH1 0x1 DUP3 MUL DUP4 ADD GT ISZERO PUSH2 0x5898 JUMPI PUSH2 0x5897 PUSH2 0x5846 JUMP JUMPDEST JUMPDEST SWAP3 POP SWAP3 SWAP1 POP JUMP JUMPDEST PUSH2 0x58A8 DUP2 PUSH2 0x4D9A JUMP JUMPDEST DUP2 EQ PUSH2 0x58B2 JUMPI PUSH0 DUP1 REVERT JUMPDEST POP JUMP JUMPDEST PUSH0 DUP2 CALLDATALOAD SWAP1 POP PUSH2 0x58C3 DUP2 PUSH2 0x589F JUMP JUMPDEST SWAP3 SWAP2 POP POP JUMP JUMPDEST PUSH0 DUP1 PUSH0 DUP1 PUSH0 DUP1 PUSH0 PUSH1 0xA0 DUP9 DUP11 SUB SLT ISZERO PUSH2 0x58E4 JUMPI PUSH2 0x58E3 PUSH2 0x4987 JUMP JUMPDEST JUMPDEST PUSH0 PUSH2 0x58F1 DUP11 DUP3 DUP12 ADD PUSH2 0x4A5B JUMP JUMPDEST SWAP8 POP POP PUSH1 0x20 DUP9 ADD CALLDATALOAD PUSH8 0xFFFFFFFFFFFFFFFF DUP2 GT ISZERO PUSH2 0x5912 JUMPI PUSH2 0x5911 PUSH2 0x498B JUMP JUMPDEST JUMPDEST PUSH2 0x591E DUP11 DUP3 DUP12 ADD PUSH2 0x584A JUMP JUMPDEST SWAP7 POP SWAP7 POP POP PUSH1 0x40 DUP9 ADD CALLDATALOAD PUSH8 0xFFFFFFFFFFFFFFFF DUP2 GT ISZERO PUSH2 0x5941 JUMPI PUSH2 0x5940 PUSH2 0x498B JUMP JUMPDEST JUMPDEST PUSH2 0x594D DUP11 DUP3 DUP12 ADD PUSH2 0x584A JUMP JUMPDEST SWAP5 POP SWAP5 POP POP PUSH1 0x60 PUSH2 0x5960 DUP11 DUP3 DUP12 ADD PUSH2 0x58B5 JUMP JUMPDEST SWAP3 POP POP PUSH1 0x80 PUSH2 0x5971 DUP11 DUP3 DUP12 ADD PUSH2 0x4CC2 JUMP JUMPDEST SWAP2 POP POP SWAP3 SWAP6 SWAP9 SWAP2 SWAP5 SWAP8 POP SWAP3 SWAP6 POP JUMP JUMPDEST PUSH0 PUSH1 0xA0 DUP3 ADD SWAP1 POP PUSH2 0x5993 PUSH0 DUP4 ADD DUP9 PUSH2 0x4A1D JUMP JUMPDEST DUP2 DUP2 SUB PUSH1 0x20 DUP4 ADD MSTORE PUSH2 0x59A5 DUP2 DUP8 PUSH2 0x4AFA JUMP JUMPDEST SWAP1 POP DUP2 DUP2 SUB PUSH1 0x40 DUP4 ADD MSTORE PUSH2 0x59B9 DUP2 DUP7 PUSH2 0x4AFA JUMP JUMPDEST SWAP1 POP PUSH2 0x59C8 PUSH1 0x60 DUP4 ADD DUP6 PUSH2 0x4DA9 JUMP JUMPDEST PUSH2 0x59D5 PUSH1 0x80 DUP4 ADD DUP5 PUSH2 0x4DA9 JUMP JUMPDEST SWAP7 SWAP6 POP POP POP POP POP POP JUMP JUMPDEST PUSH0 DUP1 PUSH1 0x40 DUP4 DUP6 SUB SLT ISZERO PUSH2 0x59F5 JUMPI PUSH2 0x59F4 PUSH2 0x4987 JUMP JUMPDEST JUMPDEST PUSH0 PUSH2 0x5A02 DUP6 DUP3 DUP7 ADD PUSH2 0x4A5B JUMP JUMPDEST SWAP3 POP POP PUSH1 0x20 PUSH2 0x5A13 DUP6 DUP3 DUP7 ADD PUSH2 0x49AE JUMP JUMPDEST SWAP2 POP POP SWAP3 POP SWAP3 SWAP1 POP JUMP JUMPDEST PUSH0 PUSH8 0xFFFFFFFFFFFFFFFF DUP3 GT ISZERO PUSH2 0x5A37 JUMPI PUSH2 0x5A36 PUSH2 0x5495 JUMP JUMPDEST JUMPDEST PUSH1 0x20 DUP3 MUL SWAP1 POP PUSH1 0x20 DUP2 ADD SWAP1 POP SWAP2 SWAP1 POP JUMP JUMPDEST PUSH0 PUSH2 0x5A5A PUSH2 0x5A55 DUP5 PUSH2 0x5A1D JUMP JUMPDEST PUSH2 0x54F3 JUMP JUMPDEST SWAP1 POP DUP1 DUP4 DUP3 MSTORE PUSH1 0x20 DUP3 ADD SWAP1 POP PUSH1 0x20 DUP5 MUL DUP4 ADD DUP6 DUP2 GT ISZERO PUSH2 0x5A7D JUMPI PUSH2 0x5A7C PUSH2 0x5846 JUMP JUMPDEST JUMPDEST DUP4 JUMPDEST DUP2 DUP2 LT ISZERO PUSH2 0x5AA6 JUMPI DUP1 PUSH2 0x5A92 DUP9 DUP3 PUSH2 0x49AE JUMP JUMPDEST DUP5 MSTORE PUSH1 0x20 DUP5 ADD SWAP4 POP POP PUSH1 0x20 DUP2 ADD SWAP1 POP PUSH2 0x5A7F JUMP JUMPDEST POP POP POP SWAP4 SWAP3 POP POP POP JUMP JUMPDEST PUSH0 DUP3 PUSH1 0x1F DUP4 ADD SLT PUSH2 0x5AC4 JUMPI PUSH2 0x5AC3 PUSH2 0x548D JUMP JUMPDEST JUMPDEST DUP2 CALLDATALOAD PUSH2 0x5AD4 DUP5 DUP3 PUSH1 0x20 DUP7 ADD PUSH2 0x5A48 JUMP JUMPDEST SWAP2 POP POP SWAP3 SWAP2 POP POP JUMP JUMPDEST PUSH0 DUP1 PUSH0 DUP1 PUSH0 DUP1 PUSH0 PUSH1 0xE0 DUP9 DUP11 SUB SLT ISZERO PUSH2 0x5AF8 JUMPI PUSH2 0x5AF7 PUSH2 0x4987 JUMP JUMPDEST JUMPDEST PUSH0 PUSH2 0x5B05 DUP11 DUP3 DUP12 ADD PUSH2 0x49AE JUMP JUMPDEST SWAP8 POP POP PUSH1 0x20 PUSH2 0x5B16 DUP11 DUP3 DUP12 ADD PUSH2 0x49AE JUMP JUMPDEST SWAP7 POP POP PUSH1 0x40 DUP9 ADD CALLDATALOAD PUSH8 0xFFFFFFFFFFFFFFFF DUP2 GT ISZERO PUSH2 0x5B37 JUMPI PUSH2 0x5B36 PUSH2 0x498B JUMP JUMPDEST JUMPDEST PUSH2 0x5B43 DUP11 DUP3 DUP12 ADD PUSH2 0x5AB0 JUMP JUMPDEST SWAP6 POP POP PUSH1 0x60 DUP9 ADD CALLDATALOAD PUSH8 0xFFFFFFFFFFFFFFFF DUP2 GT ISZERO PUSH2 0x5B64 JUMPI PUSH2 0x5B63 PUSH2 0x498B JUMP JUMPDEST JUMPDEST PUSH2 0x5B70 DUP11 DUP3 DUP12 ADD PUSH2 0x558C JUMP JUMPDEST SWAP5 POP POP PUSH1 0x80 DUP9 ADD CALLDATALOAD PUSH8 0xFFFFFFFFFFFFFFFF DUP2 GT ISZERO PUSH2 0x5B91 JUMPI PUSH2 0x5B90 PUSH2 0x498B JUMP JUMPDEST JUMPDEST PUSH2 0x5B9D DUP11 DUP3 DUP12 ADD PUSH2 0x558C JUMP JUMPDEST SWAP4 POP POP PUSH1 0xA0 PUSH2 0x5BAE DUP11 DUP3 DUP12 ADD PUSH2 0x49AE JUMP JUMPDEST SWAP3 POP POP PUSH1 0xC0 PUSH2 0x5BBF DUP11 DUP3 DUP12 ADD PUSH2 0x4CC2 JUMP JUMPDEST SWAP2 POP POP SWAP3 SWAP6 SWAP9 SWAP2 SWAP5 SWAP8 POP SWAP3 SWAP6 POP JUMP JUMPDEST PUSH0 PUSH1 0xC0 DUP3 ADD SWAP1 POP PUSH2 0x5BE1 PUSH0 DUP4 ADD DUP10 PUSH2 0x4A9A JUMP JUMPDEST PUSH2 0x5BEE PUSH1 0x20 DUP4 ADD DUP9 PUSH2 0x4A9A JUMP JUMPDEST PUSH2 0x5BFB PUSH1 0x40 DUP4 ADD DUP8 PUSH2 0x4A9A JUMP JUMPDEST PUSH2 0x5C08 PUSH1 0x60 DUP4 ADD DUP7 PUSH2 0x4A9A JUMP JUMPDEST PUSH2 0x5C15 PUSH1 0x80 DUP4 ADD DUP6 PUSH2 0x4A9A JUMP JUMPDEST PUSH2 0x5C22 PUSH1 0xA0 DUP4 ADD DUP5 PUSH2 0x4B3D JUMP JUMPDEST SWAP8 SWAP7 POP POP POP POP POP POP POP JUMP JUMPDEST PUSH0 DUP1 PUSH0 DUP1 PUSH0 DUP1 PUSH0 DUP1 PUSH0 DUP1 PUSH0 PUSH2 0x160 DUP13 DUP15 SUB SLT ISZERO PUSH2 0x5C4D JUMPI PUSH2 0x5C4C PUSH2 0x4987 JUMP JUMPDEST JUMPDEST PUSH0 PUSH2 0x5C5A DUP15 DUP3 DUP16 ADD PUSH2 0x4A5B JUMP JUMPDEST SWAP12 POP POP PUSH1 0x20 DUP13 ADD CALLDATALOAD PUSH8 0xFFFFFFFFFFFFFFFF DUP2 GT ISZERO PUSH2 0x5C7B JUMPI PUSH2 0x5C7A PUSH2 0x498B JUMP JUMPDEST JUMPDEST PUSH2 0x5C87 DUP15 DUP3 DUP16 ADD PUSH2 0x558C JUMP JUMPDEST SWAP11 POP POP PUSH1 0x40 PUSH2 0x5C98 DUP15 DUP3 DUP16 ADD PUSH2 0x49AE JUMP JUMPDEST SWAP10 POP POP PUSH1 0x60 PUSH2 0x5CA9 DUP15 DUP3 DUP16 ADD PUSH2 0x49AE JUMP JUMPDEST SWAP9 POP POP PUSH1 0x80 PUSH2 0x5CBA DUP15 DUP3 DUP16 ADD PUSH2 0x49AE JUMP JUMPDEST SWAP8 POP POP PUSH1 0xA0 PUSH2 0x5CCB DUP15 DUP3 DUP16 ADD PUSH2 0x49AE JUMP JUMPDEST SWAP7 POP POP PUSH1 0xC0 PUSH2 0x5CDC DUP15 DUP3 DUP16 ADD PUSH2 0x49AE JUMP JUMPDEST SWAP6 POP POP PUSH1 0xE0 PUSH2 0x5CED DUP15 DUP3 DUP16 ADD PUSH2 0x4CC2 JUMP JUMPDEST SWAP5 POP POP PUSH2 0x100 PUSH2 0x5CFF DUP15 DUP3 DUP16 ADD PUSH2 0x4A5B JUMP JUMPDEST SWAP4 POP POP PUSH2 0x120 PUSH2 0x5D11 DUP15 DUP3 DUP16 ADD PUSH2 0x4A5B JUMP JUMPDEST SWAP3 POP POP PUSH2 0x140 PUSH2 0x5D23 DUP15 DUP3 DUP16 ADD PUSH2 0x4CC2 JUMP JUMPDEST SWAP2 POP POP SWAP3 SWAP6 SWAP9 SWAP12 POP SWAP3 SWAP6 SWAP9 SWAP12 SWAP1 SWAP4 SWAP7 SWAP10 POP JUMP JUMPDEST PUSH0 DUP1 PUSH0 DUP1 PUSH0 DUP1 PUSH0 DUP1 PUSH0 DUP1 PUSH0 PUSH2 0x160 DUP13 DUP15 SUB SLT ISZERO PUSH2 0x5D56 JUMPI PUSH2 0x5D55 PUSH2 0x4987 JUMP JUMPDEST JUMPDEST PUSH0 PUSH2 0x5D63 DUP15 DUP3 DUP16 ADD PUSH2 0x4A5B JUMP JUMPDEST SWAP12 POP POP PUSH1 0x20 PUSH2 0x5D74 DUP15 DUP3 DUP16 ADD PUSH2 0x4A5B JUMP JUMPDEST SWAP11 POP POP PUSH1 0x40 DUP13 ADD CALLDATALOAD PUSH8 0xFFFFFFFFFFFFFFFF DUP2 GT ISZERO PUSH2 0x5D95 JUMPI PUSH2 0x5D94 PUSH2 0x498B JUMP JUMPDEST JUMPDEST PUSH2 0x5DA1 DUP15 DUP3 DUP16 ADD PUSH2 0x558C JUMP JUMPDEST SWAP10 POP POP PUSH1 0x60 PUSH2 0x5DB2 DUP15 DUP3 DUP16 ADD PUSH2 0x49AE JUMP JUMPDEST SWAP9 POP POP PUSH1 0x80 PUSH2 0x5DC3 DUP15 DUP3 DUP16 ADD PUSH2 0x49AE JUMP JUMPDEST SWAP8 POP POP PUSH1 0xA0 PUSH2 0x5DD4 DUP15 DUP3 DUP16 ADD PUSH2 0x49AE JUMP JUMPDEST SWAP7 POP POP PUSH1 0xC0 PUSH2 0x5DE5 DUP15 DUP3 DUP16 ADD PUSH2 0x49AE JUMP JUMPDEST SWAP6 POP POP PUSH1 0xE0 PUSH2 0x5DF6 DUP15 DUP3 DUP16 ADD PUSH2 0x49AE JUMP JUMPDEST SWAP5 POP POP PUSH2 0x100 PUSH2 0x5E08 DUP15 DUP3 DUP16 ADD PUSH2 0x4A5B JUMP JUMPDEST SWAP4 POP POP PUSH2 0x120 PUSH2 0x5E1A DUP15 DUP3 DUP16 ADD PUSH2 0x58B5 JUMP JUMPDEST SWAP3 POP POP PUSH2 0x140 PUSH2 0x5E2C DUP15 DUP3 DUP16 ADD PUSH2 0x4CC2 JUMP JUMPDEST SWAP2 POP POP SWAP3 SWAP6 SWAP9 SWAP12 POP SWAP3 SWAP6 SWAP9 SWAP12 SWAP1 SWAP4 SWAP7 SWAP10 POP JUMP JUMPDEST PUSH0 DUP1 PUSH0 DUP1 PUSH0 PUSH1 0xA0 DUP7 DUP9 SUB SLT ISZERO PUSH2 0x5E58 JUMPI PUSH2 0x5E57 PUSH2 0x4987 JUMP JUMPDEST JUMPDEST PUSH0 PUSH2 0x5E65 DUP9 DUP3 DUP10 ADD PUSH2 0x4A5B JUMP JUMPDEST SWAP6 POP POP PUSH1 0x20 DUP7 ADD CALLDATALOAD PUSH8 0xFFFFFFFFFFFFFFFF DUP2 GT ISZERO PUSH2 0x5E86 JUMPI PUSH2 0x5E85 PUSH2 0x498B JUMP JUMPDEST JUMPDEST PUSH2 0x5E92 DUP9 DUP3 DUP10 ADD PUSH2 0x558C JUMP JUMPDEST SWAP5 POP POP PUSH1 0x40 DUP7 ADD CALLDATALOAD PUSH8 0xFFFFFFFFFFFFFFFF DUP2 GT ISZERO PUSH2 0x5EB3 JUMPI PUSH2 0x5EB2 PUSH2 0x498B JUMP JUMPDEST JUMPDEST PUSH2 0x5EBF DUP9 DUP3 DUP10 ADD PUSH2 0x558C JUMP JUMPDEST SWAP4 POP POP PUSH1 0x60 PUSH2 0x5ED0 DUP9 DUP3 DUP10 ADD PUSH2 0x58B5 JUMP JUMPDEST SWAP3 POP POP PUSH1 0x80 PUSH2 0x5EE1 DUP9 DUP3 DUP10 ADD PUSH2 0x58B5 JUMP JUMPDEST SWAP2 POP POP SWAP3 SWAP6 POP SWAP3 SWAP6 SWAP1 SWAP4 POP JUMP JUMPDEST PUSH0 PUSH2 0x5EF8 DUP3 PUSH2 0x49ED JUMP JUMPDEST SWAP1 POP SWAP2 SWAP1 POP JUMP JUMPDEST PUSH2 0x5F08 DUP2 PUSH2 0x5EEE JUMP JUMPDEST DUP2 EQ PUSH2 0x5F12 JUMPI PUSH0 DUP1 REVERT JUMPDEST POP JUMP JUMPDEST PUSH0 DUP2 CALLDATALOAD SWAP1 POP PUSH2 0x5F23 DUP2 PUSH2 0x5EFF JUMP JUMPDEST SWAP3 SWAP2 POP POP JUMP JUMPDEST PUSH0 DUP1 PUSH0 DUP1 PUSH0 DUP1 PUSH0 DUP1 PUSH0 DUP1 PUSH2 0x140 DUP12 DUP14 SUB SLT ISZERO PUSH2 0x5F48 JUMPI PUSH2 0x5F47 PUSH2 0x4987 JUMP JUMPDEST JUMPDEST PUSH0 PUSH2 0x5F55 DUP14 DUP3 DUP15 ADD PUSH2 0x5F15 JUMP JUMPDEST SWAP11 POP POP PUSH1 0x20 PUSH2 0x5F66 DUP14 DUP3 DUP15 ADD PUSH2 0x49AE JUMP JUMPDEST SWAP10 POP POP PUSH1 0x40 PUSH2 0x5F77 DUP14 DUP3 DUP15 ADD PUSH2 0x49AE JUMP JUMPDEST SWAP9 POP POP PUSH1 0x60 PUSH2 0x5F88 DUP14 DUP3 DUP15 ADD PUSH2 0x49AE JUMP JUMPDEST SWAP8 POP POP PUSH1 0x80 PUSH2 0x5F99 DUP14 DUP3 DUP15 ADD PUSH2 0x49AE JUMP JUMPDEST SWAP7 POP POP PUSH1 0xA0 PUSH2 0x5FAA DUP14 DUP3 DUP15 ADD PUSH2 0x4CC2 JUMP JUMPDEST SWAP6 POP POP PUSH1 0xC0 PUSH2 0x5FBB DUP14 DUP3 DUP15 ADD PUSH2 0x4CC2 JUMP JUMPDEST SWAP5 POP POP PUSH1 0xE0 PUSH2 0x5FCC DUP14 DUP3 DUP15 ADD PUSH2 0x4CC2 JUMP JUMPDEST SWAP4 POP POP PUSH2 0x100 PUSH2 0x5FDE DUP14 DUP3 DUP15 ADD PUSH2 0x4CC2 JUMP JUMPDEST SWAP3 POP POP PUSH2 0x120 PUSH2 0x5FF0 DUP14 DUP3 DUP15 ADD PUSH2 0x4CC2 JUMP JUMPDEST SWAP2 POP POP SWAP3 SWAP6 SWAP9 SWAP12 SWAP2 SWAP5 SWAP8 SWAP11 POP SWAP3 SWAP6 SWAP9 POP JUMP JUMPDEST PUSH32 0x4E487B7100000000000000000000000000000000000000000000000000000000 PUSH0 MSTORE PUSH1 0x22 PUSH1 0x4 MSTORE PUSH1 0x24 PUSH0 REVERT JUMPDEST PUSH0 PUSH1 0x2 DUP3 DIV SWAP1 POP PUSH1 0x1 DUP3 AND DUP1 PUSH2 0x6046 JUMPI PUSH1 0x7F DUP3 AND SWAP2 POP JUMPDEST PUSH1 0x20 DUP3 LT DUP2 SUB PUSH2 0x6059 JUMPI PUSH2 0x6058 PUSH2 0x6002 JUMP JUMPDEST JUMPDEST POP SWAP2 SWAP1 POP JUMP JUMPDEST PUSH32 0x4F6E6C79205468652051414C616220417574686F6972697A656420697320746F PUSH0 DUP3 ADD MSTORE PUSH32 0x20616464207468697320456E7472790000000000000000000000000000000000 PUSH1 0x20 DUP3 ADD MSTORE POP JUMP JUMPDEST PUSH0 PUSH2 0x60B9 PUSH1 0x2F DUP4 PUSH2 0x4ACC JUMP JUMPDEST SWAP2 POP PUSH2 0x60C4 DUP3 PUSH2 0x605F JUMP JUMPDEST PUSH1 0x40 DUP3 ADD SWAP1 POP SWAP2 SWAP1 POP JUMP JUMPDEST PUSH0 PUSH1 0x20 DUP3 ADD SWAP1 POP DUP2 DUP2 SUB PUSH0 DUP4 ADD MSTORE PUSH2 0x60E6 DUP2 PUSH2 0x60AD JUMP JUMPDEST SWAP1 POP SWAP2 SWAP1 POP JUMP JUMPDEST PUSH0 DUP2 SWAP1 POP SWAP2 SWAP1 POP JUMP JUMPDEST PUSH2 0x6107 PUSH2 0x6102 DUP3 PUSH2 0x498F JUMP JUMPDEST PUSH2 0x60ED JUMP JUMPDEST DUP3 MSTORE POP POP JUMP JUMPDEST PUSH0 PUSH2 0x6118 DUP3 DUP5 PUSH2 0x60F6 JUMP JUMPDEST PUSH1 0x20 DUP3 ADD SWAP2 POP DUP2 SWAP1 POP SWAP3 SWAP2 POP POP JUMP JUMPDEST PUSH32 0x4461746120456E746572656420646F6573206E6F74204D617463680000000000 PUSH0 DUP3 ADD MSTORE POP JUMP JUMPDEST PUSH0 PUSH2 0x615B PUSH1 0x1B DUP4 PUSH2 0x4ACC JUMP JUMPDEST SWAP2 POP PUSH2 0x6166 DUP3 PUSH2 0x6127 JUMP JUMPDEST PUSH1 0x20 DUP3 ADD SWAP1 POP SWAP2 SWAP1 POP JUMP JUMPDEST PUSH0 PUSH1 0x20 DUP3 ADD SWAP1 POP DUP2 DUP2 SUB PUSH0 DUP4 ADD MSTORE PUSH2 0x6188 DUP2 PUSH2 0x614F JUMP JUMPDEST SWAP1 POP SWAP2 SWAP1 POP JUMP JUMPDEST PUSH32 0x4C6162746573742064657461696C7320616C7265616479206D6F646966696564 PUSH0 DUP3 ADD MSTORE POP JUMP JUMPDEST PUSH0 PUSH2 0x61C3 PUSH1 0x20 DUP4 PUSH2 0x4ACC JUMP JUMPDEST SWAP2 POP PUSH2 0x61CE DUP3 PUSH2 0x618F JUMP JUMPDEST PUSH1 0x20 DUP3 ADD SWAP1 POP SWAP2 SWAP1 POP JUMP JUMPDEST PUSH0 PUSH1 0x20 DUP3 ADD SWAP1 POP DUP2 DUP2 SUB PUSH0 DUP4 ADD MSTORE PUSH2 0x61F0 DUP2 PUSH2 0x61B7 JUMP JUMPDEST SWAP1 POP SWAP2 SWAP1 POP JUMP JUMPDEST PUSH32 0x4F6E6C79207468652053797374656D2041646D696E20697320417574686F7269 PUSH0 DUP3 ADD MSTORE PUSH32 0x7A656420466F72205468697320416374696F6E00000000000000000000000000 PUSH1 0x20 DUP3 ADD MSTORE POP JUMP JUMPDEST PUSH0 PUSH2 0x6251 PUSH1 0x33 DUP4 PUSH2 0x4ACC JUMP JUMPDEST SWAP2 POP PUSH2 0x625C DUP3 PUSH2 0x61F7 JUMP JUMPDEST PUSH1 0x40 DUP3 ADD SWAP1 POP SWAP2 SWAP1 POP JUMP JUMPDEST PUSH0 PUSH1 0x20 DUP3 ADD SWAP1 POP DUP2 DUP2 SUB PUSH0 DUP4 ADD MSTORE PUSH2 0x627E DUP2 PUSH2 0x6245 JUMP JUMPDEST SWAP1 POP SWAP2 SWAP1 POP JUMP JUMPDEST PUSH32 0x4E487B7100000000000000000000000000000000000000000000000000000000 PUSH0 MSTORE PUSH1 0x11 PUSH1 0x4 MSTORE PUSH1 0x24 PUSH0 REVERT JUMPDEST PUSH0 DUP2 PUSH1 0x1 SHR SWAP1 POP SWAP2 SWAP1 POP JUMP JUMPDEST PUSH0 DUP1 DUP3 SWAP2 POP DUP4 SWAP1 POP JUMPDEST PUSH1 0x1 DUP6 GT ISZERO PUSH2 0x6307 JUMPI DUP1 DUP7 DIV DUP2 GT ISZERO PUSH2 0x62E3 JUMPI PUSH2 0x62E2 PUSH2 0x6285 JUMP JUMPDEST JUMPDEST PUSH1 0x1 DUP6 AND ISZERO PUSH2 0x62F2 JUMPI DUP1 DUP3 MUL SWAP2 POP JUMPDEST DUP1 DUP2 MUL SWAP1 POP PUSH2 0x6300 DUP6 PUSH2 0x62B2 JUMP JUMPDEST SWAP5 POP PUSH2 0x62C7 JUMP JUMPDEST SWAP5 POP SWAP5 SWAP3 POP POP POP JUMP JUMPDEST PUSH0 DUP3 PUSH2 0x631F JUMPI PUSH1 0x1 SWAP1 POP PUSH2 0x63DA JUMP JUMPDEST DUP2 PUSH2 0x632C JUMPI PUSH0 SWAP1 POP PUSH2 0x63DA JUMP JUMPDEST DUP2 PUSH1 0x1 DUP2 EQ PUSH2 0x6342 JUMPI PUSH1 0x2 DUP2 EQ PUSH2 0x634C JUMPI PUSH2 0x637B JUMP JUMPDEST PUSH1 0x1 SWAP2 POP POP PUSH2 0x63DA JUMP JUMPDEST PUSH1 0xFF DUP5 GT ISZERO PUSH2 0x635E JUMPI PUSH2 0x635D PUSH2 0x6285 JUMP JUMPDEST JUMPDEST DUP4 PUSH1 0x2 EXP SWAP2 POP DUP5 DUP3 GT ISZERO PUSH2 0x6375 JUMPI PUSH2 0x6374 PUSH2 0x6285 JUMP JUMPDEST JUMPDEST POP PUSH2 0x63DA JUMP JUMPDEST POP PUSH1 0x20 DUP4 LT PUSH2 0x133 DUP4 LT AND PUSH1 0x4E DUP5 LT PUSH1 0xB DUP5 LT AND OR ISZERO PUSH2 0x63B0 JUMPI DUP3 DUP3 EXP SWAP1 POP DUP4 DUP2 GT ISZERO PUSH2 0x63AB JUMPI PUSH2 0x63AA PUSH2 0x6285 JUMP JUMPDEST JUMPDEST PUSH2 0x63DA JUMP JUMPDEST PUSH2 0x63BD DUP5 DUP5 DUP5 PUSH1 0x1 PUSH2 0x62BE JUMP JUMPDEST SWAP3 POP SWAP1 POP DUP2 DUP5 DIV DUP2 GT ISZERO PUSH2 0x63D4 JUMPI PUSH2 0x63D3 PUSH2 0x6285 JUMP JUMPDEST JUMPDEST DUP2 DUP2 MUL SWAP1 POP JUMPDEST SWAP4 SWAP3 POP POP POP JUMP JUMPDEST PUSH0 PUSH2 0x63EB DUP3 PUSH2 0x498F JUMP JUMPDEST SWAP2 POP PUSH2 0x63F6 DUP4 PUSH2 0x498F JUMP JUMPDEST SWAP3 POP PUSH2 0x6423 PUSH32 0xFFFFFFFFFFFFFFFFFFFFFFFFFFFFFFFFFFFFFFFFFFFFFFFFFFFFFFFFFFFFFFFF DUP5 DUP5 PUSH2 0x6310 JUMP JUMPDEST SWAP1 POP SWAP3 SWAP2 POP POP JUMP JUMPDEST PUSH0 PUSH2 0x6435 DUP3 PUSH2 0x498F JUMP JUMPDEST SWAP2 POP PUSH32 0xFFFFFFFFFFFFFFFFFFFFFFFFFFFFFFFFFFFFFFFFFFFFFFFFFFFFFFFFFFFFFFFF DUP3 SUB PUSH2 0x6467 JUMPI PUSH2 0x6466 PUSH2 0x6285 JUMP JUMPDEST JUMPDEST PUSH1 0x1 DUP3 ADD SWAP1 POP SWAP2 SWAP1 POP JUMP JUMPDEST PUSH32 0x4F6E6C7920417574686F72697A65642F50726F64756374000000000000000000 PUSH0 DUP3 ADD MSTORE POP JUMP JUMPDEST PUSH0 PUSH2 0x64A6 PUSH1 0x17 DUP4 PUSH2 0x4ACC JUMP JUMPDEST SWAP2 POP PUSH2 0x64B1 DUP3 PUSH2 0x6472 JUMP JUMPDEST PUSH1 0x20 DUP3 ADD SWAP1 POP SWAP2 SWAP1 POP JUMP JUMPDEST PUSH0 PUSH1 0x20 DUP3 ADD SWAP1 POP DUP2 DUP2 SUB PUSH0 DUP4 ADD MSTORE PUSH2 0x64D3 DUP2 PUSH2 0x649A JUMP JUMPDEST SWAP1 POP SWAP2 SWAP1 POP JUMP JUMPDEST PUSH32 0x596F7572204661726D657220566572696669636174696F6E2073746174757320 PUSH0 DUP3 ADD MSTORE PUSH32 0x686173206265656E207265766F6B65642C20636F6E746163742041646D696E00 PUSH1 0x20 DUP3 ADD MSTORE POP JUMP JUMPDEST PUSH0 PUSH2 0x6534 PUSH1 0x3F DUP4 PUSH2 0x4ACC JUMP JUMPDEST SWAP2 POP PUSH2 0x653F DUP3 PUSH2 0x64DA JUMP JUMPDEST PUSH1 0x40 DUP3 ADD SWAP1 POP SWAP2 SWAP1 POP JUMP JUMPDEST PUSH0 PUSH1 0x20 DUP3 ADD SWAP1 POP DUP2 DUP2 SUB PUSH0 DUP4 ADD MSTORE PUSH2 0x6561 DUP2 PUSH2 0x6528 JUMP JUMPDEST SWAP1 POP SWAP2 SWAP1 POP JUMP JUMPDEST PUSH0 DUP2 SWAP1 POP DUP2 PUSH0 MSTORE PUSH1 0x20 PUSH0 KECCAK256 SWAP1 POP SWAP2 SWAP1 POP JUMP JUMPDEST PUSH0 PUSH1 0x20 PUSH1 0x1F DUP4 ADD DIV SWAP1 POP SWAP2 SWAP1 POP JUMP JUMPDEST PUSH0 DUP3 DUP3 SHL SWAP1 POP SWAP3 SWAP2 POP POP JUMP JUMPDEST PUSH0 PUSH1 0x8 DUP4 MUL PUSH2 0x65C4 PUSH32 0xFFFFFFFFFFFFFFFFFFFFFFFFFFFFFFFFFFFFFFFFFFFFFFFFFFFFFFFFFFFFFFFF DUP3 PUSH2 0x6589 JUMP JUMPDEST PUSH2 0x65CE DUP7 DUP4 PUSH2 0x6589 JUMP JUMPDEST SWAP6 POP DUP1 NOT DUP5 AND SWAP4 POP DUP1 DUP7 AND DUP5 OR SWAP3 POP POP POP SWAP4 SWAP3 POP POP POP JUMP JUMPDEST PUSH0 DUP2 SWAP1 POP SWAP2 SWAP1 POP JUMP JUMPDEST PUSH0 PUSH2 0x6609 PUSH2 0x6604 PUSH2 0x65FF DUP5 PUSH2 0x498F JUMP JUMPDEST PUSH2 0x65E6 JUMP JUMPDEST PUSH2 0x498F JUMP JUMPDEST SWAP1 POP SWAP2 SWAP1 POP JUMP JUMPDEST PUSH0 DUP2 SWAP1 POP SWAP2 SWAP1 POP JUMP JUMPDEST PUSH2 0x6622 DUP4 PUSH2 0x65EF JUMP JUMPDEST PUSH2 0x6636 PUSH2 0x662E DUP3 PUSH2 0x6610 JUMP JUMPDEST DUP5 DUP5 SLOAD PUSH2 0x6595 JUMP JUMPDEST DUP3 SSTORE POP POP POP POP JUMP JUMPDEST PUSH0 SWAP1 JUMP JUMPDEST PUSH2 0x664A PUSH2 0x663E JUMP JUMPDEST PUSH2 0x6655 DUP2 DUP5 DUP5 PUSH2 0x6619 JUMP JUMPDEST POP POP POP JUMP JUMPDEST JUMPDEST DUP2 DUP2 LT ISZERO PUSH2 0x6678 JUMPI PUSH2 0x666D PUSH0 DUP3 PUSH2 0x6642 JUMP JUMPDEST PUSH1 0x1 DUP2 ADD SWAP1 POP PUSH2 0x665B JUMP JUMPDEST POP POP JUMP JUMPDEST PUSH1 0x1F DUP3 GT ISZERO PUSH2 0x66BD JUMPI PUSH2 0x668E DUP2 PUSH2 0x6568 JUMP JUMPDEST PUSH2 0x6697 DUP5 PUSH2 0x657A JUMP JUMPDEST DUP2 ADD PUSH1 0x20 DUP6 LT ISZERO PUSH2 0x66A6 JUMPI DUP2 SWAP1 POP JUMPDEST PUSH2 0x66BA PUSH2 0x66B2 DUP6 PUSH2 0x657A JUMP JUMPDEST DUP4 ADD DUP3 PUSH2 0x665A JUMP JUMPDEST POP POP JUMPDEST POP POP POP JUMP JUMPDEST PUSH0 DUP3 DUP3 SHR SWAP1 POP SWAP3 SWAP2 POP POP JUMP JUMPDEST PUSH0 PUSH2 0x66DD PUSH0 NOT DUP5 PUSH1 0x8 MUL PUSH2 0x66C2 JUMP JUMPDEST NOT DUP1 DUP4 AND SWAP2 POP POP SWAP3 SWAP2 POP POP JUMP JUMPDEST PUSH0 PUSH2 0x66F5 DUP4 DUP4 PUSH2 0x66CE JUMP JUMPDEST SWAP2 POP DUP3 PUSH1 0x2 MUL DUP3 OR SWAP1 POP SWAP3 SWAP2 POP POP JUMP JUMPDEST PUSH2 0x670E DUP3 PUSH2 0x4AC2 JUMP JUMPDEST PUSH8 0xFFFFFFFFFFFFFFFF DUP2 GT ISZERO PUSH2 0x6727 JUMPI PUSH2 0x6726 PUSH2 0x5495 JUMP JUMPDEST JUMPDEST PUSH2 0x6731 DUP3 SLOAD PUSH2 0x602F JUMP JUMPDEST PUSH2 0x673C DUP3 DUP3 DUP6 PUSH2 0x667C JUMP JUMPDEST PUSH0 PUSH1 0x20 SWAP1 POP PUSH1 0x1F DUP4 GT PUSH1 0x1 DUP2 EQ PUSH2 0x676D JUMPI PUSH0 DUP5 ISZERO PUSH2 0x675B JUMPI DUP3 DUP8 ADD MLOAD SWAP1 POP JUMPDEST PUSH2 0x6765 DUP6 DUP3 PUSH2 0x66EA JUMP JUMPDEST DUP7 SSTORE POP PUSH2 0x67CC JUMP JUMPDEST PUSH1 0x1F NOT DUP5 AND PUSH2 0x677B DUP7 PUSH2 0x6568 JUMP JUMPDEST PUSH0 JUMPDEST DUP3 DUP2 LT ISZERO PUSH2 0x67A2 JUMPI DUP5 DUP10 ADD MLOAD DUP3 SSTORE PUSH1 0x1 DUP3 ADD SWAP2 POP PUSH1 0x20 DUP6 ADD SWAP5 POP PUSH1 0x20 DUP2 ADD SWAP1 POP PUSH2 0x677D JUMP JUMPDEST DUP7 DUP4 LT ISZERO PUSH2 0x67BF JUMPI DUP5 DUP10 ADD MLOAD PUSH2 0x67BB PUSH1 0x1F DUP10 AND DUP3 PUSH2 0x66CE JUMP JUMPDEST DUP4 SSTORE POP JUMPDEST PUSH1 0x1 PUSH1 0x2 DUP9 MUL ADD DUP9 SSTORE POP POP POP JUMPDEST POP POP POP POP POP POP JUMP JUMPDEST PUSH32 0x596F7520617265206E6F74207265676973746572656420617320612053687269 PUSH0 DUP3 ADD MSTORE PUSH32 0x6D70506C616E7400000000000000000000000000000000000000000000000000 PUSH1 0x20 DUP3 ADD MSTORE POP JUMP JUMPDEST PUSH0 PUSH2 0x682E PUSH1 0x27 DUP4 PUSH2 0x4ACC JUMP JUMPDEST SWAP2 POP PUSH2 0x6839 DUP3 PUSH2 0x67D4 JUMP JUMPDEST PUSH1 0x40 DUP3 ADD SWAP1 POP SWAP2 SWAP1 POP JUMP JUMPDEST PUSH0 PUSH1 0x20 DUP3 ADD SWAP1 POP DUP2 DUP2 SUB PUSH0 DUP4 ADD MSTORE PUSH2 0x685B DUP2 PUSH2 0x6822 JUMP JUMPDEST SWAP1 POP SWAP2 SWAP1 POP JUMP JUMPDEST PUSH32 0x596F7572205065726D697373696F6E20486173204265656E205265766F6B6564 PUSH0 DUP3 ADD MSTORE PUSH32 0x2000000000000000000000000000000000000000000000000000000000000000 PUSH1 0x20 DUP3 ADD MSTORE POP JUMP JUMPDEST PUSH0 PUSH2 0x68BC PUSH1 0x21 DUP4 PUSH2 0x4ACC JUMP JUMPDEST SWAP2 POP PUSH2 0x68C7 DUP3 PUSH2 0x6862 JUMP JUMPDEST PUSH1 0x40 DUP3 ADD SWAP1 POP SWAP2 SWAP1 POP JUMP JUMPDEST PUSH0 PUSH1 0x20 DUP3 ADD SWAP1 POP DUP2 DUP2 SUB PUSH0 DUP4 ADD MSTORE PUSH2 0x68E9 DUP2 PUSH2 0x68B0 JUMP JUMPDEST SWAP1 POP SWAP2 SWAP1 POP JUMP JUMPDEST PUSH32 0x546865204653534149204C6963656E73652056616C6964697479206861732065 PUSH0 DUP3 ADD MSTORE PUSH32 0x7870697265642C20706C6561736520636F6E746163742041646D696E00000000 PUSH1 0x20 DUP3 ADD MSTORE POP JUMP JUMPDEST PUSH0 PUSH2 0x694A PUSH1 0x3C DUP4 PUSH2 0x4ACC JUMP JUMPDEST SWAP2 POP PUSH2 0x6955 DUP3 PUSH2 0x68F0 JUMP JUMPDEST PUSH1 0x40 DUP3 ADD SWAP1 POP SWAP2 SWAP1 POP JUMP JUMPDEST PUSH0 PUSH1 0x20 DUP3 ADD SWAP1 POP DUP2 DUP2 SUB PUSH0 DUP4 ADD MSTORE PUSH2 0x6977 DUP2 PUSH2 0x693E JUMP JUMPDEST SWAP1 POP SWAP2 SWAP1 POP JUMP JUMPDEST PUSH32 0x4E487B7100000000000000000000000000000000000000000000000000000000 PUSH0 MSTORE PUSH1 0x32 PUSH1 0x4 MSTORE PUSH1 0x24 PUSH0 REVERT JUMPDEST PUSH32 0x546865206261746368206973204E6F74206F66207361746973666163746F7279 PUSH0 DUP3 ADD MSTORE PUSH32 0x207175616C697479000000000000000000000000000000000000000000000000 PUSH1 0x20 DUP3 ADD MSTORE POP JUMP JUMPDEST PUSH0 PUSH2 0x6A05 PUSH1 0x28 DUP4 PUSH2 0x4ACC JUMP JUMPDEST SWAP2 POP PUSH2 0x6A10 DUP3 PUSH2 0x69AB JUMP JUMPDEST PUSH1 0x40 DUP3 ADD SWAP1 POP SWAP2 SWAP1 POP JUMP JUMPDEST PUSH0 PUSH1 0x20 DUP3 ADD SWAP1 POP DUP2 DUP2 SUB PUSH0 DUP4 ADD MSTORE PUSH2 0x6A32 DUP2 PUSH2 0x69F9 JUMP JUMPDEST SWAP1 POP SWAP2 SWAP1 POP JUMP JUMPDEST PUSH32 0x5468652050726F6365737320506172616D6574657273206861766520616C7265 PUSH0 DUP3 ADD MSTORE PUSH32 0x616479206265656E206D6F64696669656420666F7220736F6D65205152000000 PUSH1 0x20 DUP3 ADD MSTORE POP JUMP JUMPDEST PUSH0 PUSH2 0x6A93 PUSH1 0x3D DUP4 PUSH2 0x4ACC JUMP JUMPDEST SWAP2 POP PUSH2 0x6A9E DUP3 PUSH2 0x6A39 JUMP JUMPDEST PUSH1 0x40 DUP3 ADD SWAP1 POP SWAP2 SWAP1 POP JUMP JUMPDEST PUSH0 PUSH1 0x20 DUP3 ADD SWAP1 POP DUP2 DUP2 SUB PUSH0 DUP4 ADD MSTORE PUSH2 0x6AC0 DUP2 PUSH2 0x6A87 JUMP JUMPDEST SWAP1 POP SWAP2 SWAP1 POP JUMP JUMPDEST PUSH32 0x596F7572207065726D697373696F6E2073746174757320686173206265656E20 PUSH0 DUP3 ADD MSTORE PUSH32 0x7265766F6B656400000000000000000000000000000000000000000000000000 PUSH1 0x20 DUP3 ADD MSTORE POP JUMP JUMPDEST PUSH0 PUSH2 0x6B21 PUSH1 0x27 DUP4 PUSH2 0x4ACC JUMP JUMPDEST SWAP2 POP PUSH2 0x6B2C DUP3 PUSH2 0x6AC7 JUMP JUMPDEST PUSH1 0x40 DUP3 ADD SWAP1 POP SWAP2 SWAP1 POP JUMP JUMPDEST PUSH0 PUSH1 0x20 DUP3 ADD SWAP1 POP DUP2 DUP2 SUB PUSH0 DUP4 ADD MSTORE PUSH2 0x6B4E DUP2 PUSH2 0x6B15 JUMP JUMPDEST SWAP1 POP SWAP2 SWAP1 POP JUMP JUMPDEST PUSH0 DUP2 PUSH1 0x60 SHL SWAP1 POP SWAP2 SWAP1 POP JUMP JUMPDEST PUSH0 PUSH2 0x6B6B DUP3 PUSH2 0x6B55 JUMP JUMPDEST SWAP1 POP SWAP2 SWAP1 POP JUMP JUMPDEST PUSH0 PUSH2 0x6B7C DUP3 PUSH2 0x6B61 JUMP JUMPDEST SWAP1 POP SWAP2 SWAP1 POP JUMP JUMPDEST PUSH2 0x6B94 PUSH2 0x6B8F DUP3 PUSH2 0x5EEE JUMP JUMPDEST PUSH2 0x6B72 JUMP JUMPDEST DUP3 MSTORE POP POP JUMP JUMPDEST PUSH0 PUSH2 0x6BA5 DUP3 DUP5 PUSH2 0x6B83 JUMP JUMPDEST PUSH1 0x14 DUP3 ADD SWAP2 POP DUP2 SWAP1 POP SWAP3 SWAP2 POP POP JUMP JUMPDEST PUSH32 0x456E7465726564204461746120446F6573204E6F74204D617463680000000000 PUSH0 DUP3 ADD MSTORE POP JUMP JUMPDEST PUSH0 PUSH2 0x6BE8 PUSH1 0x1B DUP4 PUSH2 0x4ACC JUMP JUMPDEST SWAP2 POP PUSH2 0x6BF3 DUP3 PUSH2 0x6BB4 JUMP JUMPDEST PUSH1 0x20 DUP3 ADD SWAP1 POP SWAP2 SWAP1 POP JUMP JUMPDEST PUSH0 PUSH1 0x20 DUP3 ADD SWAP1 POP DUP2 DUP2 SUB PUSH0 DUP4 ADD MSTORE PUSH2 0x6C15 DUP2 PUSH2 0x6BDC JUMP JUMPDEST SWAP1 POP SWAP2 SWAP1 POP JUMP JUMPDEST PUSH32 0x4E41424C204C6963656E73652056616C69646974792045787069726564212C20 PUSH0 DUP3 ADD MSTORE PUSH32 0x706C6561736520636F6E746163742041646D696E000000000000000000000000 PUSH1 0x20 DUP3 ADD MSTORE POP JUMP JUMPDEST PUSH0 PUSH2 0x6C76 PUSH1 0x34 DUP4 PUSH2 0x4ACC JUMP JUMPDEST SWAP2 POP PUSH2 0x6C81 DUP3 PUSH2 0x6C1C JUMP JUMPDEST PUSH1 0x40 DUP3 ADD SWAP1 POP SWAP2 SWAP1 POP JUMP JUMPDEST PUSH0 PUSH1 0x20 DUP3 ADD SWAP1 POP DUP2 DUP2 SUB PUSH0 DUP4 ADD MSTORE PUSH2 0x6CA3 DUP2 PUSH2 0x6C6A JUMP JUMPDEST SWAP1 POP SWAP2 SWAP1 POP JUMP JUMPDEST PUSH32 0x54686520626174636820446F6573204E6F74204D65657420746865204E656365 PUSH0 DUP3 ADD MSTORE PUSH32 0x7373617279205374616E64617264732100000000000000000000000000000000 PUSH1 0x20 DUP3 ADD MSTORE POP JUMP JUMPDEST PUSH0 PUSH2 0x6D04 PUSH1 0x30 DUP4 PUSH2 0x4ACC JUMP JUMPDEST SWAP2 POP PUSH2 0x6D0F DUP3 PUSH2 0x6CAA JUMP JUMPDEST PUSH1 0x40 DUP3 ADD SWAP1 POP SWAP2 SWAP1 POP JUMP JUMPDEST PUSH0 PUSH1 0x20 DUP3 ADD SWAP1 POP DUP2 DUP2 SUB PUSH0 DUP4 ADD MSTORE PUSH2 0x6D31 DUP2 PUSH2 0x6CF8 JUMP JUMPDEST SWAP1 POP SWAP2 SWAP1 POP JUMP JUMPDEST PUSH32 0x54686520536872696D70514120646174612068617320616C7265616479206265 PUSH0 DUP3 ADD MSTORE PUSH32 0x656E206D6F64696669656420666F722074686520626174636821000000000000 PUSH1 0x20 DUP3 ADD MSTORE POP JUMP JUMPDEST PUSH0 PUSH2 0x6D92 PUSH1 0x3A DUP4 PUSH2 0x4ACC JUMP JUMPDEST SWAP2 POP PUSH2 0x6D9D DUP3 PUSH2 0x6D38 JUMP JUMPDEST PUSH1 0x40 DUP3 ADD SWAP1 POP SWAP2 SWAP1 POP JUMP JUMPDEST PUSH0 PUSH1 0x20 DUP3 ADD SWAP1 POP DUP2 DUP2 SUB PUSH0 DUP4 ADD MSTORE PUSH2 0x6DBF DUP2 PUSH2 0x6D86 JUMP JUMPDEST SWAP1 POP SWAP2 SWAP1 POP JUMP JUMPDEST PUSH0 PUSH2 0x6DD0 DUP3 PUSH2 0x6B61 JUMP JUMPDEST SWAP1 POP SWAP2 SWAP1 POP JUMP JUMPDEST PUSH2 0x6DE8 PUSH2 0x6DE3 DUP3 PUSH2 0x4A0C JUMP JUMPDEST PUSH2 0x6DC6 JUMP JUMPDEST DUP3 MSTORE POP POP JUMP JUMPDEST PUSH0 PUSH2 0x6DF9 DUP3 DUP7 PUSH2 0x60F6 JUMP JUMPDEST PUSH1 0x20 DUP3 ADD SWAP2 POP PUSH2 0x6E09 DUP3 DUP6 PUSH2 0x6DD7 JUMP JUMPDEST PUSH1 0x14 DUP3 ADD SWAP2 POP PUSH2 0x6E19 DUP3 DUP5 PUSH2 0x6DD7 JUMP JUMPDEST PUSH1 0x14 DUP3 ADD SWAP2 POP DUP2 SWAP1 POP SWAP5 SWAP4 POP POP POP POP JUMP JUMPDEST PUSH32 0x4E487B7100000000000000000000000000000000000000000000000000000000 PUSH0 MSTORE PUSH1 0x12 PUSH1 0x4 MSTORE PUSH1 0x24 PUSH0 REVERT JUMPDEST PUSH0 PUSH2 0x6E61 DUP3 PUSH2 0x498F JUMP JUMPDEST SWAP2 POP PUSH2 0x6E6C DUP4 PUSH2 0x498F JUMP JUMPDEST SWAP3 POP DUP3 PUSH2 0x6E7C JUMPI PUSH2 0x6E7B PUSH2 0x6E2A JUMP JUMPDEST JUMPDEST DUP3 DUP3 MOD SWAP1 POP SWAP3 SWAP2 POP POP JUMP INVALID LOG2 PUSH5 0x6970667358 0x22 SLT KECCAK256 0xD1 SWAP9 SHL 0xA6 0xF9 PUSH29 0x6FD794F17D5DF1D229619056DE447EBA993A172C3679F43A68E664736F PUSH13 0x634300081A0033000000000000 "
		},
		"gasEstimates": {
			"creation": {
				"codeDepositCost": "5669800",
				"executionCost": "141692",
				"totalCost": "5811492"
			},
			"external": {
				"AdminTruckCount()": "2493",
				"AdminTruckDataQuery(address)": "infinite",
				"CreateFamer(address,string,string,uint32,bool)": "infinite",
				"FarmerCount()": "2513",
				"FarmerList(uint256)": "2894",
				"FarmerQuery(address)": "infinite",
				"IndustryCount()": "2493",
				"LabCount()": "2537",
				"LabQuery(address)": "infinite",
				"PrdctCount()": "2536",
				"PrdctDataQuery(address)": "infinite",
				"PrdctList(uint256)": "2872",
				"ProcessIndustryList(uint256)": "2917",
				"ProcessIndustryQuery(address)": "infinite",
				"QALablist(uint256)": "2960",
				"QRquery(uint256)": "infinite",
				"Techparam(uint256)": "infinite",
				"TruckList(uint256)": "2874",
				"_pcsStatus()": "2598",
				"addPrdct(string,uint256,uint256,uint256,bool,address,bool,uint256)": "infinite",
				"addPrdctData(address,string,uint256,uint256,uint256,uint256,uint256,bool,address,address,bool)": "infinite",
				"addProcessData(uint256,uint256,uint256[],string,string,uint256,bool)": "infinite",
				"addQAData(address,uint256,uint256,uint256,uint256,uint256,uint256,uint256,bool)": "infinite",
				"addQALab(address,string,string,uint32,uint32)": "infinite",
				"addShrimpIndustryData(address,address,string,string,uint256,uint256,uint256,uint256,bool)": "infinite",
				"addShrimpQAData(address,uint256,uint256,uint256,uint256,bool,bool,bool,bool,bool)": "infinite",
				"addTruckData(address,address,string,uint256,uint256,uint256,uint256,uint256,address,uint32,bool)": "infinite",
				"admin()": "2596",
				"checkShrimp(address)": "728",
				"checkShrimpIndustry(address)": "infinite",
				"fetchProductBasicDetails(uint256)": "infinite",
				"fetchProductTechDetails(uint256)": "infinite",
				"prdctCount(address)": "2871",
				"prdctTag(address,uint256)": "infinite",
				"setQRDigits(uint256)": "infinite"
			}
		},
		"methodIdentifiers": {
			"AdminTruckCount()": "9cb76c6e",
			"AdminTruckDataQuery(address)": "1264b3b8",
			"CreateFamer(address,string,string,uint32,bool)": "a10ab95f",
			"FarmerCount()": "bc018b8a",
			"FarmerList(uint256)": "c4cfccd5",
			"FarmerQuery(address)": "205bea44",
			"IndustryCount()": "1c2622af",
			"LabCount()": "abb22237",
			"LabQuery(address)": "bbde9d85",
			"PrdctCount()": "953d01ce",
			"PrdctDataQuery(address)": "08385f86",
			"PrdctList(uint256)": "ba989eb2",
			"ProcessIndustryList(uint256)": "68f4f7ff",
			"ProcessIndustryQuery(address)": "9959f11e",
			"QALablist(uint256)": "96418c98",
			"QRquery(uint256)": "28a6e1e7",
			"Techparam(uint256)": "c2f7a47b",
			"TruckList(uint256)": "051dcc92",
			"_pcsStatus()": "fa60631f",
			"addPrdct(string,uint256,uint256,uint256,bool,address,bool,uint256)": "76e1c22d",
			"addPrdctData(address,string,uint256,uint256,uint256,uint256,uint256,bool,address,address,bool)": "c8fd31df",
			"addProcessData(uint256,uint256,uint256[],string,string,uint256,bool)": "c2b44276",
			"addQAData(address,uint256,uint256,uint256,uint256,uint256,uint256,uint256,bool)": "1724031e",
			"addQALab(address,string,string,uint32,uint32)": "cfe352da",
			"addShrimpIndustryData(address,address,string,string,uint256,uint256,uint256,uint256,bool)": "7a7e53e0",
			"addShrimpQAData(address,uint256,uint256,uint256,uint256,bool,bool,bool,bool,bool)": "f8cf8293",
			"addTruckData(address,address,string,uint256,uint256,uint256,uint256,uint256,address,uint32,bool)": "cd856520",
			"admin()": "f851a440",
			"checkShrimp(address)": "c5671324",
			"checkShrimpIndustry(address)": "764dedb3",
			"fetchProductBasicDetails(uint256)": "6f997e59",
			"fetchProductTechDetails(uint256)": "57acee6e",
			"prdctCount(address)": "062c0dec",
			"prdctTag(address,uint256)": "bfd2afab",
			"setQRDigits(uint256)": "3bed7621"
		}
	},
	"abi": [
		{
			"inputs": [],
			"name": "AdminTruckCount",
			"outputs": [
				{
					"internalType": "uint256",
					"name": "",
					"type": "uint256"
				}
			],
			"stateMutability": "view",
			"type": "function"
		},
		{
			"inputs": [
				{
					"internalType": "address",
					"name": "",
					"type": "address"
				}
			],
			"name": "AdminTruckDataQuery",
			"outputs": [
				{
					"internalType": "address",
					"name": "PayableBeneficiary",
					"type": "address"
				},
				{
					"internalType": "address",
					"name": "addTruck",
					"type": "address"
				},
				{
					"internalType": "string",
					"name": "TruckName",
					"type": "string"
				},
				{
					"internalType": "uint256",
					"name": "TruckCapacity",
					"type": "uint256"
				},
				{
					"internalType": "uint256",
					"name": "DepartureDate",
					"type": "uint256"
				},
				{
					"internalType": "uint256",
					"name": "carrierTemp",
					"type": "uint256"
				},
				{
					"internalType": "uint256",
					"name": "carrierCondition",
					"type": "uint256"
				},
				{
					"internalType": "uint256",
					"name": "damageProof",
					"type": "uint256"
				},
				{
					"internalType": "address",
					"name": "testdoneby",
					"type": "address"
				},
				{
					"internalType": "uint256",
					"name": "TestHash",
					"type": "uint256"
				},
				{
					"internalType": "bool",
					"name": "TruckStatus",
					"type": "bool"
				}
			],
			"stateMutability": "view",
			"type": "function"
		},
		{
			"inputs": [
				{
					"internalType": "address",
					"name": "_farmer",
					"type": "address"
				},
				{
					"internalType": "string",
					"name": "memory_FarmerName",
					"type": "string"
				},
				{
					"internalType": "string",
					"name": "memory_regnID",
					"type": "string"
				},
				{
					"internalType": "uint32",
					"name": "_FarmerPinCode",
					"type": "uint32"
				},
				{
					"internalType": "bool",
					"name": "_keyStatus",
					"type": "bool"
				}
			],
			"name": "CreateFamer",
			"outputs": [],
			"stateMutability": "nonpayable",
			"type": "function"
		},
		{
			"inputs": [],
			"name": "FarmerCount",
			"outputs": [
				{
					"internalType": "uint256",
					"name": "",
					"type": "uint256"
				}
			],
			"stateMutability": "view",
			"type": "function"
		},
		{
			"inputs": [
				{
					"internalType": "uint256",
					"name": "",
					"type": "uint256"
				}
			],
			"name": "FarmerList",
			"outputs": [
				{
					"internalType": "address",
					"name": "",
					"type": "address"
				}
			],
			"stateMutability": "view",
			"type": "function"
		},
		{
			"inputs": [
				{
					"internalType": "address",
					"name": "",
					"type": "address"
				}
			],
			"name": "FarmerQuery",
			"outputs": [
				{
					"internalType": "address",
					"name": "addFarmer",
					"type": "address"
				},
				{
					"internalType": "string",
					"name": "FMname",
					"type": "string"
				},
				{
					"internalType": "string",
					"name": "RegID",
					"type": "string"
				},
				{
					"internalType": "uint32",
					"name": "FarmerPinCode",
					"type": "uint32"
				},
				{
					"internalType": "bool",
					"name": "FSSAIcertified",
					"type": "bool"
				}
			],
			"stateMutability": "view",
			"type": "function"
		},
		{
			"inputs": [],
			"name": "IndustryCount",
			"outputs": [
				{
					"internalType": "uint256",
					"name": "",
					"type": "uint256"
				}
			],
			"stateMutability": "view",
			"type": "function"
		},
		{
			"inputs": [],
			"name": "LabCount",
			"outputs": [
				{
					"internalType": "uint256",
					"name": "",
					"type": "uint256"
				}
			],
			"stateMutability": "view",
			"type": "function"
		},
		{
			"inputs": [
				{
					"internalType": "address",
					"name": "",
					"type": "address"
				}
			],
			"name": "LabQuery",
			"outputs": [
				{
					"internalType": "address",
					"name": "addLab",
					"type": "address"
				},
				{
					"internalType": "string",
					"name": "QAName",
					"type": "string"
				},
				{
					"internalType": "string",
					"name": "AcredNo",
					"type": "string"
				},
				{
					"internalType": "uint32",
					"name": "TestDoneBy",
					"type": "uint32"
				},
				{
					"internalType": "uint32",
					"name": "LabPinCode",
					"type": "uint32"
				}
			],
			"stateMutability": "view",
			"type": "function"
		},
		{
			"inputs": [],
			"name": "PrdctCount",
			"outputs": [
				{
					"internalType": "uint256",
					"name": "",
					"type": "uint256"
				}
			],
			"stateMutability": "view",
			"type": "function"
		},
		{
			"inputs": [
				{
					"internalType": "address",
					"name": "",
					"type": "address"
				}
			],
			"name": "PrdctDataQuery",
			"outputs": [
				{
					"internalType": "address",
					"name": "addProd",
					"type": "address"
				},
				{
					"internalType": "string",
					"name": "prodName",
					"type": "string"
				},
				{
					"internalType": "uint256",
					"name": "prodHash",
					"type": "uint256"
				},
				{
					"internalType": "uint256",
					"name": "quantity",
					"type": "uint256"
				},
				{
					"internalType": "uint256",
					"name": "dateOfHarvesting",
					"type": "uint256"
				},
				{
					"internalType": "uint256",
					"name": "LabTestDate",
					"type": "uint256"
				},
				{
					"internalType": "uint256",
					"name": "QRCode",
					"type": "uint256"
				},
				{
					"internalType": "bool",
					"name": "QAPass",
					"type": "bool"
				},
				{
					"internalType": "address",
					"name": "testDoneBy",
					"type": "address"
				},
				{
					"internalType": "address",
					"name": "Farmer",
					"type": "address"
				},
				{
					"internalType": "bool",
					"name": "LabTestStatus",
					"type": "bool"
				}
			],
			"stateMutability": "view",
			"type": "function"
		},
		{
			"inputs": [
				{
					"internalType": "uint256",
					"name": "",
					"type": "uint256"
				}
			],
			"name": "PrdctList",
			"outputs": [
				{
					"internalType": "address",
					"name": "",
					"type": "address"
				}
			],
			"stateMutability": "view",
			"type": "function"
		},
		{
			"inputs": [
				{
					"internalType": "uint256",
					"name": "",
					"type": "uint256"
				}
			],
			"name": "ProcessIndustryList",
			"outputs": [
				{
					"internalType": "address",
					"name": "",
					"type": "address"
				}
			],
			"stateMutability": "view",
			"type": "function"
		},
		{
			"inputs": [
				{
					"internalType": "address",
					"name": "",
					"type": "address"
				}
			],
			"name": "ProcessIndustryQuery",
			"outputs": [
				{
					"internalType": "address",
					"name": "addIndustryAddress",
					"type": "address"
				},
				{
					"internalType": "string",
					"name": "IndustryName",
					"type": "string"
				},
				{
					"internalType": "string",
					"name": "NABL",
					"type": "string"
				},
				{
					"internalType": "uint256",
					"name": "NABLvalidity",
					"type": "uint256"
				},
				{
					"internalType": "uint256",
					"name": "FSSAIregno",
					"type": "uint256"
				},
				{
					"internalType": "uint256",
					"name": "FSSAIregnoValidUpto",
					"type": "uint256"
				},
				{
					"internalType": "uint256",
					"name": "plantPinCode",
					"type": "uint256"
				},
				{
					"internalType": "address",
					"name": "ProDoneBy",
					"type": "address"
				},
				{
					"internalType": "bool",
					"name": "plantStatus",
					"type": "bool"
				}
			],
			"stateMutability": "view",
			"type": "function"
		},
		{
			"inputs": [
				{
					"internalType": "uint256",
					"name": "",
					"type": "uint256"
				}
			],
			"name": "QALablist",
			"outputs": [
				{
					"internalType": "address",
					"name": "",
					"type": "address"
				}
			],
			"stateMutability": "view",
			"type": "function"
		},
		{
			"inputs": [
				{
					"internalType": "uint256",
					"name": "",
					"type": "uint256"
				}
			],
			"name": "QRquery",
			"outputs": [
				{
					"internalType": "address",
					"name": "addProd",
					"type": "address"
				},
				{
					"internalType": "string",
					"name": "prodName",
					"type": "string"
				},
				{
					"internalType": "uint256",
					"name": "prodHash",
					"type": "uint256"
				},
				{
					"internalType": "uint256",
					"name": "quantity",
					"type": "uint256"
				},
				{
					"internalType": "uint256",
					"name": "dateOfHarvesting",
					"type": "uint256"
				},
				{
					"internalType": "uint256",
					"name": "LabTestDate",
					"type": "uint256"
				},
				{
					"internalType": "uint256",
					"name": "QRCode",
					"type": "uint256"
				},
				{
					"internalType": "bool",
					"name": "QAPass",
					"type": "bool"
				},
				{
					"internalType": "bool",
					"name": "LabTestStatus",
					"type": "bool"
				},
				{
					"internalType": "address",
					"name": "Farmer",
					"type": "address"
				},
				{
					"internalType": "address",
					"name": "TestDoneBy",
					"type": "address"
				}
			],
			"stateMutability": "view",
			"type": "function"
		},
		{
			"inputs": [
				{
					"internalType": "uint256",
					"name": "",
					"type": "uint256"
				}
			],
			"name": "Techparam",
			"outputs": [
				{
					"internalType": "uint256",
					"name": "Temp",
					"type": "uint256"
				},
				{
					"internalType": "uint256",
					"name": "pH",
					"type": "uint256"
				},
				{
					"internalType": "uint256",
					"name": "protein",
					"type": "uint256"
				},
				{
					"internalType": "uint256",
					"name": "fatPercent",
					"type": "uint256"
				},
				{
					"internalType": "uint256",
					"name": "size",
					"type": "uint256"
				},
				{
					"internalType": "bool",
					"name": "QALabTestPass",
					"type": "bool"
				}
			],
			"stateMutability": "view",
			"type": "function"
		},
		{
			"inputs": [
				{
					"internalType": "uint256",
					"name": "",
					"type": "uint256"
				}
			],
			"name": "TruckList",
			"outputs": [
				{
					"internalType": "address",
					"name": "",
					"type": "address"
				}
			],
			"stateMutability": "view",
			"type": "function"
		},
		{
			"inputs": [],
			"name": "_pcsStatus",
			"outputs": [
				{
					"internalType": "bool",
					"name": "",
					"type": "bool"
				}
			],
			"stateMutability": "view",
			"type": "function"
		},
		{
			"inputs": [
				{
					"internalType": "string",
					"name": "_prodName",
					"type": "string"
				},
				{
					"internalType": "uint256",
					"name": "_quantity",
					"type": "uint256"
				},
				{
					"internalType": "uint256",
					"name": "dateOfHarvesting",
					"type": "uint256"
				},
				{
					"internalType": "uint256",
					"name": "",
					"type": "uint256"
				},
				{
					"internalType": "bool",
					"name": "",
					"type": "bool"
				},
				{
					"internalType": "address",
					"name": "",
					"type": "address"
				},
				{
					"internalType": "bool",
					"name": "",
					"type": "bool"
				},
				{
					"internalType": "uint256",
					"name": "_prodHash",
					"type": "uint256"
				}
			],
			"name": "addPrdct",
			"outputs": [
				{
					"internalType": "uint256",
					"name": "",
					"type": "uint256"
				},
				{
					"internalType": "uint256",
					"name": "",
					"type": "uint256"
				}
			],
			"stateMutability": "nonpayable",
			"type": "function"
		},
		{
			"inputs": [
				{
					"internalType": "address",
					"name": "_addProd",
					"type": "address"
				},
				{
					"internalType": "string",
					"name": "_prodName",
					"type": "string"
				},
				{
					"internalType": "uint256",
					"name": "_ProdHash",
					"type": "uint256"
				},
				{
					"internalType": "uint256",
					"name": "_quantity",
					"type": "uint256"
				},
				{
					"internalType": "uint256",
					"name": "_dateOfHarvesting",
					"type": "uint256"
				},
				{
					"internalType": "uint256",
					"name": "_LabTestDate",
					"type": "uint256"
				},
				{
					"internalType": "uint256",
					"name": "_QRCode",
					"type": "uint256"
				},
				{
					"internalType": "bool",
					"name": "_QAPass",
					"type": "bool"
				},
				{
					"internalType": "address",
					"name": "_testDoneBy",
					"type": "address"
				},
				{
					"internalType": "address",
					"name": "_Farmer",
					"type": "address"
				},
				{
					"internalType": "bool",
					"name": "_LabTestStatus",
					"type": "bool"
				}
			],
			"name": "addPrdctData",
			"outputs": [],
			"stateMutability": "nonpayable",
			"type": "function"
		},
		{
			"inputs": [
				{
					"internalType": "uint256",
					"name": "_ShrimpQAquery",
					"type": "uint256"
				},
				{
					"internalType": "uint256",
					"name": "_batchCount",
					"type": "uint256"
				},
				{
					"internalType": "uint256[]",
					"name": "_QRCodes",
					"type": "uint256[]"
				},
				{
					"internalType": "string",
					"name": "_pcsHash",
					"type": "string"
				},
				{
					"internalType": "string",
					"name": "_pcsMethod",
					"type": "string"
				},
				{
					"internalType": "uint256",
					"name": "_BBD",
					"type": "uint256"
				},
				{
					"internalType": "bool",
					"name": "_PrdctQualityPass",
					"type": "bool"
				}
			],
			"name": "addProcessData",
			"outputs": [],
			"stateMutability": "nonpayable",
			"type": "function"
		},
		{
			"inputs": [
				{
					"internalType": "address",
					"name": "payable_beneficiary",
					"type": "address"
				},
				{
					"internalType": "uint256",
					"name": "_sampleID",
					"type": "uint256"
				},
				{
					"internalType": "uint256",
					"name": "_QR",
					"type": "uint256"
				},
				{
					"internalType": "uint256",
					"name": "_Temp",
					"type": "uint256"
				},
				{
					"internalType": "uint256",
					"name": "_pH",
					"type": "uint256"
				},
				{
					"internalType": "uint256",
					"name": "_protein",
					"type": "uint256"
				},
				{
					"internalType": "uint256",
					"name": "_fatPercent",
					"type": "uint256"
				},
				{
					"internalType": "uint256",
					"name": "_size",
					"type": "uint256"
				},
				{
					"internalType": "bool",
					"name": "_QAPass",
					"type": "bool"
				}
			],
			"name": "addQAData",
			"outputs": [],
			"stateMutability": "payable",
			"type": "function"
		},
		{
			"inputs": [
				{
					"internalType": "address",
					"name": "_QALab",
					"type": "address"
				},
				{
					"internalType": "string",
					"name": "_QALabName",
					"type": "string"
				},
				{
					"internalType": "string",
					"name": "_NABLaccredNo",
					"type": "string"
				},
				{
					"internalType": "uint32",
					"name": "_TestDoneBy",
					"type": "uint32"
				},
				{
					"internalType": "uint32",
					"name": "_LabPinCode",
					"type": "uint32"
				}
			],
			"name": "addQALab",
			"outputs": [],
			"stateMutability": "nonpayable",
			"type": "function"
		},
		{
			"inputs": [
				{
					"internalType": "address",
					"name": "_ShrimpIndustryAddress",
					"type": "address"
				},
				{
					"internalType": "address",
					"name": "_ProDoneBy",
					"type": "address"
				},
				{
					"internalType": "string",
					"name": "_IndustryName",
					"type": "string"
				},
				{
					"internalType": "string",
					"name": "_NABLAccredNo",
					"type": "string"
				},
				{
					"internalType": "uint256",
					"name": "_NABLAccredValidUpto",
					"type": "uint256"
				},
				{
					"internalType": "uint256",
					"name": "_FSSAIRegNo",
					"type": "uint256"
				},
				{
					"internalType": "uint256",
					"name": "_FSSAILicenseValidUpto",
					"type": "uint256"
				},
				{
					"internalType": "uint256",
					"name": "_ShrimpPinCode",
					"type": "uint256"
				},
				{
					"internalType": "bool",
					"name": "_ShrimpStatus",
					"type": "bool"
				}
			],
			"name": "addShrimpIndustryData",
			"outputs": [],
			"stateMutability": "nonpayable",
			"type": "function"
		},
		{
			"inputs": [
				{
					"internalType": "address payable",
					"name": "_VSCS",
					"type": "address"
				},
				{
					"internalType": "uint256",
					"name": "_batchQR",
					"type": "uint256"
				},
				{
					"internalType": "uint256",
					"name": "_ShrimpTemp",
					"type": "uint256"
				},
				{
					"internalType": "uint256",
					"name": "_fatPrecent",
					"type": "uint256"
				},
				{
					"internalType": "uint256",
					"name": "_batchpH",
					"type": "uint256"
				},
				{
					"internalType": "bool",
					"name": "_sensoryTestPass",
					"type": "bool"
				},
				{
					"internalType": "bool",
					"name": "_adulterantTestPass",
					"type": "bool"
				},
				{
					"internalType": "bool",
					"name": "_chemContTestPass",
					"type": "bool"
				},
				{
					"internalType": "bool",
					"name": "_microContamTestPass",
					"type": "bool"
				},
				{
					"internalType": "bool",
					"name": "_preprocessTestPass",
					"type": "bool"
				}
			],
			"name": "addShrimpQAData",
			"outputs": [],
			"stateMutability": "payable",
			"type": "function"
		},
		{
			"inputs": [
				{
					"internalType": "address",
					"name": "_addTruck",
					"type": "address"
				},
				{
					"internalType": "address",
					"name": "_PayableBeneficiary",
					"type": "address"
				},
				{
					"internalType": "string",
					"name": "_TruckName",
					"type": "string"
				},
				{
					"internalType": "uint256",
					"name": "_quantity",
					"type": "uint256"
				},
				{
					"internalType": "uint256",
					"name": "_dateOfDeparture",
					"type": "uint256"
				},
				{
					"internalType": "uint256",
					"name": "_carrierTemp",
					"type": "uint256"
				},
				{
					"internalType": "uint256",
					"name": "_carrierCondition",
					"type": "uint256"
				},
				{
					"internalType": "uint256",
					"name": "_damageProof",
					"type": "uint256"
				},
				{
					"internalType": "address",
					"name": "_testdoneby",
					"type": "address"
				},
				{
					"internalType": "uint32",
					"name": "_TruckHash",
					"type": "uint32"
				},
				{
					"internalType": "bool",
					"name": "_TruckStatus",
					"type": "bool"
				}
			],
			"name": "addTruckData",
			"outputs": [],
			"stateMutability": "nonpayable",
			"type": "function"
		},
		{
			"inputs": [],
			"name": "admin",
			"outputs": [
				{
					"internalType": "address",
					"name": "",
					"type": "address"
				}
			],
			"stateMutability": "view",
			"type": "function"
		},
		{
			"inputs": [
				{
					"internalType": "address",
					"name": "_sender",
					"type": "address"
				}
			],
			"name": "checkShrimp",
			"outputs": [
				{
					"internalType": "bool",
					"name": "",
					"type": "bool"
				}
			],
			"stateMutability": "nonpayable",
			"type": "function"
		},
		{
			"inputs": [
				{
					"internalType": "address",
					"name": "_ShrimpIndustryAddress",
					"type": "address"
				}
			],
			"name": "checkShrimpIndustry",
			"outputs": [
				{
					"internalType": "bool",
					"name": "",
					"type": "bool"
				}
			],
			"stateMutability": "nonpayable",
			"type": "function"
		},
		{
			"inputs": [
				{
					"internalType": "uint256",
					"name": "_QRData",
					"type": "uint256"
				}
			],
			"name": "fetchProductBasicDetails",
			"outputs": [
				{
					"components": [
						{
							"internalType": "address",
							"name": "addProd",
							"type": "address"
						},
						{
							"internalType": "string",
							"name": "prodName",
							"type": "string"
						},
						{
							"internalType": "uint256",
							"name": "prodHash",
							"type": "uint256"
						},
						{
							"internalType": "uint256",
							"name": "quantity",
							"type": "uint256"
						},
						{
							"internalType": "uint256",
							"name": "dateOfHarvesting",
							"type": "uint256"
						},
						{
							"internalType": "uint256",
							"name": "LabTestDate",
							"type": "uint256"
						},
						{
							"internalType": "uint256",
							"name": "QRCode",
							"type": "uint256"
						},
						{
							"internalType": "bool",
							"name": "QAPass",
							"type": "bool"
						},
						{
							"internalType": "bool",
							"name": "LabTestStatus",
							"type": "bool"
						},
						{
							"internalType": "address",
							"name": "Farmer",
							"type": "address"
						},
						{
							"internalType": "address",
							"name": "TestDoneBy",
							"type": "address"
						}
					],
					"internalType": "struct Productcontract.PrdctData",
					"name": "",
					"type": "tuple"
				},
				{
					"components": [
						{
							"internalType": "address",
							"name": "addFarmer",
							"type": "address"
						},
						{
							"internalType": "string",
							"name": "FMname",
							"type": "string"
						},
						{
							"internalType": "string",
							"name": "RegID",
							"type": "string"
						},
						{
							"internalType": "uint32",
							"name": "FarmerPinCode",
							"type": "uint32"
						},
						{
							"internalType": "bool",
							"name": "FSSAIcertified",
							"type": "bool"
						}
					],
					"internalType": "struct stakeholders.FarmerRegister",
					"name": "",
					"type": "tuple"
				},
				{
					"components": [
						{
							"internalType": "address",
							"name": "addLab",
							"type": "address"
						},
						{
							"internalType": "string",
							"name": "QAName",
							"type": "string"
						},
						{
							"internalType": "string",
							"name": "AcredNo",
							"type": "string"
						},
						{
							"internalType": "uint32",
							"name": "TestDoneBy",
							"type": "uint32"
						},
						{
							"internalType": "uint32",
							"name": "LabPinCode",
							"type": "uint32"
						}
					],
					"internalType": "struct stakeholders.QALabRegister",
					"name": "",
					"type": "tuple"
				},
				{
					"components": [
						{
							"internalType": "address",
							"name": "addIndustryAddress",
							"type": "address"
						},
						{
							"internalType": "string",
							"name": "IndustryName",
							"type": "string"
						},
						{
							"internalType": "string",
							"name": "NABL",
							"type": "string"
						},
						{
							"internalType": "uint256",
							"name": "NABLvalidity",
							"type": "uint256"
						},
						{
							"internalType": "uint256",
							"name": "FSSAIregno",
							"type": "uint256"
						},
						{
							"internalType": "uint256",
							"name": "FSSAIregnoValidUpto",
							"type": "uint256"
						},
						{
							"internalType": "uint256",
							"name": "plantPinCode",
							"type": "uint256"
						},
						{
							"internalType": "address",
							"name": "ProDoneBy",
							"type": "address"
						},
						{
							"internalType": "bool",
							"name": "plantStatus",
							"type": "bool"
						}
					],
					"internalType": "struct stakeholders.IndustryData",
					"name": "",
					"type": "tuple"
				}
			],
			"stateMutability": "view",
			"type": "function"
		},
		{
			"inputs": [
				{
					"internalType": "uint256",
					"name": "_batchQRCode",
					"type": "uint256"
				}
			],
			"name": "fetchProductTechDetails",
			"outputs": [
				{
					"components": [
						{
							"internalType": "uint256",
							"name": "Temp",
							"type": "uint256"
						},
						{
							"internalType": "uint256",
							"name": "pH",
							"type": "uint256"
						},
						{
							"internalType": "uint256",
							"name": "protein",
							"type": "uint256"
						},
						{
							"internalType": "uint256",
							"name": "fatPercent",
							"type": "uint256"
						},
						{
							"internalType": "uint256",
							"name": "size",
							"type": "uint256"
						},
						{
							"internalType": "bool",
							"name": "QALabTestPass",
							"type": "bool"
						}
					],
					"internalType": "struct QALabcontract.TechData",
					"name": "",
					"type": "tuple"
				},
				{
					"components": [
						{
							"internalType": "uint256",
							"name": "shrimpTemp",
							"type": "uint256"
						},
						{
							"internalType": "uint256",
							"name": "prdctFat",
							"type": "uint256"
						},
						{
							"internalType": "uint256",
							"name": "pH",
							"type": "uint256"
						},
						{
							"internalType": "uint256",
							"name": "InhouseQAtime",
							"type": "uint256"
						},
						{
							"internalType": "bool",
							"name": "SensData",
							"type": "bool"
						},
						{
							"internalType": "bool",
							"name": "NoAdulterants",
							"type": "bool"
						},
						{
							"internalType": "bool",
							"name": "NoChemCont",
							"type": "bool"
						},
						{
							"internalType": "bool",
							"name": "NoMicroCont",
							"type": "bool"
						},
						{
							"internalType": "bool",
							"name": "preProcTestpass",
							"type": "bool"
						},
						{
							"internalType": "bool",
							"name": "ModStatus",
							"type": "bool"
						}
					],
					"internalType": "struct Processcontract.ShrimpQA",
					"name": "",
					"type": "tuple"
				},
				{
					"components": [
						{
							"internalType": "string",
							"name": "pcsHash",
							"type": "string"
						},
						{
							"internalType": "string",
							"name": "pcsMethod",
							"type": "string"
						},
						{
							"internalType": "uint256",
							"name": "BBD",
							"type": "uint256"
						},
						{
							"internalType": "uint256",
							"name": "processTime",
							"type": "uint256"
						},
						{
							"internalType": "bool",
							"name": "finalPrdctQuality",
							"type": "bool"
						},
						{
							"internalType": "bool",
							"name": "pcsStatus",
							"type": "bool"
						},
						{
							"internalType": "address",
							"name": "ProDoneBy",
							"type": "address"
						}
					],
					"internalType": "struct Processcontract.ProcessData",
					"name": "",
					"type": "tuple"
				}
			],
			"stateMutability": "view",
			"type": "function"
		},
		{
			"inputs": [
				{
					"internalType": "address",
					"name": "",
					"type": "address"
				}
			],
			"name": "prdctCount",
			"outputs": [
				{
					"internalType": "uint256",
					"name": "",
					"type": "uint256"
				}
			],
			"stateMutability": "view",
			"type": "function"
		},
		{
			"inputs": [
				{
					"internalType": "address",
					"name": "",
					"type": "address"
				},
				{
					"internalType": "uint256",
					"name": "",
					"type": "uint256"
				}
			],
			"name": "prdctTag",
			"outputs": [
				{
					"internalType": "address",
					"name": "addProd",
					"type": "address"
				},
				{
					"internalType": "string",
					"name": "prodName",
					"type": "string"
				},
				{
					"internalType": "uint256",
					"name": "prodHash",
					"type": "uint256"
				},
				{
					"internalType": "uint256",
					"name": "quantity",
					"type": "uint256"
				},
				{
					"internalType": "uint256",
					"name": "dateOfHarvesting",
					"type": "uint256"
				},
				{
					"internalType": "uint256",
					"name": "LabTestDate",
					"type": "uint256"
				},
				{
					"internalType": "uint256",
					"name": "QRCode",
					"type": "uint256"
				},
				{
					"internalType": "bool",
					"name": "QAPass",
					"type": "bool"
				},
				{
					"internalType": "bool",
					"name": "LabTestStatus",
					"type": "bool"
				},
				{
					"internalType": "address",
					"name": "Farmer",
					"type": "address"
				},
				{
					"internalType": "address",
					"name": "TestDoneBy",
					"type": "address"
				}
			],
			"stateMutability": "view",
			"type": "function"
		},
		{
			"inputs": [
				{
					"internalType": "uint256",
					"name": "_digits",
					"type": "uint256"
				}
			],
			"name": "setQRDigits",
			"outputs": [],
			"stateMutability": "nonpayable",
			"type": "function"
		}
	]
}